{"abi":[{"type":"constructor","inputs":[],"stateMutability":"nonpayable"},{"type":"function","name":"getFieldModulus","inputs":[],"outputs":[{"name":"","type":"uint256","internalType":"uint256"}],"stateMutability":"pure"},{"type":"function","name":"getPublicInputCount","inputs":[],"outputs":[{"name":"","type":"uint256","internalType":"uint256"}],"stateMutability":"pure"},{"type":"function","name":"owner","inputs":[],"outputs":[{"name":"","type":"address","internalType":"address"}],"stateMutability":"view"},{"type":"function","name":"renounceOwnership","inputs":[],"outputs":[],"stateMutability":"nonpayable"},{"type":"function","name":"transferOwnership","inputs":[{"name":"newOwner","type":"address","internalType":"address"}],"outputs":[],"stateMutability":"nonpayable"},{"type":"function","name":"verifyProof","inputs":[{"name":"proof","type":"tuple","internalType":"struct WillVerifier.Proof","components":[{"name":"W1","type":"uint256[2]","internalType":"uint256[2]"},{"name":"W2","type":"uint256[2]","internalType":"uint256[2]"},{"name":"W3","type":"uint256[2]","internalType":"uint256[2]"},{"name":"W4","type":"uint256[2]","internalType":"uint256[2]"},{"name":"Z","type":"uint256[4]","internalType":"uint256[4]"},{"name":"T1","type":"uint256[4]","internalType":"uint256[4]"},{"name":"T2","type":"uint256[4]","internalType":"uint256[4]"},{"name":"T3","type":"uint256[4]","internalType":"uint256[4]"},{"name":"T4","type":"uint256[4]","internalType":"uint256[4]"},{"name":"W1_omega","type":"uint256[2]","internalType":"uint256[2]"},{"name":"W2_omega","type":"uint256[2]","internalType":"uint256[2]"},{"name":"W3_omega","type":"uint256[2]","internalType":"uint256[2]"},{"name":"W4_omega","type":"uint256[2]","internalType":"uint256[2]"},{"name":"PI_Z","type":"uint256[2]","internalType":"uint256[2]"},{"name":"PI_Z_omega","type":"uint256[2]","internalType":"uint256[2]"},{"name":"r_0","type":"uint256[2]","internalType":"uint256[2]"}]},{"name":"publicInputs","type":"uint256[5]","internalType":"uint256[5]"}],"outputs":[{"name":"isValid","type":"bool","internalType":"bool"}],"stateMutability":"nonpayable"},{"type":"function","name":"verifyWillProof","inputs":[{"name":"proof","type":"tuple","internalType":"struct WillVerifier.Proof","components":[{"name":"W1","type":"uint256[2]","internalType":"uint256[2]"},{"name":"W2","type":"uint256[2]","internalType":"uint256[2]"},{"name":"W3","type":"uint256[2]","internalType":"uint256[2]"},{"name":"W4","type":"uint256[2]","internalType":"uint256[2]"},{"name":"Z","type":"uint256[4]","internalType":"uint256[4]"},{"name":"T1","type":"uint256[4]","internalType":"uint256[4]"},{"name":"T2","type":"uint256[4]","internalType":"uint256[4]"},{"name":"T3","type":"uint256[4]","internalType":"uint256[4]"},{"name":"T4","type":"uint256[4]","internalType":"uint256[4]"},{"name":"W1_omega","type":"uint256[2]","internalType":"uint256[2]"},{"name":"W2_omega","type":"uint256[2]","internalType":"uint256[2]"},{"name":"W3_omega","type":"uint256[2]","internalType":"uint256[2]"},{"name":"W4_omega","type":"uint256[2]","internalType":"uint256[2]"},{"name":"PI_Z","type":"uint256[2]","internalType":"uint256[2]"},{"name":"PI_Z_omega","type":"uint256[2]","internalType":"uint256[2]"},{"name":"r_0","type":"uint256[2]","internalType":"uint256[2]"}]},{"name":"willCommitment","type":"uint256","internalType":"uint256"},{"name":"merkleRoot","type":"uint256","internalType":"uint256"},{"name":"totalEth","type":"uint256","internalType":"uint256"},{"name":"totalUsdc","type":"uint256","internalType":"uint256"},{"name":"totalNftCount","type":"uint256","internalType":"uint256"}],"outputs":[{"name":"isValid","type":"bool","internalType":"bool"}],"stateMutability":"nonpayable"},{"type":"event","name":"OwnershipTransferred","inputs":[{"name":"previousOwner","type":"address","indexed":true,"internalType":"address"},{"name":"newOwner","type":"address","indexed":true,"internalType":"address"}],"anonymous":false},{"type":"event","name":"ProofVerified","inputs":[{"name":"verifier","type":"address","indexed":true,"internalType":"address"},{"name":"publicInputs","type":"uint256[5]","indexed":false,"internalType":"uint256[5]"},{"name":"isValid","type":"bool","indexed":false,"internalType":"bool"}],"anonymous":false},{"type":"error","name":"OwnableInvalidOwner","inputs":[{"name":"owner","type":"address","internalType":"address"}]},{"type":"error","name":"OwnableUnauthorizedAccount","inputs":[{"name":"account","type":"address","internalType":"address"}]}],"bytecode":{"object":"0x608060405234801561000f575f5ffd5b50335f73ffffffffffffffffffffffffffffffffffffffff168173ffffffffffffffffffffffffffffffffffffffff1603610081575f6040517f1e4fbdf70000000000000000000000000000000000000000000000000000000081526004016100789190610196565b60405180910390fd5b6100908161009660201b60201c565b506101af565b5f5f5f9054906101000a900473ffffffffffffffffffffffffffffffffffffffff169050815f5f6101000a81548173ffffffffffffffffffffffffffffffffffffffff021916908373ffffffffffffffffffffffffffffffffffffffff1602179055508173ffffffffffffffffffffffffffffffffffffffff168173ffffffffffffffffffffffffffffffffffffffff167f8be0079c531659141344cd1fd0a4f28419497f9722a3daafe3b4186f6b6457e060405160405180910390a35050565b5f73ffffffffffffffffffffffffffffffffffffffff82169050919050565b5f61018082610157565b9050919050565b61019081610176565b82525050565b5f6020820190506101a95f830184610187565b92915050565b611448806101bc5f395ff3fe608060405234801561000f575f5ffd5b506004361061007b575f3560e01c8063779d890d11610059578063779d890d146100d75780638da5cb5b146100f5578063f2fde38b14610113578063f8db671e1461012f5761007b565b806330b1acbb1461007f578063466732eb146100af578063715018a6146100cd575b5f5ffd5b61009960048036038101906100949190610e34565b61015f565b6040516100a69190610e8e565b60405180910390f35b6100b7610415565b6040516100c49190610eb6565b60405180910390f35b6100d561041d565b005b6100df610430565b6040516100ec9190610eb6565b60405180910390f35b6100fd610457565b60405161010a9190610f0e565b60405180910390f35b61012d60048036038101906101289190610f51565b61047e565b005b61014960048036038101906101449190610f7c565b610502565b6040516101569190610e8e565b60405180910390f35b5f600580146101a3576040517f08c379a000000000000000000000000000000000000000000000000000000000815260040161019a90611065565b60405180910390fd5b5f5f90505b6005811015610237577f30644e72e131a029b85045b68181585d2833e84879b9709143e1f593f00000018382600581106101e5576101e4611083565b5b60200201511061022a576040517f08c379a000000000000000000000000000000000000000000000000000000000815260040161022190611120565b60405180910390fd5b80806001019150506101a8565b50610244835f0151610544565b610283576040517f08c379a000000000000000000000000000000000000000000000000000000000815260040161027a90611188565b60405180910390fd5b6102908360200151610544565b6102cf576040517f08c379a00000000000000000000000000000000000000000000000000000000081526004016102c6906111f0565b60405180910390fd5b6102dc8360400151610544565b61031b576040517f08c379a000000000000000000000000000000000000000000000000000000000815260040161031290611258565b60405180910390fd5b6103288360600151610544565b610367576040517f08c379a000000000000000000000000000000000000000000000000000000000815260040161035e906112c0565b60405180910390fd5b61037483608001516105c9565b6103b3576040517f08c379a00000000000000000000000000000000000000000000000000000000081526004016103aa90611328565b60405180910390fd5b6103bd83836106d4565b90503373ffffffffffffffffffffffffffffffffffffffff167fa156a0838c9b2ea4d8843558551c3e51251e71da35a4ec40076b1045ca860e7a83836040516104079291906113eb565b60405180910390a292915050565b5f6005905090565b61042561088c565b61042e5f610913565b565b5f7f30644e72e131a029b85045b68181585d2833e84879b9709143e1f593f0000001905090565b5f5f5f9054906101000a900473ffffffffffffffffffffffffffffffffffffffff16905090565b61048661088c565b5f73ffffffffffffffffffffffffffffffffffffffff168173ffffffffffffffffffffffffffffffffffffffff16036104f6575f6040517f1e4fbdf70000000000000000000000000000000000000000000000000000000081526004016104ed9190610f0e565b60405180910390fd5b6104ff81610913565b50565b5f5f6040518060a00160405280888152602001878152602001868152602001858152602001848152509050610537888261015f565b9150509695505050505050565b5f7f30644e72e131a029b85045b68181585d2833e84879b9709143e1f593f0000001825f6002811061057957610578611083565b5b60200201511080156105c257507f30644e72e131a029b85045b68181585d2833e84879b9709143e1f593f0000001826001600281106105bb576105ba611083565b5b6020020151105b9050919050565b5f7f30644e72e131a029b85045b68181585d2833e84879b9709143e1f593f0000001825f600481106105fe576105fd611083565b5b602002015110801561064757507f30644e72e131a029b85045b68181585d2833e84879b9709143e1f593f0000001826001600481106106405761063f611083565b5b6020020151105b801561068a57507f30644e72e131a029b85045b68181585d2833e84879b9709143e1f593f00000018260026004811061068357610682611083565b5b6020020151105b80156106cd57507f30644e72e131a029b85045b68181585d2833e84879b9709143e1f593f0000001826003600481106106c6576106c5611083565b5b6020020151105b9050919050565b5f5f825f600581106106e9576106e8611083565b5b6020020151036106fb575f9050610886565b5f826001600581106107105761070f611083565b5b602002015103610722575f9050610886565b5f8260026005811061073757610736611083565b5b602002015114801561076057505f8260036005811061075957610758611083565b5b6020020151145b801561078357505f8260046005811061077c5761077b611083565b5b6020020151145b15610790575f9050610886565b5f835f01515f600281106107a7576107a6611083565b5b602002015114806107d257505f835f01516001600281106107cb576107ca611083565b5b6020020151145b156107df575f9050610886565b5f83602001515f600281106107f7576107f6611083565b5b6020020151148061082357505f836020015160016002811061081c5761081b611083565b5b6020020151145b15610830575f9050610886565b5f83608001515f6004811061084857610847611083565b5b6020020151148061087457505f836080015160016004811061086d5761086c611083565b5b6020020151145b15610881575f9050610886565b600190505b92915050565b6108946109d4565b73ffffffffffffffffffffffffffffffffffffffff166108b2610457565b73ffffffffffffffffffffffffffffffffffffffff1614610911576108d56109d4565b6040517f118cdaa70000000000000000000000000000000000000000000000000000000081526004016109089190610f0e565b60405180910390fd5b565b5f5f5f9054906101000a900473ffffffffffffffffffffffffffffffffffffffff169050815f5f6101000a81548173ffffffffffffffffffffffffffffffffffffffff021916908373ffffffffffffffffffffffffffffffffffffffff1602179055508173ffffffffffffffffffffffffffffffffffffffff168173ffffffffffffffffffffffffffffffffffffffff167f8be0079c531659141344cd1fd0a4f28419497f9722a3daafe3b4186f6b6457e060405160405180910390a35050565b5f33905090565b5f604051905090565b5f5ffd5b5f5ffd5b5f601f19601f8301169050919050565b7f4e487b71000000000000000000000000000000000000000000000000000000005f52604160045260245ffd5b610a32826109ec565b810181811067ffffffffffffffff82111715610a5157610a506109fc565b5b80604052505050565b5f610a636109db565b9050610a6f8282610a29565b919050565b5f5ffd5b5f67ffffffffffffffff821115610a9257610a916109fc565b5b602082029050919050565b5f5ffd5b5f819050919050565b610ab381610aa1565b8114610abd575f5ffd5b50565b5f81359050610ace81610aaa565b92915050565b5f610ae6610ae184610a78565b610a5a565b90508060208402830185811115610b0057610aff610a9d565b5b835b81811015610b295780610b158882610ac0565b845260208401935050602081019050610b02565b5050509392505050565b5f82601f830112610b4757610b46610a74565b5b6002610b54848285610ad4565b91505092915050565b5f67ffffffffffffffff821115610b7757610b766109fc565b5b602082029050919050565b5f610b94610b8f84610b5d565b610a5a565b90508060208402830185811115610bae57610bad610a9d565b5b835b81811015610bd75780610bc38882610ac0565b845260208401935050602081019050610bb0565b5050509392505050565b5f82601f830112610bf557610bf4610a74565b5b6004610c02848285610b82565b91505092915050565b5f6105408284031215610c2157610c206109e8565b5b610c2c610200610a5a565b90505f610c3b84828501610b33565b5f830152506040610c4e84828501610b33565b6020830152506080610c6284828501610b33565b60408301525060c0610c7684828501610b33565b606083015250610100610c8b84828501610be1565b608083015250610180610ca084828501610be1565b60a083015250610200610cb584828501610be1565b60c083015250610280610cca84828501610be1565b60e083015250610300610cdf84828501610be1565b61010083015250610380610cf584828501610b33565b610120830152506103c0610d0b84828501610b33565b61014083015250610400610d2184828501610b33565b61016083015250610440610d3784828501610b33565b61018083015250610480610d4d84828501610b33565b6101a0830152506104c0610d6384828501610b33565b6101c083015250610500610d7984828501610b33565b6101e08301525092915050565b5f67ffffffffffffffff821115610da057610d9f6109fc565b5b602082029050919050565b5f610dbd610db884610d86565b610a5a565b90508060208402830185811115610dd757610dd6610a9d565b5b835b81811015610e005780610dec8882610ac0565b845260208401935050602081019050610dd9565b5050509392505050565b5f82601f830112610e1e57610e1d610a74565b5b6005610e2b848285610dab565b91505092915050565b5f5f6105e08385031215610e4b57610e4a6109e4565b5b5f610e5885828601610c0b565b925050610540610e6a85828601610e0a565b9150509250929050565b5f8115159050919050565b610e8881610e74565b82525050565b5f602082019050610ea15f830184610e7f565b92915050565b610eb081610aa1565b82525050565b5f602082019050610ec95f830184610ea7565b92915050565b5f73ffffffffffffffffffffffffffffffffffffffff82169050919050565b5f610ef882610ecf565b9050919050565b610f0881610eee565b82525050565b5f602082019050610f215f830184610eff565b92915050565b610f3081610eee565b8114610f3a575f5ffd5b50565b5f81359050610f4b81610f27565b92915050565b5f60208284031215610f6657610f656109e4565b5b5f610f7384828501610f3d565b91505092915050565b5f5f5f5f5f5f6105e08789031215610f9757610f966109e4565b5b5f610fa489828a01610c0b565b965050610540610fb689828a01610ac0565b955050610560610fc889828a01610ac0565b945050610580610fda89828a01610ac0565b9350506105a0610fec89828a01610ac0565b9250506105c0610ffe89828a01610ac0565b9150509295509295509295565b5f82825260208201905092915050565b7f496e76616c6964207075626c696320696e70757473206c656e677468000000005f82015250565b5f61104f601c8361100b565b915061105a8261101b565b602082019050919050565b5f6020820190508181035f83015261107c81611043565b9050919050565b7f4e487b71000000000000000000000000000000000000000000000000000000005f52603260045260245ffd5b7f5075626c696320696e7075742065786365656473206669656c64206d6f64756c5f8201527f7573000000000000000000000000000000000000000000000000000000000000602082015250565b5f61110a60228361100b565b9150611115826110b0565b604082019050919050565b5f6020820190508181035f830152611137816110fe565b9050919050565b7f496e76616c6964205731000000000000000000000000000000000000000000005f82015250565b5f611172600a8361100b565b915061117d8261113e565b602082019050919050565b5f6020820190508181035f83015261119f81611166565b9050919050565b7f496e76616c6964205732000000000000000000000000000000000000000000005f82015250565b5f6111da600a8361100b565b91506111e5826111a6565b602082019050919050565b5f6020820190508181035f830152611207816111ce565b9050919050565b7f496e76616c6964205733000000000000000000000000000000000000000000005f82015250565b5f611242600a8361100b565b915061124d8261120e565b602082019050919050565b5f6020820190508181035f83015261126f81611236565b9050919050565b7f496e76616c6964205734000000000000000000000000000000000000000000005f82015250565b5f6112aa600a8361100b565b91506112b582611276565b602082019050919050565b5f6020820190508181035f8301526112d78161129e565b9050919050565b7f496e76616c6964205a00000000000000000000000000000000000000000000005f82015250565b5f61131260098361100b565b915061131d826112de565b602082019050919050565b5f6020820190508181035f83015261133f81611306565b9050919050565b5f60059050919050565b5f81905092915050565b5f819050919050565b61136c81610aa1565b82525050565b5f61137d8383611363565b60208301905092915050565b5f602082019050919050565b61139e81611346565b6113a88184611350565b92506113b38261135a565b805f5b838110156113e35781516113ca8782611372565b96506113d583611389565b9250506001810190506113b6565b505050505050565b5f60c0820190506113fe5f830185611395565b61140b60a0830184610e7f565b939250505056fea2646970667358221220e54a6b3468d7f5280a1dcefd913baf377a2e9b0a0865c337f0209ccefca5acac64736f6c634300081d0033","linkReferences":{}},"methodIdentifiers":{"getFieldModulus()":"779d890d","getPublicInputCount()":"466732eb","owner()":"8da5cb5b","renounceOwnership()":"715018a6","transferOwnership(address)":"f2fde38b","verifyProof((uint256[2],uint256[2],uint256[2],uint256[2],uint256[4],uint256[4],uint256[4],uint256[4],uint256[4],uint256[2],uint256[2],uint256[2],uint256[2],uint256[2],uint256[2],uint256[2]),uint256[5])":"30b1acbb","verifyWillProof((uint256[2],uint256[2],uint256[2],uint256[2],uint256[4],uint256[4],uint256[4],uint256[4],uint256[4],uint256[2],uint256[2],uint256[2],uint256[2],uint256[2],uint256[2],uint256[2]),uint256,uint256,uint256,uint256,uint256)":"f8db671e"},"id":5}