{"abi":[{"type":"constructor","inputs":[{"name":"_verifier","type":"address","internalType":"address"},{"name":"_heartbeat","type":"address","internalType":"address"}],"stateMutability":"nonpayable"},{"type":"function","name":"emergencyWithdraw","inputs":[{"name":"amount","type":"uint256","internalType":"uint256"}],"outputs":[],"stateMutability":"nonpayable"},{"type":"function","name":"executeWill","inputs":[{"name":"willCommitment","type":"bytes32","internalType":"bytes32"},{"name":"merkleRoot","type":"uint256","internalType":"uint256"},{"name":"totalEth","type":"uint256","internalType":"uint256"},{"name":"totalUsdc","type":"uint256","internalType":"uint256"},{"name":"totalNftCount","type":"uint256","internalType":"uint256"},{"name":"proof","type":"tuple","internalType":"struct WillVerifier.Proof","components":[{"name":"W1","type":"uint256[2]","internalType":"uint256[2]"},{"name":"W2","type":"uint256[2]","internalType":"uint256[2]"},{"name":"W3","type":"uint256[2]","internalType":"uint256[2]"},{"name":"W4","type":"uint256[2]","internalType":"uint256[2]"},{"name":"Z","type":"uint256[4]","internalType":"uint256[4]"},{"name":"T1","type":"uint256[4]","internalType":"uint256[4]"},{"name":"T2","type":"uint256[4]","internalType":"uint256[4]"},{"name":"T3","type":"uint256[4]","internalType":"uint256[4]"},{"name":"T4","type":"uint256[4]","internalType":"uint256[4]"},{"name":"W1_omega","type":"uint256[2]","internalType":"uint256[2]"},{"name":"W2_omega","type":"uint256[2]","internalType":"uint256[2]"},{"name":"W3_omega","type":"uint256[2]","internalType":"uint256[2]"},{"name":"W4_omega","type":"uint256[2]","internalType":"uint256[2]"},{"name":"PI_Z","type":"uint256[2]","internalType":"uint256[2]"},{"name":"PI_Z_omega","type":"uint256[2]","internalType":"uint256[2]"},{"name":"r_0","type":"uint256[2]","internalType":"uint256[2]"}]}],"outputs":[],"stateMutability":"nonpayable"},{"type":"function","name":"executeWillWithHeartbeat","inputs":[{"name":"willCommitment","type":"bytes32","internalType":"bytes32"},{"name":"merkleRoot","type":"uint256","internalType":"uint256"},{"name":"totalEth","type":"uint256","internalType":"uint256"},{"name":"totalUsdc","type":"uint256","internalType":"uint256"},{"name":"totalNftCount","type":"uint256","internalType":"uint256"},{"name":"proof","type":"tuple","internalType":"struct WillVerifier.Proof","components":[{"name":"W1","type":"uint256[2]","internalType":"uint256[2]"},{"name":"W2","type":"uint256[2]","internalType":"uint256[2]"},{"name":"W3","type":"uint256[2]","internalType":"uint256[2]"},{"name":"W4","type":"uint256[2]","internalType":"uint256[2]"},{"name":"Z","type":"uint256[4]","internalType":"uint256[4]"},{"name":"T1","type":"uint256[4]","internalType":"uint256[4]"},{"name":"T2","type":"uint256[4]","internalType":"uint256[4]"},{"name":"T3","type":"uint256[4]","internalType":"uint256[4]"},{"name":"T4","type":"uint256[4]","internalType":"uint256[4]"},{"name":"W1_omega","type":"uint256[2]","internalType":"uint256[2]"},{"name":"W2_omega","type":"uint256[2]","internalType":"uint256[2]"},{"name":"W3_omega","type":"uint256[2]","internalType":"uint256[2]"},{"name":"W4_omega","type":"uint256[2]","internalType":"uint256[2]"},{"name":"PI_Z","type":"uint256[2]","internalType":"uint256[2]"},{"name":"PI_Z_omega","type":"uint256[2]","internalType":"uint256[2]"},{"name":"r_0","type":"uint256[2]","internalType":"uint256[2]"}]}],"outputs":[],"stateMutability":"nonpayable"},{"type":"function","name":"executedWills","inputs":[{"name":"","type":"bytes32","internalType":"bytes32"}],"outputs":[{"name":"","type":"bool","internalType":"bool"}],"stateMutability":"view"},{"type":"function","name":"getRegisteredWill","inputs":[{"name":"willCommitment","type":"bytes32","internalType":"bytes32"}],"outputs":[{"name":"will","type":"tuple","internalType":"struct WillExecutor.RegisteredWill","components":[{"name":"owner","type":"address","internalType":"address"},{"name":"registrationTime","type":"uint256","internalType":"uint256"},{"name":"totalEth","type":"uint256","internalType":"uint256"},{"name":"totalUsdc","type":"uint256","internalType":"uint256"},{"name":"totalNfts","type":"uint256","internalType":"uint256"},{"name":"exists","type":"bool","internalType":"bool"}]}],"stateMutability":"view"},{"type":"function","name":"getStats","inputs":[],"outputs":[{"name":"registered","type":"uint256","internalType":"uint256"},{"name":"executed","type":"uint256","internalType":"uint256"}],"stateMutability":"view"},{"type":"function","name":"getWillExecution","inputs":[{"name":"willCommitment","type":"bytes32","internalType":"bytes32"}],"outputs":[{"name":"execution","type":"tuple","internalType":"struct WillExecutor.WillExecution","components":[{"name":"executor","type":"address","internalType":"address"},{"name":"executionTime","type":"uint256","internalType":"uint256"},{"name":"totalValueTransferred","type":"uint256","internalType":"uint256"},{"name":"success","type":"bool","internalType":"bool"}]}],"stateMutability":"view"},{"type":"function","name":"heartbeat","inputs":[],"outputs":[{"name":"","type":"address","internalType":"address"}],"stateMutability":"view"},{"type":"function","name":"isWillExecuted","inputs":[{"name":"willCommitment","type":"bytes32","internalType":"bytes32"}],"outputs":[{"name":"executed","type":"bool","internalType":"bool"}],"stateMutability":"view"},{"type":"function","name":"isWillRegistered","inputs":[{"name":"willCommitment","type":"bytes32","internalType":"bytes32"}],"outputs":[{"name":"exists","type":"bool","internalType":"bool"}],"stateMutability":"view"},{"type":"function","name":"owner","inputs":[],"outputs":[{"name":"","type":"address","internalType":"address"}],"stateMutability":"view"},{"type":"function","name":"pause","inputs":[],"outputs":[],"stateMutability":"nonpayable"},{"type":"function","name":"paused","inputs":[],"outputs":[{"name":"","type":"bool","internalType":"bool"}],"stateMutability":"view"},{"type":"function","name":"registerWill","inputs":[{"name":"willCommitment","type":"bytes32","internalType":"bytes32"},{"name":"totalEth","type":"uint256","internalType":"uint256"},{"name":"totalUsdc","type":"uint256","internalType":"uint256"},{"name":"totalNfts","type":"uint256","internalType":"uint256"}],"outputs":[],"stateMutability":"payable"},{"type":"function","name":"registeredWills","inputs":[{"name":"","type":"bytes32","internalType":"bytes32"}],"outputs":[{"name":"owner","type":"address","internalType":"address"},{"name":"registrationTime","type":"uint256","internalType":"uint256"},{"name":"totalEth","type":"uint256","internalType":"uint256"},{"name":"totalUsdc","type":"uint256","internalType":"uint256"},{"name":"totalNfts","type":"uint256","internalType":"uint256"},{"name":"exists","type":"bool","internalType":"bool"}],"stateMutability":"view"},{"type":"function","name":"renounceOwnership","inputs":[],"outputs":[],"stateMutability":"nonpayable"},{"type":"function","name":"totalWillsExecuted","inputs":[],"outputs":[{"name":"","type":"uint256","internalType":"uint256"}],"stateMutability":"view"},{"type":"function","name":"totalWillsRegistered","inputs":[],"outputs":[{"name":"","type":"uint256","internalType":"uint256"}],"stateMutability":"view"},{"type":"function","name":"transferOwnership","inputs":[{"name":"newOwner","type":"address","internalType":"address"}],"outputs":[],"stateMutability":"nonpayable"},{"type":"function","name":"unpause","inputs":[],"outputs":[],"stateMutability":"nonpayable"},{"type":"function","name":"verifier","inputs":[],"outputs":[{"name":"","type":"address","internalType":"contract WillVerifier"}],"stateMutability":"view"},{"type":"function","name":"willExecutions","inputs":[{"name":"","type":"bytes32","internalType":"bytes32"}],"outputs":[{"name":"executor","type":"address","internalType":"address"},{"name":"executionTime","type":"uint256","internalType":"uint256"},{"name":"totalValueTransferred","type":"uint256","internalType":"uint256"},{"name":"success","type":"bool","internalType":"bool"}],"stateMutability":"view"},{"type":"function","name":"withdrawAllEth","inputs":[{"name":"willCommitment","type":"bytes32","internalType":"bytes32"}],"outputs":[],"stateMutability":"nonpayable"},{"type":"function","name":"withdrawEth","inputs":[{"name":"willCommitment","type":"bytes32","internalType":"bytes32"}],"outputs":[],"stateMutability":"nonpayable"},{"type":"event","name":"EmergencyWithdrawal","inputs":[{"name":"owner","type":"address","indexed":true,"internalType":"address"},{"name":"amount","type":"uint256","indexed":false,"internalType":"uint256"}],"anonymous":false},{"type":"event","name":"EthWithdrawn","inputs":[{"name":"willCommitment","type":"bytes32","indexed":true,"internalType":"bytes32"},{"name":"owner","type":"address","indexed":true,"internalType":"address"},{"name":"amount","type":"uint256","indexed":false,"internalType":"uint256"}],"anonymous":false},{"type":"event","name":"OwnershipTransferred","inputs":[{"name":"previousOwner","type":"address","indexed":true,"internalType":"address"},{"name":"newOwner","type":"address","indexed":true,"internalType":"address"}],"anonymous":false},{"type":"event","name":"Paused","inputs":[{"name":"account","type":"address","indexed":false,"internalType":"address"}],"anonymous":false},{"type":"event","name":"ProofVerified","inputs":[{"name":"willCommitment","type":"bytes32","indexed":true,"internalType":"bytes32"},{"name":"verifier","type":"address","indexed":true,"internalType":"address"},{"name":"isValid","type":"bool","indexed":false,"internalType":"bool"}],"anonymous":false},{"type":"event","name":"Unpaused","inputs":[{"name":"account","type":"address","indexed":false,"internalType":"address"}],"anonymous":false},{"type":"event","name":"WillExecuted","inputs":[{"name":"willCommitment","type":"bytes32","indexed":true,"internalType":"bytes32"},{"name":"executor","type":"address","indexed":true,"internalType":"address"},{"name":"executionTime","type":"uint256","indexed":false,"internalType":"uint256"},{"name":"success","type":"bool","indexed":false,"internalType":"bool"}],"anonymous":false},{"type":"event","name":"WillRegistered","inputs":[{"name":"willCommitment","type":"bytes32","indexed":true,"internalType":"bytes32"},{"name":"owner","type":"address","indexed":true,"internalType":"address"},{"name":"totalEth","type":"uint256","indexed":false,"internalType":"uint256"},{"name":"totalUsdc","type":"uint256","indexed":false,"internalType":"uint256"},{"name":"totalNfts","type":"uint256","indexed":false,"internalType":"uint256"}],"anonymous":false},{"type":"error","name":"EnforcedPause","inputs":[]},{"type":"error","name":"ExpectedPause","inputs":[]},{"type":"error","name":"InactivityNotFinalized","inputs":[]},{"type":"error","name":"InsufficientBalance","inputs":[]},{"type":"error","name":"InvalidHeartbeat","inputs":[]},{"type":"error","name":"InvalidProof","inputs":[]},{"type":"error","name":"InvalidVerifier","inputs":[]},{"type":"error","name":"OwnableInvalidOwner","inputs":[{"name":"owner","type":"address","internalType":"address"}]},{"type":"error","name":"OwnableUnauthorizedAccount","inputs":[{"name":"account","type":"address","internalType":"address"}]},{"type":"error","name":"ReentrancyGuardReentrantCall","inputs":[]},{"type":"error","name":"TransferFailed","inputs":[]},{"type":"error","name":"UnauthorizedExecution","inputs":[]},{"type":"error","name":"WillAlreadyExecuted","inputs":[]},{"type":"error","name":"WillAlreadyRegistered","inputs":[]},{"type":"error","name":"WillNotRegistered","inputs":[]}],"bytecode":{"object":"0x60c060405234801561000f575f5ffd5b50604051612a5f380380612a5f83398181016040528101906100319190610311565b335f73ffffffffffffffffffffffffffffffffffffffff168173ffffffffffffffffffffffffffffffffffffffff16036100a2575f6040517f1e4fbdf7000000000000000000000000000000000000000000000000000000008152600401610099919061035e565b60405180910390fd5b6100b1816101f260201b60201c565b50600180819055505f73ffffffffffffffffffffffffffffffffffffffff168273ffffffffffffffffffffffffffffffffffffffff160361011e576040517fbaa3de5f00000000000000000000000000000000000000000000000000000000815260040160405180910390fd5b5f73ffffffffffffffffffffffffffffffffffffffff168173ffffffffffffffffffffffffffffffffffffffff1603610183576040517f8f1825c900000000000000000000000000000000000000000000000000000000815260040160405180910390fd5b8173ffffffffffffffffffffffffffffffffffffffff1660808173ffffffffffffffffffffffffffffffffffffffff16815250508073ffffffffffffffffffffffffffffffffffffffff1660a08173ffffffffffffffffffffffffffffffffffffffff16815250505050610377565b5f5f5f9054906101000a900473ffffffffffffffffffffffffffffffffffffffff169050815f5f6101000a81548173ffffffffffffffffffffffffffffffffffffffff021916908373ffffffffffffffffffffffffffffffffffffffff1602179055508173ffffffffffffffffffffffffffffffffffffffff168173ffffffffffffffffffffffffffffffffffffffff167f8be0079c531659141344cd1fd0a4f28419497f9722a3daafe3b4186f6b6457e060405160405180910390a35050565b5f5ffd5b5f73ffffffffffffffffffffffffffffffffffffffff82169050919050565b5f6102e0826102b7565b9050919050565b6102f0816102d6565b81146102fa575f5ffd5b50565b5f8151905061030b816102e7565b92915050565b5f5f60408385031215610327576103266102b3565b5b5f610334858286016102fd565b9250506020610345858286016102fd565b9150509250929050565b610358816102d6565b82525050565b5f6020820190506103715f83018461034f565b92915050565b60805160a0516126b96103a65f395f610af701525f81816107c801528181611649015261172701526126b95ff3fe60806040526004361061014a575f3560e01c80638456cb59116100b5578063b5fc3d131161006e578063b5fc3d1314610451578063c59d48471461048d578063c5b29cbf146104b8578063cd9be6b2146104f7578063e349a89f1461051f578063f2fde38b146105475761014a565b80638456cb5914610347578063869bb1e71461035d5780638da5cb5b146103995780639472235d146103c357806396965ce3146103ed578063a6aa4dbc146104295761014a565b80633f4ba83a116101075780633f4ba83a146102515780635312ea8e146102675780635c975abb1461028f5780635ee50613146102b9578063715018a6146102f55780637929da9d1461030b5761014a565b80630add7e2e1461014e5780631cc34b281461018f578063246a4e76146101b95780632b7ac3f3146101d5578063332a771d146101ff5780633defb96214610227575b5f5ffd5b348015610159575f5ffd5b50610174600480360381019061016f9190611a05565b61056f565b60405161018696959493929190611aa1565b60405180910390f35b34801561019a575f5ffd5b506101a36105d2565b6040516101b09190611b00565b60405180910390f35b6101d360048036038101906101ce9190611b43565b6105d8565b005b3480156101e0575f5ffd5b506101e96107c6565b6040516101f69190611c02565b60405180910390f35b34801561020a575f5ffd5b5061022560048036038101906102209190611a05565b6107ea565b005b348015610232575f5ffd5b5061023b610af5565b6040516102489190611c1b565b60405180910390f35b34801561025c575f5ffd5b50610265610b19565b005b348015610272575f5ffd5b5061028d60048036038101906102889190611c34565b610b2b565b005b34801561029a575f5ffd5b506102a3610c6c565b6040516102b09190611c5f565b60405180910390f35b3480156102c4575f5ffd5b506102df60048036038101906102da9190611a05565b610c81565b6040516102ec9190611c5f565b60405180910390f35b348015610300575f5ffd5b50610309610caa565b005b348015610316575f5ffd5b50610331600480360381019061032c9190611a05565b610cbd565b60405161033e9190611c5f565b60405180910390f35b348015610352575f5ffd5b5061035b610cda565b005b348015610368575f5ffd5b50610383600480360381019061037e9190611a05565b610cec565b6040516103909190611d1e565b60405180910390f35b3480156103a4575f5ffd5b506103ad610dad565b6040516103ba9190611c1b565b60405180910390f35b3480156103ce575f5ffd5b506103d7610dd4565b6040516103e49190611b00565b60405180910390f35b3480156103f8575f5ffd5b50610413600480360381019061040e9190611a05565b610dda565b6040516104209190611c5f565b60405180910390f35b348015610434575f5ffd5b5061044f600480360381019061044a91906120a2565b610e00565b005b34801561045c575f5ffd5b5061047760048036038101906104729190611a05565b610e2e565b604051610484919061217f565b60405180910390f35b348015610498575f5ffd5b506104a1610edb565b6040516104af929190612198565b60405180910390f35b3480156104c3575f5ffd5b506104de60048036038101906104d99190611a05565b610eeb565b6040516104ee94939291906121bf565b60405180910390f35b348015610502575f5ffd5b5061051d60048036038101906105189190611a05565b610f42565b005b34801561052a575f5ffd5b50610545600480360381019061054091906120a2565b61124d565b005b348015610552575f5ffd5b5061056d6004803603810190610568919061222c565b61127b565b005b6004602052805f5260405f205f91509050805f015f9054906101000a900473ffffffffffffffffffffffffffffffffffffffff1690806001015490806002015490806003015490806004015490806005015f9054906101000a900460ff16905086565b60055481565b6105e06112ff565b60045f8581526020019081526020015f206005015f9054906101000a900460ff1615610638576040517f3a5d340100000000000000000000000000000000000000000000000000000000815260040160405180910390fd5b823414610671576040517ff4d678b800000000000000000000000000000000000000000000000000000000815260040160405180910390fd5b6040518060c001604052803373ffffffffffffffffffffffffffffffffffffffff1681526020014281526020018481526020018381526020018281526020016001151581525060045f8681526020019081526020015f205f820151815f015f6101000a81548173ffffffffffffffffffffffffffffffffffffffff021916908373ffffffffffffffffffffffffffffffffffffffff1602179055506020820151816001015560408201518160020155606082015181600301556080820151816004015560a0820151816005015f6101000a81548160ff02191690831515021790555090505060055f81548092919061076890612284565b91905055503373ffffffffffffffffffffffffffffffffffffffff16847f48286d428f84b28b046d3dbdce60352af844641c01bbf3ba967eaf2ab58606948585856040516107b8939291906122cb565b60405180910390a350505050565b7f000000000000000000000000000000000000000000000000000000000000000081565b6107f2611340565b5f60045f8381526020019081526020015f206040518060c00160405290815f82015f9054906101000a900473ffffffffffffffffffffffffffffffffffffffff1673ffffffffffffffffffffffffffffffffffffffff1673ffffffffffffffffffffffffffffffffffffffff16815260200160018201548152602001600282015481526020016003820154815260200160048201548152602001600582015f9054906101000a900460ff16151515158152505090508060a001516108e2576040517f5aa22c7900000000000000000000000000000000000000000000000000000000815260040160405180910390fd5b3373ffffffffffffffffffffffffffffffffffffffff16815f015173ffffffffffffffffffffffffffffffffffffffff161461094a576040517f7daadde300000000000000000000000000000000000000000000000000000000815260040160405180910390fd5b60025f8381526020019081526020015f205f9054906101000a900460ff161561099f576040517f267e7ab200000000000000000000000000000000000000000000000000000000815260040160405180910390fd5b5f816040015190505f81036109e0576040517ff4d678b800000000000000000000000000000000000000000000000000000000815260040160405180910390fd5b5f60045f8581526020019081526020015f20600201819055505f3373ffffffffffffffffffffffffffffffffffffffff1682604051610a1e9061232d565b5f6040518083038185875af1925050503d805f8114610a58576040519150601f19603f3d011682016040523d82523d5f602084013e610a5d565b606091505b5050905080610a98576040517f90b8ec1800000000000000000000000000000000000000000000000000000000815260040160405180910390fd5b3373ffffffffffffffffffffffffffffffffffffffff16847f1b209c8f6c166a1575e958589e685dffb6cb38a4560fec94e979b0ae09746e0e84604051610adf9190611b00565b60405180910390a3505050610af2611386565b50565b7f000000000000000000000000000000000000000000000000000000000000000081565b610b2161138f565b610b29611416565b565b610b3361138f565b80471015610b6d576040517ff4d678b800000000000000000000000000000000000000000000000000000000815260040160405180910390fd5b5f610b76610dad565b73ffffffffffffffffffffffffffffffffffffffff1682604051610b999061232d565b5f6040518083038185875af1925050503d805f8114610bd3576040519150601f19603f3d011682016040523d82523d5f602084013e610bd8565b606091505b5050905080610c13576040517f90b8ec1800000000000000000000000000000000000000000000000000000000815260040160405180910390fd5b610c1b610dad565b73ffffffffffffffffffffffffffffffffffffffff167f23d6711a1d031134a36921253c75aa59e967d38e369ac625992824315e204f2083604051610c609190611b00565b60405180910390a25050565b5f5f60149054906101000a900460ff16905090565b5f60045f8381526020019081526020015f206005015f9054906101000a900460ff169050919050565b610cb261138f565b610cbb5f611477565b565b6002602052805f5260405f205f915054906101000a900460ff1681565b610ce261138f565b610cea611538565b565b610cf4611941565b60045f8381526020019081526020015f206040518060c00160405290815f82015f9054906101000a900473ffffffffffffffffffffffffffffffffffffffff1673ffffffffffffffffffffffffffffffffffffffff1673ffffffffffffffffffffffffffffffffffffffff16815260200160018201548152602001600282015481526020016003820154815260200160048201548152602001600582015f9054906101000a900460ff1615151515815250509050919050565b5f5f5f9054906101000a900473ffffffffffffffffffffffffffffffffffffffff16905090565b60065481565b5f60025f8381526020019081526020015f205f9054906101000a900460ff169050919050565b610e086112ff565b610e10611340565b610e1e86868686868661159a565b610e26611386565b505050505050565b610e36611989565b60035f8381526020019081526020015f206040518060800160405290815f82015f9054906101000a900473ffffffffffffffffffffffffffffffffffffffff1673ffffffffffffffffffffffffffffffffffffffff1673ffffffffffffffffffffffffffffffffffffffff1681526020016001820154815260200160028201548152602001600382015f9054906101000a900460ff1615151515815250509050919050565b5f5f600554600654915091509091565b6003602052805f5260405f205f91509050805f015f9054906101000a900473ffffffffffffffffffffffffffffffffffffffff1690806001015490806002015490806003015f9054906101000a900460ff16905084565b610f4a611340565b5f60045f8381526020019081526020015f206040518060c00160405290815f82015f9054906101000a900473ffffffffffffffffffffffffffffffffffffffff1673ffffffffffffffffffffffffffffffffffffffff1673ffffffffffffffffffffffffffffffffffffffff16815260200160018201548152602001600282015481526020016003820154815260200160048201548152602001600582015f9054906101000a900460ff16151515158152505090508060a0015161103a576040517f5aa22c7900000000000000000000000000000000000000000000000000000000815260040160405180910390fd5b3373ffffffffffffffffffffffffffffffffffffffff16815f015173ffffffffffffffffffffffffffffffffffffffff16146110a2576040517f7daadde300000000000000000000000000000000000000000000000000000000815260040160405180910390fd5b60025f8381526020019081526020015f205f9054906101000a900460ff16156110f7576040517f267e7ab200000000000000000000000000000000000000000000000000000000815260040160405180910390fd5b5f816040015190505f8103611138576040517ff4d678b800000000000000000000000000000000000000000000000000000000815260040160405180910390fd5b5f60045f8581526020019081526020015f20600201819055505f3373ffffffffffffffffffffffffffffffffffffffff16826040516111769061232d565b5f6040518083038185875af1925050503d805f81146111b0576040519150601f19603f3d011682016040523d82523d5f602084013e6111b5565b606091505b50509050806111f0576040517f90b8ec1800000000000000000000000000000000000000000000000000000000815260040160405180910390fd5b3373ffffffffffffffffffffffffffffffffffffffff16847f1b209c8f6c166a1575e958589e685dffb6cb38a4560fec94e979b0ae09746e0e846040516112379190611b00565b60405180910390a350505061124a611386565b50565b6112556112ff565b61125d611340565b61126b86868686868661159a565b611273611386565b505050505050565b61128361138f565b5f73ffffffffffffffffffffffffffffffffffffffff168173ffffffffffffffffffffffffffffffffffffffff16036112f3575f6040517f1e4fbdf70000000000000000000000000000000000000000000000000000000081526004016112ea9190611c1b565b60405180910390fd5b6112fc81611477565b50565b611307610c6c565b1561133e576040517fd93c066500000000000000000000000000000000000000000000000000000000815260040160405180910390fd5b565b60026001540361137c576040517f3ee5aeb500000000000000000000000000000000000000000000000000000000815260040160405180910390fd5b6002600181905550565b60018081905550565b6113976118fa565b73ffffffffffffffffffffffffffffffffffffffff166113b5610dad565b73ffffffffffffffffffffffffffffffffffffffff1614611414576113d86118fa565b6040517f118cdaa700000000000000000000000000000000000000000000000000000000815260040161140b9190611c1b565b60405180910390fd5b565b61141e611901565b5f5f60146101000a81548160ff0219169083151502179055507f5db9ee0a495bf2e6ff9c91a7834c1ba4fdd244a5e8aa4e537bd38aeae4b073aa6114606118fa565b60405161146d9190611c1b565b60405180910390a1565b5f5f5f9054906101000a900473ffffffffffffffffffffffffffffffffffffffff169050815f5f6101000a81548173ffffffffffffffffffffffffffffffffffffffff021916908373ffffffffffffffffffffffffffffffffffffffff1602179055508173ffffffffffffffffffffffffffffffffffffffff168173ffffffffffffffffffffffffffffffffffffffff167f8be0079c531659141344cd1fd0a4f28419497f9722a3daafe3b4186f6b6457e060405160405180910390a35050565b6115406112ff565b60015f60146101000a81548160ff0219169083151502179055507f62e78cea01bee320cd4e420270b5ea74000d11b0c9f74754ebdbfc544b05a2586115836118fa565b6040516115909190611c1b565b60405180910390a1565b60045f8781526020019081526020015f206005015f9054906101000a900460ff166115f1576040517f5aa22c7900000000000000000000000000000000000000000000000000000000815260040160405180910390fd5b60025f8781526020019081526020015f205f9054906101000a900460ff1615611646576040517f267e7ab200000000000000000000000000000000000000000000000000000000815260040160405180910390fd5b5f7f000000000000000000000000000000000000000000000000000000000000000073ffffffffffffffffffffffffffffffffffffffff1663f8db671e83895f1c898989896040518763ffffffff1660e01b81526004016116ac969594939291906125a2565b6020604051808303815f875af11580156116c8573d5f5f3e3d5ffd5b505050506040513d601f19601f820116820180604052508101906116ec9190612631565b905080611725576040517f09bde33900000000000000000000000000000000000000000000000000000000815260040160405180910390fd5b7f000000000000000000000000000000000000000000000000000000000000000073ffffffffffffffffffffffffffffffffffffffff16877fc30f4adce5910212952f577c97f2fa194ef8b40cd127b966f1854cece7977892600160405161178d9190611c5f565b60405180910390a3600160025f8981526020019081526020015f205f6101000a81548160ff0219169083151502179055505f60405180608001604052803373ffffffffffffffffffffffffffffffffffffffff1681526020014281526020015f81526020016001151581525090508060035f8a81526020019081526020015f205f820151815f015f6101000a81548173ffffffffffffffffffffffffffffffffffffffff021916908373ffffffffffffffffffffffffffffffffffffffff16021790555060208201518160010155604082015181600201556060820151816003015f6101000a81548160ff02191690831515021790555090505060065f81548092919061189990612284565b91905055503373ffffffffffffffffffffffffffffffffffffffff16887f8b62fc954c47be6cb43ca2107b7aeffb0a20ac229fbc2e65d3d963f83701631a4260016040516118e892919061265c565b60405180910390a35050505050505050565b5f33905090565b611909610c6c565b61193f576040517f8dfc202b00000000000000000000000000000000000000000000000000000000815260040160405180910390fd5b565b6040518060c001604052805f73ffffffffffffffffffffffffffffffffffffffff1681526020015f81526020015f81526020015f81526020015f81526020015f151581525090565b60405180608001604052805f73ffffffffffffffffffffffffffffffffffffffff1681526020015f81526020015f81526020015f151581525090565b5f604051905090565b5f5ffd5b5f819050919050565b6119e4816119d2565b81146119ee575f5ffd5b50565b5f813590506119ff816119db565b92915050565b5f60208284031215611a1a57611a196119ce565b5b5f611a27848285016119f1565b91505092915050565b5f73ffffffffffffffffffffffffffffffffffffffff82169050919050565b5f611a5982611a30565b9050919050565b611a6981611a4f565b82525050565b5f819050919050565b611a8181611a6f565b82525050565b5f8115159050919050565b611a9b81611a87565b82525050565b5f60c082019050611ab45f830189611a60565b611ac16020830188611a78565b611ace6040830187611a78565b611adb6060830186611a78565b611ae86080830185611a78565b611af560a0830184611a92565b979650505050505050565b5f602082019050611b135f830184611a78565b92915050565b611b2281611a6f565b8114611b2c575f5ffd5b50565b5f81359050611b3d81611b19565b92915050565b5f5f5f5f60808587031215611b5b57611b5a6119ce565b5b5f611b68878288016119f1565b9450506020611b7987828801611b2f565b9350506040611b8a87828801611b2f565b9250506060611b9b87828801611b2f565b91505092959194509250565b5f819050919050565b5f611bca611bc5611bc084611a30565b611ba7565b611a30565b9050919050565b5f611bdb82611bb0565b9050919050565b5f611bec82611bd1565b9050919050565b611bfc81611be2565b82525050565b5f602082019050611c155f830184611bf3565b92915050565b5f602082019050611c2e5f830184611a60565b92915050565b5f60208284031215611c4957611c486119ce565b5b5f611c5684828501611b2f565b91505092915050565b5f602082019050611c725f830184611a92565b92915050565b611c8181611a4f565b82525050565b611c9081611a6f565b82525050565b611c9f81611a87565b82525050565b60c082015f820151611cb95f850182611c78565b506020820151611ccc6020850182611c87565b506040820151611cdf6040850182611c87565b506060820151611cf26060850182611c87565b506080820151611d056080850182611c87565b5060a0820151611d1860a0850182611c96565b50505050565b5f60c082019050611d315f830184611ca5565b92915050565b5f5ffd5b5f601f19601f8301169050919050565b7f4e487b71000000000000000000000000000000000000000000000000000000005f52604160045260245ffd5b611d8182611d3b565b810181811067ffffffffffffffff82111715611da057611d9f611d4b565b5b80604052505050565b5f611db26119c5565b9050611dbe8282611d78565b919050565b5f5ffd5b5f67ffffffffffffffff821115611de157611de0611d4b565b5b602082029050919050565b5f5ffd5b5f611e02611dfd84611dc7565b611da9565b90508060208402830185811115611e1c57611e1b611dec565b5b835b81811015611e455780611e318882611b2f565b845260208401935050602081019050611e1e565b5050509392505050565b5f82601f830112611e6357611e62611dc3565b5b6002611e70848285611df0565b91505092915050565b5f67ffffffffffffffff821115611e9357611e92611d4b565b5b602082029050919050565b5f611eb0611eab84611e79565b611da9565b90508060208402830185811115611eca57611ec9611dec565b5b835b81811015611ef35780611edf8882611b2f565b845260208401935050602081019050611ecc565b5050509392505050565b5f82601f830112611f1157611f10611dc3565b5b6004611f1e848285611e9e565b91505092915050565b5f6105408284031215611f3d57611f3c611d37565b5b611f48610200611da9565b90505f611f5784828501611e4f565b5f830152506040611f6a84828501611e4f565b6020830152506080611f7e84828501611e4f565b60408301525060c0611f9284828501611e4f565b606083015250610100611fa784828501611efd565b608083015250610180611fbc84828501611efd565b60a083015250610200611fd184828501611efd565b60c083015250610280611fe684828501611efd565b60e083015250610300611ffb84828501611efd565b6101008301525061038061201184828501611e4f565b610120830152506103c061202784828501611e4f565b6101408301525061040061203d84828501611e4f565b6101608301525061044061205384828501611e4f565b6101808301525061048061206984828501611e4f565b6101a0830152506104c061207f84828501611e4f565b6101c08301525061050061209584828501611e4f565b6101e08301525092915050565b5f5f5f5f5f5f6105e087890312156120bd576120bc6119ce565b5b5f6120ca89828a016119f1565b96505060206120db89828a01611b2f565b95505060406120ec89828a01611b2f565b94505060606120fd89828a01611b2f565b935050608061210e89828a01611b2f565b92505060a061211f89828a01611f27565b9150509295509295509295565b608082015f8201516121405f850182611c78565b5060208201516121536020850182611c87565b5060408201516121666040850182611c87565b5060608201516121796060850182611c96565b50505050565b5f6080820190506121925f83018461212c565b92915050565b5f6040820190506121ab5f830185611a78565b6121b86020830184611a78565b9392505050565b5f6080820190506121d25f830187611a60565b6121df6020830186611a78565b6121ec6040830185611a78565b6121f96060830184611a92565b95945050505050565b61220b81611a4f565b8114612215575f5ffd5b50565b5f8135905061222681612202565b92915050565b5f60208284031215612241576122406119ce565b5b5f61224e84828501612218565b91505092915050565b7f4e487b71000000000000000000000000000000000000000000000000000000005f52601160045260245ffd5b5f61228e82611a6f565b91507fffffffffffffffffffffffffffffffffffffffffffffffffffffffffffffffff82036122c0576122bf612257565b5b600182019050919050565b5f6060820190506122de5f830186611a78565b6122eb6020830185611a78565b6122f86040830184611a78565b949350505050565b5f81905092915050565b50565b5f6123185f83612300565b91506123238261230a565b5f82019050919050565b5f6123378261230d565b9150819050919050565b5f60029050919050565b5f81905092915050565b5f819050919050565b5f6123698383611c87565b60208301905092915050565b5f602082019050919050565b61238a81612341565b612394818461234b565b925061239f82612355565b805f5b838110156123cf5781516123b6878261235e565b96506123c183612375565b9250506001810190506123a2565b505050505050565b5f60049050919050565b5f81905092915050565b5f819050919050565b5f602082019050919050565b612409816123d7565b61241381846123e1565b925061241e826123eb565b805f5b8381101561244e578151612435878261235e565b9650612440836123f4565b925050600181019050612421565b505050505050565b61054082015f82015161246b5f850182612381565b50602082015161247e6040850182612381565b5060408201516124916080850182612381565b5060608201516124a460c0850182612381565b5060808201516124b8610100850182612400565b5060a08201516124cc610180850182612400565b5060c08201516124e0610200850182612400565b5060e08201516124f4610280850182612400565b50610100820151612509610300850182612400565b5061012082015161251e610380850182612381565b506101408201516125336103c0850182612381565b50610160820151612548610400850182612381565b5061018082015161255d610440850182612381565b506101a0820151612572610480850182612381565b506101c08201516125876104c0850182612381565b506101e082015161259c610500850182612381565b50505050565b5f6105e0820190506125b65f830189612456565b6125c4610540830188611a78565b6125d2610560830187611a78565b6125e0610580830186611a78565b6125ee6105a0830185611a78565b6125fc6105c0830184611a78565b979650505050505050565b61261081611a87565b811461261a575f5ffd5b50565b5f8151905061262b81612607565b92915050565b5f60208284031215612646576126456119ce565b5b5f6126538482850161261d565b91505092915050565b5f60408201905061266f5f830185611a78565b61267c6020830184611a92565b939250505056fea2646970667358221220fc73b7f80aea45e1645b81c30610a9b6fe6c8aa264bb6e33c8d8301dfc1256fa64736f6c634300081d0033","linkReferences":{}},"methodIdentifiers":{"emergencyWithdraw(uint256)":"5312ea8e","executeWill(bytes32,uint256,uint256,uint256,uint256,(uint256[2],uint256[2],uint256[2],uint256[2],uint256[4],uint256[4],uint256[4],uint256[4],uint256[4],uint256[2],uint256[2],uint256[2],uint256[2],uint256[2],uint256[2],uint256[2]))":"e349a89f","executeWillWithHeartbeat(bytes32,uint256,uint256,uint256,uint256,(uint256[2],uint256[2],uint256[2],uint256[2],uint256[4],uint256[4],uint256[4],uint256[4],uint256[4],uint256[2],uint256[2],uint256[2],uint256[2],uint256[2],uint256[2],uint256[2]))":"a6aa4dbc","executedWills(bytes32)":"7929da9d","getRegisteredWill(bytes32)":"869bb1e7","getStats()":"c59d4847","getWillExecution(bytes32)":"b5fc3d13","heartbeat()":"3defb962","isWillExecuted(bytes32)":"96965ce3","isWillRegistered(bytes32)":"5ee50613","owner()":"8da5cb5b","pause()":"8456cb59","paused()":"5c975abb","registerWill(bytes32,uint256,uint256,uint256)":"246a4e76","registeredWills(bytes32)":"0add7e2e","renounceOwnership()":"715018a6","totalWillsExecuted()":"9472235d","totalWillsRegistered()":"1cc34b28","transferOwnership(address)":"f2fde38b","unpause()":"3f4ba83a","verifier()":"2b7ac3f3","willExecutions(bytes32)":"c5b29cbf","withdrawAllEth(bytes32)":"332a771d","withdrawEth(bytes32)":"cd9be6b2"},"id":24}