{"abi":[{"type":"constructor","inputs":[{"name":"_verifier","type":"address","internalType":"address"},{"name":"_heartbeat","type":"address","internalType":"address"},{"name":"_selfVerifier","type":"address","internalType":"address"}],"stateMutability":"nonpayable"},{"type":"function","name":"emergencyWithdraw","inputs":[{"name":"amount","type":"uint256","internalType":"uint256"}],"outputs":[],"stateMutability":"nonpayable"},{"type":"function","name":"executeWill","inputs":[{"name":"willCommitment","type":"bytes32","internalType":"bytes32"},{"name":"merkleRoot","type":"uint256","internalType":"uint256"},{"name":"totalEth","type":"uint256","internalType":"uint256"},{"name":"totalUsdc","type":"uint256","internalType":"uint256"},{"name":"totalNftCount","type":"uint256","internalType":"uint256"},{"name":"proof","type":"tuple","internalType":"struct WillVerifier.Proof","components":[{"name":"W1","type":"uint256[2]","internalType":"uint256[2]"},{"name":"W2","type":"uint256[2]","internalType":"uint256[2]"},{"name":"W3","type":"uint256[2]","internalType":"uint256[2]"},{"name":"W4","type":"uint256[2]","internalType":"uint256[2]"},{"name":"Z","type":"uint256[4]","internalType":"uint256[4]"},{"name":"T1","type":"uint256[4]","internalType":"uint256[4]"},{"name":"T2","type":"uint256[4]","internalType":"uint256[4]"},{"name":"T3","type":"uint256[4]","internalType":"uint256[4]"},{"name":"T4","type":"uint256[4]","internalType":"uint256[4]"},{"name":"W1_omega","type":"uint256[2]","internalType":"uint256[2]"},{"name":"W2_omega","type":"uint256[2]","internalType":"uint256[2]"},{"name":"W3_omega","type":"uint256[2]","internalType":"uint256[2]"},{"name":"W4_omega","type":"uint256[2]","internalType":"uint256[2]"},{"name":"PI_Z","type":"uint256[2]","internalType":"uint256[2]"},{"name":"PI_Z_omega","type":"uint256[2]","internalType":"uint256[2]"},{"name":"r_0","type":"uint256[2]","internalType":"uint256[2]"}]}],"outputs":[],"stateMutability":"nonpayable"},{"type":"function","name":"executeWillWithHeartbeat","inputs":[{"name":"willCommitment","type":"bytes32","internalType":"bytes32"},{"name":"merkleRoot","type":"uint256","internalType":"uint256"},{"name":"totalEth","type":"uint256","internalType":"uint256"},{"name":"totalUsdc","type":"uint256","internalType":"uint256"},{"name":"totalNftCount","type":"uint256","internalType":"uint256"},{"name":"proof","type":"tuple","internalType":"struct WillVerifier.Proof","components":[{"name":"W1","type":"uint256[2]","internalType":"uint256[2]"},{"name":"W2","type":"uint256[2]","internalType":"uint256[2]"},{"name":"W3","type":"uint256[2]","internalType":"uint256[2]"},{"name":"W4","type":"uint256[2]","internalType":"uint256[2]"},{"name":"Z","type":"uint256[4]","internalType":"uint256[4]"},{"name":"T1","type":"uint256[4]","internalType":"uint256[4]"},{"name":"T2","type":"uint256[4]","internalType":"uint256[4]"},{"name":"T3","type":"uint256[4]","internalType":"uint256[4]"},{"name":"T4","type":"uint256[4]","internalType":"uint256[4]"},{"name":"W1_omega","type":"uint256[2]","internalType":"uint256[2]"},{"name":"W2_omega","type":"uint256[2]","internalType":"uint256[2]"},{"name":"W3_omega","type":"uint256[2]","internalType":"uint256[2]"},{"name":"W4_omega","type":"uint256[2]","internalType":"uint256[2]"},{"name":"PI_Z","type":"uint256[2]","internalType":"uint256[2]"},{"name":"PI_Z_omega","type":"uint256[2]","internalType":"uint256[2]"},{"name":"r_0","type":"uint256[2]","internalType":"uint256[2]"}]}],"outputs":[],"stateMutability":"nonpayable"},{"type":"function","name":"executedWills","inputs":[{"name":"","type":"bytes32","internalType":"bytes32"}],"outputs":[{"name":"","type":"bool","internalType":"bool"}],"stateMutability":"view"},{"type":"function","name":"getRegisteredWill","inputs":[{"name":"willCommitment","type":"bytes32","internalType":"bytes32"}],"outputs":[{"name":"will","type":"tuple","internalType":"struct WillExecutor.RegisteredWill","components":[{"name":"owner","type":"address","internalType":"address"},{"name":"registrationTime","type":"uint256","internalType":"uint256"},{"name":"totalEth","type":"uint256","internalType":"uint256"},{"name":"totalUsdc","type":"uint256","internalType":"uint256"},{"name":"totalNfts","type":"uint256","internalType":"uint256"},{"name":"exists","type":"bool","internalType":"bool"}]}],"stateMutability":"view"},{"type":"function","name":"getStats","inputs":[],"outputs":[{"name":"registered","type":"uint256","internalType":"uint256"},{"name":"executed","type":"uint256","internalType":"uint256"}],"stateMutability":"view"},{"type":"function","name":"getUserSelfVerificationDetails","inputs":[{"name":"userAddress","type":"address","internalType":"address"}],"outputs":[{"name":"isHuman","type":"bool","internalType":"bool"},{"name":"ageValid","type":"bool","internalType":"bool"},{"name":"method","type":"string","internalType":"string"},{"name":"nationality","type":"string","internalType":"string"}],"stateMutability":"view"},{"type":"function","name":"getWillExecution","inputs":[{"name":"willCommitment","type":"bytes32","internalType":"bytes32"}],"outputs":[{"name":"execution","type":"tuple","internalType":"struct WillExecutor.WillExecution","components":[{"name":"executor","type":"address","internalType":"address"},{"name":"executionTime","type":"uint256","internalType":"uint256"},{"name":"totalValueTransferred","type":"uint256","internalType":"uint256"},{"name":"success","type":"bool","internalType":"bool"}]}],"stateMutability":"view"},{"type":"function","name":"heartbeat","inputs":[],"outputs":[{"name":"","type":"address","internalType":"address"}],"stateMutability":"view"},{"type":"function","name":"isUserVerified","inputs":[{"name":"userAddress","type":"address","internalType":"address"}],"outputs":[{"name":"isVerified","type":"bool","internalType":"bool"}],"stateMutability":"view"},{"type":"function","name":"isWillExecuted","inputs":[{"name":"willCommitment","type":"bytes32","internalType":"bytes32"}],"outputs":[{"name":"executed","type":"bool","internalType":"bool"}],"stateMutability":"view"},{"type":"function","name":"isWillRegistered","inputs":[{"name":"willCommitment","type":"bytes32","internalType":"bytes32"}],"outputs":[{"name":"exists","type":"bool","internalType":"bool"}],"stateMutability":"view"},{"type":"function","name":"owner","inputs":[],"outputs":[{"name":"","type":"address","internalType":"address"}],"stateMutability":"view"},{"type":"function","name":"pause","inputs":[],"outputs":[],"stateMutability":"nonpayable"},{"type":"function","name":"paused","inputs":[],"outputs":[{"name":"","type":"bool","internalType":"bool"}],"stateMutability":"view"},{"type":"function","name":"registerWill","inputs":[{"name":"willCommitment","type":"bytes32","internalType":"bytes32"},{"name":"totalEth","type":"uint256","internalType":"uint256"},{"name":"totalUsdc","type":"uint256","internalType":"uint256"},{"name":"totalNfts","type":"uint256","internalType":"uint256"}],"outputs":[],"stateMutability":"payable"},{"type":"function","name":"registeredWills","inputs":[{"name":"","type":"bytes32","internalType":"bytes32"}],"outputs":[{"name":"owner","type":"address","internalType":"address"},{"name":"registrationTime","type":"uint256","internalType":"uint256"},{"name":"totalEth","type":"uint256","internalType":"uint256"},{"name":"totalUsdc","type":"uint256","internalType":"uint256"},{"name":"totalNfts","type":"uint256","internalType":"uint256"},{"name":"exists","type":"bool","internalType":"bool"}],"stateMutability":"view"},{"type":"function","name":"renounceOwnership","inputs":[],"outputs":[],"stateMutability":"nonpayable"},{"type":"function","name":"selfVerifier","inputs":[],"outputs":[{"name":"","type":"address","internalType":"contract SelfHumanVerifier"}],"stateMutability":"view"},{"type":"function","name":"totalWillsExecuted","inputs":[],"outputs":[{"name":"","type":"uint256","internalType":"uint256"}],"stateMutability":"view"},{"type":"function","name":"totalWillsRegistered","inputs":[],"outputs":[{"name":"","type":"uint256","internalType":"uint256"}],"stateMutability":"view"},{"type":"function","name":"transferOwnership","inputs":[{"name":"newOwner","type":"address","internalType":"address"}],"outputs":[],"stateMutability":"nonpayable"},{"type":"function","name":"unpause","inputs":[],"outputs":[],"stateMutability":"nonpayable"},{"type":"function","name":"verifier","inputs":[],"outputs":[{"name":"","type":"address","internalType":"contract WillVerifier"}],"stateMutability":"view"},{"type":"function","name":"willExecutions","inputs":[{"name":"","type":"bytes32","internalType":"bytes32"}],"outputs":[{"name":"executor","type":"address","internalType":"address"},{"name":"executionTime","type":"uint256","internalType":"uint256"},{"name":"totalValueTransferred","type":"uint256","internalType":"uint256"},{"name":"success","type":"bool","internalType":"bool"}],"stateMutability":"view"},{"type":"function","name":"withdrawAllEth","inputs":[{"name":"willCommitment","type":"bytes32","internalType":"bytes32"}],"outputs":[],"stateMutability":"nonpayable"},{"type":"function","name":"withdrawEth","inputs":[{"name":"willCommitment","type":"bytes32","internalType":"bytes32"}],"outputs":[],"stateMutability":"nonpayable"},{"type":"event","name":"EmergencyWithdrawal","inputs":[{"name":"owner","type":"address","indexed":true,"internalType":"address"},{"name":"amount","type":"uint256","indexed":false,"internalType":"uint256"}],"anonymous":false},{"type":"event","name":"EthWithdrawn","inputs":[{"name":"willCommitment","type":"bytes32","indexed":true,"internalType":"bytes32"},{"name":"owner","type":"address","indexed":true,"internalType":"address"},{"name":"amount","type":"uint256","indexed":false,"internalType":"uint256"}],"anonymous":false},{"type":"event","name":"OwnershipTransferred","inputs":[{"name":"previousOwner","type":"address","indexed":true,"internalType":"address"},{"name":"newOwner","type":"address","indexed":true,"internalType":"address"}],"anonymous":false},{"type":"event","name":"Paused","inputs":[{"name":"account","type":"address","indexed":false,"internalType":"address"}],"anonymous":false},{"type":"event","name":"ProofVerified","inputs":[{"name":"willCommitment","type":"bytes32","indexed":true,"internalType":"bytes32"},{"name":"verifier","type":"address","indexed":true,"internalType":"address"},{"name":"isValid","type":"bool","indexed":false,"internalType":"bool"}],"anonymous":false},{"type":"event","name":"Unpaused","inputs":[{"name":"account","type":"address","indexed":false,"internalType":"address"}],"anonymous":false},{"type":"event","name":"WillExecuted","inputs":[{"name":"willCommitment","type":"bytes32","indexed":true,"internalType":"bytes32"},{"name":"executor","type":"address","indexed":true,"internalType":"address"},{"name":"executionTime","type":"uint256","indexed":false,"internalType":"uint256"},{"name":"success","type":"bool","indexed":false,"internalType":"bool"}],"anonymous":false},{"type":"event","name":"WillRegistered","inputs":[{"name":"willCommitment","type":"bytes32","indexed":true,"internalType":"bytes32"},{"name":"owner","type":"address","indexed":true,"internalType":"address"},{"name":"totalEth","type":"uint256","indexed":false,"internalType":"uint256"},{"name":"totalUsdc","type":"uint256","indexed":false,"internalType":"uint256"},{"name":"totalNfts","type":"uint256","indexed":false,"internalType":"uint256"}],"anonymous":false},{"type":"error","name":"AgeVerificationRequired","inputs":[]},{"type":"error","name":"EnforcedPause","inputs":[]},{"type":"error","name":"ExpectedPause","inputs":[]},{"type":"error","name":"InactivityNotFinalized","inputs":[]},{"type":"error","name":"InsufficientBalance","inputs":[]},{"type":"error","name":"InvalidHeartbeat","inputs":[]},{"type":"error","name":"InvalidProof","inputs":[]},{"type":"error","name":"InvalidSelfVerifier","inputs":[]},{"type":"error","name":"InvalidVerifier","inputs":[]},{"type":"error","name":"OwnableInvalidOwner","inputs":[{"name":"owner","type":"address","internalType":"address"}]},{"type":"error","name":"OwnableUnauthorizedAccount","inputs":[{"name":"account","type":"address","internalType":"address"}]},{"type":"error","name":"ReentrancyGuardReentrantCall","inputs":[]},{"type":"error","name":"SelfVerificationRequired","inputs":[]},{"type":"error","name":"TransferFailed","inputs":[]},{"type":"error","name":"UnauthorizedExecution","inputs":[]},{"type":"error","name":"WillAlreadyExecuted","inputs":[]},{"type":"error","name":"WillAlreadyRegistered","inputs":[]},{"type":"error","name":"WillNotRegistered","inputs":[]}],"bytecode":{"object":"0x60e060405234801561000f575f5ffd5b50604051613161380380613161833981810160405281019061003191906103ab565b335f73ffffffffffffffffffffffffffffffffffffffff168173ffffffffffffffffffffffffffffffffffffffff16036100a2575f6040517f1e4fbdf7000000000000000000000000000000000000000000000000000000008152600401610099919061040a565b60405180910390fd5b6100b18161028c60201b60201c565b50600180819055505f73ffffffffffffffffffffffffffffffffffffffff168373ffffffffffffffffffffffffffffffffffffffff160361011e576040517fbaa3de5f00000000000000000000000000000000000000000000000000000000815260040160405180910390fd5b5f73ffffffffffffffffffffffffffffffffffffffff168273ffffffffffffffffffffffffffffffffffffffff1603610183576040517f8f1825c900000000000000000000000000000000000000000000000000000000815260040160405180910390fd5b5f73ffffffffffffffffffffffffffffffffffffffff168173ffffffffffffffffffffffffffffffffffffffff16036101e8576040517f0d0af9fc00000000000000000000000000000000000000000000000000000000815260040160405180910390fd5b8273ffffffffffffffffffffffffffffffffffffffff1660808173ffffffffffffffffffffffffffffffffffffffff16815250508173ffffffffffffffffffffffffffffffffffffffff1660a08173ffffffffffffffffffffffffffffffffffffffff16815250508073ffffffffffffffffffffffffffffffffffffffff1660c08173ffffffffffffffffffffffffffffffffffffffff1681525050505050610423565b5f5f5f9054906101000a900473ffffffffffffffffffffffffffffffffffffffff169050815f5f6101000a81548173ffffffffffffffffffffffffffffffffffffffff021916908373ffffffffffffffffffffffffffffffffffffffff1602179055508173ffffffffffffffffffffffffffffffffffffffff168173ffffffffffffffffffffffffffffffffffffffff167f8be0079c531659141344cd1fd0a4f28419497f9722a3daafe3b4186f6b6457e060405160405180910390a35050565b5f5ffd5b5f73ffffffffffffffffffffffffffffffffffffffff82169050919050565b5f61037a82610351565b9050919050565b61038a81610370565b8114610394575f5ffd5b50565b5f815190506103a581610381565b92915050565b5f5f5f606084860312156103c2576103c161034d565b5b5f6103cf86828701610397565b93505060206103e086828701610397565b92505060406103f186828701610397565b9150509250925092565b61040481610370565b82525050565b5f60208201905061041d5f8301846103fb565b92915050565b60805160a05160c051612cea6104775f395f81816106d8015281816107a601528181610f00015281816110e7015261129f01525f610d8901525f8181610a5a01528181611a4e0152611b2c0152612cea5ff3fe60806040526004361061019b575f3560e01c80638456cb59116100eb578063b5fc3d1311610089578063c71d8f6711610063578063c71d8f67146105ae578063cd9be6b2146105ed578063e349a89f14610615578063f2fde38b1461063d5761019b565b8063b5fc3d1314610508578063c59d484714610544578063c5b29cbf1461056f5761019b565b80639472235d116100c55780639472235d1461043e57806396965ce314610468578063a6aa4dbc146104a4578063ace417e0146104cc5761019b565b80638456cb59146103c2578063869bb1e7146103d85780638da5cb5b146104145761019b565b80633f4ba83a116101585780635c975abb116101325780635c975abb1461030a5780635ee5061314610334578063715018a6146103705780637929da9d146103865761019b565b80633f4ba83a146102a25780635312ea8e146102b85780635bbc976c146102e05761019b565b80630add7e2e1461019f5780631cc34b28146101e0578063246a4e761461020a5780632b7ac3f314610226578063332a771d146102505780633defb96214610278575b5f5ffd5b3480156101aa575f5ffd5b506101c560048036038101906101c09190611e0e565b610665565b6040516101d796959493929190611eaa565b60405180910390f35b3480156101eb575f5ffd5b506101f46106c8565b6040516102019190611f09565b60405180910390f35b610224600480360381019061021f9190611f4c565b6106ce565b005b348015610231575f5ffd5b5061023a610a58565b604051610247919061200b565b60405180910390f35b34801561025b575f5ffd5b5061027660048036038101906102719190611e0e565b610a7c565b005b348015610283575f5ffd5b5061028c610d87565b6040516102999190612024565b60405180910390f35b3480156102ad575f5ffd5b506102b6610dab565b005b3480156102c3575f5ffd5b506102de60048036038101906102d9919061203d565b610dbd565b005b3480156102eb575f5ffd5b506102f4610efe565b6040516103019190612088565b60405180910390f35b348015610315575f5ffd5b5061031e610f22565b60405161032b91906120a1565b60405180910390f35b34801561033f575f5ffd5b5061035a60048036038101906103559190611e0e565b610f37565b60405161036791906120a1565b60405180910390f35b34801561037b575f5ffd5b50610384610f60565b005b348015610391575f5ffd5b506103ac60048036038101906103a79190611e0e565b610f73565b6040516103b991906120a1565b60405180910390f35b3480156103cd575f5ffd5b506103d6610f90565b005b3480156103e3575f5ffd5b506103fe60048036038101906103f99190611e0e565b610fa2565b60405161040b9190612160565b60405180910390f35b34801561041f575f5ffd5b50610428611063565b6040516104359190612024565b60405180910390f35b348015610449575f5ffd5b5061045261108a565b60405161045f9190611f09565b60405180910390f35b348015610473575f5ffd5b5061048e60048036038101906104899190611e0e565b611090565b60405161049b91906120a1565b60405180910390f35b3480156104af575f5ffd5b506104ca60048036038101906104c591906124e4565b6110b6565b005b3480156104d7575f5ffd5b506104f260048036038101906104ed9190612598565b6110e4565b6040516104ff91906120a1565b60405180910390f35b348015610513575f5ffd5b5061052e60048036038101906105299190611e0e565b611184565b60405161053b9190612616565b60405180910390f35b34801561054f575f5ffd5b50610558611231565b60405161056692919061262f565b60405180910390f35b34801561057a575f5ffd5b5061059560048036038101906105909190611e0e565b611241565b6040516105a59493929190612656565b60405180910390f35b3480156105b9575f5ffd5b506105d460048036038101906105cf9190612598565b611298565b6040516105e494939291906126f9565b60405180910390f35b3480156105f8575f5ffd5b50610613600480360381019061060e9190611e0e565b611347565b005b348015610620575f5ffd5b5061063b600480360381019061063691906124e4565b611652565b005b348015610648575f5ffd5b50610663600480360381019061065e9190612598565b611680565b005b6004602052805f5260405f205f91509050805f015f9054906101000a900473ffffffffffffffffffffffffffffffffffffffff1690806001015490806002015490806003015490806004015490806005015f9054906101000a900460ff16905086565b60055481565b6106d6611704565b7f000000000000000000000000000000000000000000000000000000000000000073ffffffffffffffffffffffffffffffffffffffff1663d9bf8ec5336040518263ffffffff1660e01b815260040161072f9190612024565b602060405180830381865afa15801561074a573d5f5f3e3d5ffd5b505050506040513d601f19601f8201168201806040525081019061076e9190612774565b6107a4576040517fd8b82e0900000000000000000000000000000000000000000000000000000000815260040160405180910390fd5b7f000000000000000000000000000000000000000000000000000000000000000073ffffffffffffffffffffffffffffffffffffffff1663dae6bd0a336040518263ffffffff1660e01b81526004016107fd9190612024565b602060405180830381865afa158015610818573d5f5f3e3d5ffd5b505050506040513d601f19601f8201168201806040525081019061083c9190612774565b610872576040517f5be7da1400000000000000000000000000000000000000000000000000000000815260040160405180910390fd5b60045f8581526020019081526020015f206005015f9054906101000a900460ff16156108ca576040517f3a5d340100000000000000000000000000000000000000000000000000000000815260040160405180910390fd5b823414610903576040517ff4d678b800000000000000000000000000000000000000000000000000000000815260040160405180910390fd5b6040518060c001604052803373ffffffffffffffffffffffffffffffffffffffff1681526020014281526020018481526020018381526020018281526020016001151581525060045f8681526020019081526020015f205f820151815f015f6101000a81548173ffffffffffffffffffffffffffffffffffffffff021916908373ffffffffffffffffffffffffffffffffffffffff1602179055506020820151816001015560408201518160020155606082015181600301556080820151816004015560a0820151816005015f6101000a81548160ff02191690831515021790555090505060055f8154809291906109fa906127cc565b91905055503373ffffffffffffffffffffffffffffffffffffffff16847f48286d428f84b28b046d3dbdce60352af844641c01bbf3ba967eaf2ab5860694858585604051610a4a93929190612813565b60405180910390a350505050565b7f000000000000000000000000000000000000000000000000000000000000000081565b610a84611745565b5f60045f8381526020019081526020015f206040518060c00160405290815f82015f9054906101000a900473ffffffffffffffffffffffffffffffffffffffff1673ffffffffffffffffffffffffffffffffffffffff1673ffffffffffffffffffffffffffffffffffffffff16815260200160018201548152602001600282015481526020016003820154815260200160048201548152602001600582015f9054906101000a900460ff16151515158152505090508060a00151610b74576040517f5aa22c7900000000000000000000000000000000000000000000000000000000815260040160405180910390fd5b3373ffffffffffffffffffffffffffffffffffffffff16815f015173ffffffffffffffffffffffffffffffffffffffff1614610bdc576040517f7daadde300000000000000000000000000000000000000000000000000000000815260040160405180910390fd5b60025f8381526020019081526020015f205f9054906101000a900460ff1615610c31576040517f267e7ab200000000000000000000000000000000000000000000000000000000815260040160405180910390fd5b5f816040015190505f8103610c72576040517ff4d678b800000000000000000000000000000000000000000000000000000000815260040160405180910390fd5b5f60045f8581526020019081526020015f20600201819055505f3373ffffffffffffffffffffffffffffffffffffffff1682604051610cb090612875565b5f6040518083038185875af1925050503d805f8114610cea576040519150601f19603f3d011682016040523d82523d5f602084013e610cef565b606091505b5050905080610d2a576040517f90b8ec1800000000000000000000000000000000000000000000000000000000815260040160405180910390fd5b3373ffffffffffffffffffffffffffffffffffffffff16847f1b209c8f6c166a1575e958589e685dffb6cb38a4560fec94e979b0ae09746e0e84604051610d719190611f09565b60405180910390a3505050610d8461178b565b50565b7f000000000000000000000000000000000000000000000000000000000000000081565b610db3611794565b610dbb61181b565b565b610dc5611794565b80471015610dff576040517ff4d678b800000000000000000000000000000000000000000000000000000000815260040160405180910390fd5b5f610e08611063565b73ffffffffffffffffffffffffffffffffffffffff1682604051610e2b90612875565b5f6040518083038185875af1925050503d805f8114610e65576040519150601f19603f3d011682016040523d82523d5f602084013e610e6a565b606091505b5050905080610ea5576040517f90b8ec1800000000000000000000000000000000000000000000000000000000815260040160405180910390fd5b610ead611063565b73ffffffffffffffffffffffffffffffffffffffff167f23d6711a1d031134a36921253c75aa59e967d38e369ac625992824315e204f2083604051610ef29190611f09565b60405180910390a25050565b7f000000000000000000000000000000000000000000000000000000000000000081565b5f5f60149054906101000a900460ff16905090565b5f60045f8381526020019081526020015f206005015f9054906101000a900460ff169050919050565b610f68611794565b610f715f61187c565b565b6002602052805f5260405f205f915054906101000a900460ff1681565b610f98611794565b610fa061193d565b565b610faa611d46565b60045f8381526020019081526020015f206040518060c00160405290815f82015f9054906101000a900473ffffffffffffffffffffffffffffffffffffffff1673ffffffffffffffffffffffffffffffffffffffff1673ffffffffffffffffffffffffffffffffffffffff16815260200160018201548152602001600282015481526020016003820154815260200160048201548152602001600582015f9054906101000a900460ff1615151515815250509050919050565b5f5f5f9054906101000a900473ffffffffffffffffffffffffffffffffffffffff16905090565b60065481565b5f60025f8381526020019081526020015f205f9054906101000a900460ff169050919050565b6110be611704565b6110c6611745565b6110d486868686868661199f565b6110dc61178b565b505050505050565b5f7f000000000000000000000000000000000000000000000000000000000000000073ffffffffffffffffffffffffffffffffffffffff1663450fb7fc836040518263ffffffff1660e01b815260040161113e9190612024565b602060405180830381865afa158015611159573d5f5f3e3d5ffd5b505050506040513d601f19601f8201168201806040525081019061117d9190612774565b9050919050565b61118c611d8e565b60035f8381526020019081526020015f206040518060800160405290815f82015f9054906101000a900473ffffffffffffffffffffffffffffffffffffffff1673ffffffffffffffffffffffffffffffffffffffff1673ffffffffffffffffffffffffffffffffffffffff1681526020016001820154815260200160028201548152602001600382015f9054906101000a900460ff1615151515815250509050919050565b5f5f600554600654915091509091565b6003602052805f5260405f205f91509050805f015f9054906101000a900473ffffffffffffffffffffffffffffffffffffffff1690806001015490806002015490806003015f9054906101000a900460ff16905084565b5f5f6060807f000000000000000000000000000000000000000000000000000000000000000073ffffffffffffffffffffffffffffffffffffffff1663eddaa0bd866040518263ffffffff1660e01b81526004016112f69190612024565b5f60405180830381865afa158015611310573d5f5f3e3d5ffd5b505050506040513d5f823e3d601f19601f82011682018060405250810190611338919061292b565b93509350935093509193509193565b61134f611745565b5f60045f8381526020019081526020015f206040518060c00160405290815f82015f9054906101000a900473ffffffffffffffffffffffffffffffffffffffff1673ffffffffffffffffffffffffffffffffffffffff1673ffffffffffffffffffffffffffffffffffffffff16815260200160018201548152602001600282015481526020016003820154815260200160048201548152602001600582015f9054906101000a900460ff16151515158152505090508060a0015161143f576040517f5aa22c7900000000000000000000000000000000000000000000000000000000815260040160405180910390fd5b3373ffffffffffffffffffffffffffffffffffffffff16815f015173ffffffffffffffffffffffffffffffffffffffff16146114a7576040517f7daadde300000000000000000000000000000000000000000000000000000000815260040160405180910390fd5b60025f8381526020019081526020015f205f9054906101000a900460ff16156114fc576040517f267e7ab200000000000000000000000000000000000000000000000000000000815260040160405180910390fd5b5f816040015190505f810361153d576040517ff4d678b800000000000000000000000000000000000000000000000000000000815260040160405180910390fd5b5f60045f8581526020019081526020015f20600201819055505f3373ffffffffffffffffffffffffffffffffffffffff168260405161157b90612875565b5f6040518083038185875af1925050503d805f81146115b5576040519150601f19603f3d011682016040523d82523d5f602084013e6115ba565b606091505b50509050806115f5576040517f90b8ec1800000000000000000000000000000000000000000000000000000000815260040160405180910390fd5b3373ffffffffffffffffffffffffffffffffffffffff16847f1b209c8f6c166a1575e958589e685dffb6cb38a4560fec94e979b0ae09746e0e8460405161163c9190611f09565b60405180910390a350505061164f61178b565b50565b61165a611704565b611662611745565b61167086868686868661199f565b61167861178b565b505050505050565b611688611794565b5f73ffffffffffffffffffffffffffffffffffffffff168173ffffffffffffffffffffffffffffffffffffffff16036116f8575f6040517f1e4fbdf70000000000000000000000000000000000000000000000000000000081526004016116ef9190612024565b60405180910390fd5b6117018161187c565b50565b61170c610f22565b15611743576040517fd93c066500000000000000000000000000000000000000000000000000000000815260040160405180910390fd5b565b600260015403611781576040517f3ee5aeb500000000000000000000000000000000000000000000000000000000815260040160405180910390fd5b6002600181905550565b60018081905550565b61179c611cff565b73ffffffffffffffffffffffffffffffffffffffff166117ba611063565b73ffffffffffffffffffffffffffffffffffffffff1614611819576117dd611cff565b6040517f118cdaa70000000000000000000000000000000000000000000000000000000081526004016118109190612024565b60405180910390fd5b565b611823611d06565b5f5f60146101000a81548160ff0219169083151502179055507f5db9ee0a495bf2e6ff9c91a7834c1ba4fdd244a5e8aa4e537bd38aeae4b073aa611865611cff565b6040516118729190612024565b60405180910390a1565b5f5f5f9054906101000a900473ffffffffffffffffffffffffffffffffffffffff169050815f5f6101000a81548173ffffffffffffffffffffffffffffffffffffffff021916908373ffffffffffffffffffffffffffffffffffffffff1602179055508173ffffffffffffffffffffffffffffffffffffffff168173ffffffffffffffffffffffffffffffffffffffff167f8be0079c531659141344cd1fd0a4f28419497f9722a3daafe3b4186f6b6457e060405160405180910390a35050565b611945611704565b60015f60146101000a81548160ff0219169083151502179055507f62e78cea01bee320cd4e420270b5ea74000d11b0c9f74754ebdbfc544b05a258611988611cff565b6040516119959190612024565b60405180910390a1565b60045f8781526020019081526020015f206005015f9054906101000a900460ff166119f6576040517f5aa22c7900000000000000000000000000000000000000000000000000000000815260040160405180910390fd5b60025f8781526020019081526020015f205f9054906101000a900460ff1615611a4b576040517f267e7ab200000000000000000000000000000000000000000000000000000000815260040160405180910390fd5b5f7f000000000000000000000000000000000000000000000000000000000000000073ffffffffffffffffffffffffffffffffffffffff1663f8db671e83895f1c898989896040518763ffffffff1660e01b8152600401611ab196959493929190612c28565b6020604051808303815f875af1158015611acd573d5f5f3e3d5ffd5b505050506040513d601f19601f82011682018060405250810190611af19190612774565b905080611b2a576040517f09bde33900000000000000000000000000000000000000000000000000000000815260040160405180910390fd5b7f000000000000000000000000000000000000000000000000000000000000000073ffffffffffffffffffffffffffffffffffffffff16877fc30f4adce5910212952f577c97f2fa194ef8b40cd127b966f1854cece79778926001604051611b9291906120a1565b60405180910390a3600160025f8981526020019081526020015f205f6101000a81548160ff0219169083151502179055505f60405180608001604052803373ffffffffffffffffffffffffffffffffffffffff1681526020014281526020015f81526020016001151581525090508060035f8a81526020019081526020015f205f820151815f015f6101000a81548173ffffffffffffffffffffffffffffffffffffffff021916908373ffffffffffffffffffffffffffffffffffffffff16021790555060208201518160010155604082015181600201556060820151816003015f6101000a81548160ff02191690831515021790555090505060065f815480929190611c9e906127cc565b91905055503373ffffffffffffffffffffffffffffffffffffffff16887f8b62fc954c47be6cb43ca2107b7aeffb0a20ac229fbc2e65d3d963f83701631a426001604051611ced929190612c8d565b60405180910390a35050505050505050565b5f33905090565b611d0e610f22565b611d44576040517f8dfc202b00000000000000000000000000000000000000000000000000000000815260040160405180910390fd5b565b6040518060c001604052805f73ffffffffffffffffffffffffffffffffffffffff1681526020015f81526020015f81526020015f81526020015f81526020015f151581525090565b60405180608001604052805f73ffffffffffffffffffffffffffffffffffffffff1681526020015f81526020015f81526020015f151581525090565b5f604051905090565b5f5ffd5b5f5ffd5b5f819050919050565b611ded81611ddb565b8114611df7575f5ffd5b50565b5f81359050611e0881611de4565b92915050565b5f60208284031215611e2357611e22611dd3565b5b5f611e3084828501611dfa565b91505092915050565b5f73ffffffffffffffffffffffffffffffffffffffff82169050919050565b5f611e6282611e39565b9050919050565b611e7281611e58565b82525050565b5f819050919050565b611e8a81611e78565b82525050565b5f8115159050919050565b611ea481611e90565b82525050565b5f60c082019050611ebd5f830189611e69565b611eca6020830188611e81565b611ed76040830187611e81565b611ee46060830186611e81565b611ef16080830185611e81565b611efe60a0830184611e9b565b979650505050505050565b5f602082019050611f1c5f830184611e81565b92915050565b611f2b81611e78565b8114611f35575f5ffd5b50565b5f81359050611f4681611f22565b92915050565b5f5f5f5f60808587031215611f6457611f63611dd3565b5b5f611f7187828801611dfa565b9450506020611f8287828801611f38565b9350506040611f9387828801611f38565b9250506060611fa487828801611f38565b91505092959194509250565b5f819050919050565b5f611fd3611fce611fc984611e39565b611fb0565b611e39565b9050919050565b5f611fe482611fb9565b9050919050565b5f611ff582611fda565b9050919050565b61200581611feb565b82525050565b5f60208201905061201e5f830184611ffc565b92915050565b5f6020820190506120375f830184611e69565b92915050565b5f6020828403121561205257612051611dd3565b5b5f61205f84828501611f38565b91505092915050565b5f61207282611fda565b9050919050565b61208281612068565b82525050565b5f60208201905061209b5f830184612079565b92915050565b5f6020820190506120b45f830184611e9b565b92915050565b6120c381611e58565b82525050565b6120d281611e78565b82525050565b6120e181611e90565b82525050565b60c082015f8201516120fb5f8501826120ba565b50602082015161210e60208501826120c9565b50604082015161212160408501826120c9565b50606082015161213460608501826120c9565b50608082015161214760808501826120c9565b5060a082015161215a60a08501826120d8565b50505050565b5f60c0820190506121735f8301846120e7565b92915050565b5f5ffd5b5f601f19601f8301169050919050565b7f4e487b71000000000000000000000000000000000000000000000000000000005f52604160045260245ffd5b6121c38261217d565b810181811067ffffffffffffffff821117156121e2576121e161218d565b5b80604052505050565b5f6121f4611dca565b905061220082826121ba565b919050565b5f5ffd5b5f67ffffffffffffffff8211156122235761222261218d565b5b602082029050919050565b5f5ffd5b5f61224461223f84612209565b6121eb565b9050806020840283018581111561225e5761225d61222e565b5b835b8181101561228757806122738882611f38565b845260208401935050602081019050612260565b5050509392505050565b5f82601f8301126122a5576122a4612205565b5b60026122b2848285612232565b91505092915050565b5f67ffffffffffffffff8211156122d5576122d461218d565b5b602082029050919050565b5f6122f26122ed846122bb565b6121eb565b9050806020840283018581111561230c5761230b61222e565b5b835b8181101561233557806123218882611f38565b84526020840193505060208101905061230e565b5050509392505050565b5f82601f83011261235357612352612205565b5b60046123608482856122e0565b91505092915050565b5f610540828403121561237f5761237e612179565b5b61238a6102006121eb565b90505f61239984828501612291565b5f8301525060406123ac84828501612291565b60208301525060806123c084828501612291565b60408301525060c06123d484828501612291565b6060830152506101006123e98482850161233f565b6080830152506101806123fe8482850161233f565b60a0830152506102006124138482850161233f565b60c0830152506102806124288482850161233f565b60e08301525061030061243d8482850161233f565b6101008301525061038061245384828501612291565b610120830152506103c061246984828501612291565b6101408301525061040061247f84828501612291565b6101608301525061044061249584828501612291565b610180830152506104806124ab84828501612291565b6101a0830152506104c06124c184828501612291565b6101c0830152506105006124d784828501612291565b6101e08301525092915050565b5f5f5f5f5f5f6105e087890312156124ff576124fe611dd3565b5b5f61250c89828a01611dfa565b965050602061251d89828a01611f38565b955050604061252e89828a01611f38565b945050606061253f89828a01611f38565b935050608061255089828a01611f38565b92505060a061256189828a01612369565b9150509295509295509295565b61257781611e58565b8114612581575f5ffd5b50565b5f813590506125928161256e565b92915050565b5f602082840312156125ad576125ac611dd3565b5b5f6125ba84828501612584565b91505092915050565b608082015f8201516125d75f8501826120ba565b5060208201516125ea60208501826120c9565b5060408201516125fd60408501826120c9565b50606082015161261060608501826120d8565b50505050565b5f6080820190506126295f8301846125c3565b92915050565b5f6040820190506126425f830185611e81565b61264f6020830184611e81565b9392505050565b5f6080820190506126695f830187611e69565b6126766020830186611e81565b6126836040830185611e81565b6126906060830184611e9b565b95945050505050565b5f81519050919050565b5f82825260208201905092915050565b8281835e5f83830152505050565b5f6126cb82612699565b6126d581856126a3565b93506126e58185602086016126b3565b6126ee8161217d565b840191505092915050565b5f60808201905061270c5f830187611e9b565b6127196020830186611e9b565b818103604083015261272b81856126c1565b9050818103606083015261273f81846126c1565b905095945050505050565b61275381611e90565b811461275d575f5ffd5b50565b5f8151905061276e8161274a565b92915050565b5f6020828403121561278957612788611dd3565b5b5f61279684828501612760565b91505092915050565b7f4e487b71000000000000000000000000000000000000000000000000000000005f52601160045260245ffd5b5f6127d682611e78565b91507fffffffffffffffffffffffffffffffffffffffffffffffffffffffffffffffff82036128085761280761279f565b5b600182019050919050565b5f6060820190506128265f830186611e81565b6128336020830185611e81565b6128406040830184611e81565b949350505050565b5f81905092915050565b50565b5f6128605f83612848565b915061286b82612852565b5f82019050919050565b5f61287f82612855565b9150819050919050565b5f5ffd5b5f67ffffffffffffffff8211156128a7576128a661218d565b5b6128b08261217d565b9050602081019050919050565b5f6128cf6128ca8461288d565b6121eb565b9050828152602081018484840111156128eb576128ea612889565b5b6128f68482856126b3565b509392505050565b5f82601f83011261291257612911612205565b5b81516129228482602086016128bd565b91505092915050565b5f5f5f5f6080858703121561294357612942611dd3565b5b5f61295087828801612760565b945050602061296187828801612760565b935050604085015167ffffffffffffffff81111561298257612981611dd7565b5b61298e878288016128fe565b925050606085015167ffffffffffffffff8111156129af576129ae611dd7565b5b6129bb878288016128fe565b91505092959194509250565b5f60029050919050565b5f81905092915050565b5f819050919050565b5f6129ef83836120c9565b60208301905092915050565b5f602082019050919050565b612a10816129c7565b612a1a81846129d1565b9250612a25826129db565b805f5b83811015612a55578151612a3c87826129e4565b9650612a47836129fb565b925050600181019050612a28565b505050505050565b5f60049050919050565b5f81905092915050565b5f819050919050565b5f602082019050919050565b612a8f81612a5d565b612a998184612a67565b9250612aa482612a71565b805f5b83811015612ad4578151612abb87826129e4565b9650612ac683612a7a565b925050600181019050612aa7565b505050505050565b61054082015f820151612af15f850182612a07565b506020820151612b046040850182612a07565b506040820151612b176080850182612a07565b506060820151612b2a60c0850182612a07565b506080820151612b3e610100850182612a86565b5060a0820151612b52610180850182612a86565b5060c0820151612b66610200850182612a86565b5060e0820151612b7a610280850182612a86565b50610100820151612b8f610300850182612a86565b50610120820151612ba4610380850182612a07565b50610140820151612bb96103c0850182612a07565b50610160820151612bce610400850182612a07565b50610180820151612be3610440850182612a07565b506101a0820151612bf8610480850182612a07565b506101c0820151612c0d6104c0850182612a07565b506101e0820151612c22610500850182612a07565b50505050565b5f6105e082019050612c3c5f830189612adc565b612c4a610540830188611e81565b612c58610560830187611e81565b612c66610580830186611e81565b612c746105a0830185611e81565b612c826105c0830184611e81565b979650505050505050565b5f604082019050612ca05f830185611e81565b612cad6020830184611e9b565b939250505056fea2646970667358221220cb71b92bac423eee0b1627bc2359bee69dc6cedcab2e7bc4af7cbcc09be76c8664736f6c634300081c0033","linkReferences":{}},"methodIdentifiers":{"emergencyWithdraw(uint256)":"5312ea8e","executeWill(bytes32,uint256,uint256,uint256,uint256,(uint256[2],uint256[2],uint256[2],uint256[2],uint256[4],uint256[4],uint256[4],uint256[4],uint256[4],uint256[2],uint256[2],uint256[2],uint256[2],uint256[2],uint256[2],uint256[2]))":"e349a89f","executeWillWithHeartbeat(bytes32,uint256,uint256,uint256,uint256,(uint256[2],uint256[2],uint256[2],uint256[2],uint256[4],uint256[4],uint256[4],uint256[4],uint256[4],uint256[2],uint256[2],uint256[2],uint256[2],uint256[2],uint256[2],uint256[2]))":"a6aa4dbc","executedWills(bytes32)":"7929da9d","getRegisteredWill(bytes32)":"869bb1e7","getStats()":"c59d4847","getUserSelfVerificationDetails(address)":"c71d8f67","getWillExecution(bytes32)":"b5fc3d13","heartbeat()":"3defb962","isUserVerified(address)":"ace417e0","isWillExecuted(bytes32)":"96965ce3","isWillRegistered(bytes32)":"5ee50613","owner()":"8da5cb5b","pause()":"8456cb59","paused()":"5c975abb","registerWill(bytes32,uint256,uint256,uint256)":"246a4e76","registeredWills(bytes32)":"0add7e2e","renounceOwnership()":"715018a6","selfVerifier()":"5bbc976c","totalWillsExecuted()":"9472235d","totalWillsRegistered()":"1cc34b28","transferOwnership(address)":"f2fde38b","unpause()":"3f4ba83a","verifier()":"2b7ac3f3","willExecutions(bytes32)":"c5b29cbf","withdrawAllEth(bytes32)":"332a771d","withdrawEth(bytes32)":"cd9be6b2"},"id":36}