{"abi":[{"type":"constructor","inputs":[{"name":"_verifier","type":"address","internalType":"address"},{"name":"_heartbeat","type":"address","internalType":"address"}],"stateMutability":"nonpayable"},{"type":"function","name":"executeWill","inputs":[{"name":"willCommitment","type":"bytes32","internalType":"bytes32"},{"name":"merkleRoot","type":"uint256","internalType":"uint256"},{"name":"totalEth","type":"uint256","internalType":"uint256"},{"name":"totalUsdc","type":"uint256","internalType":"uint256"},{"name":"totalNftCount","type":"uint256","internalType":"uint256"},{"name":"proof","type":"tuple","internalType":"struct WillVerifier.Proof","components":[{"name":"W1","type":"uint256[2]","internalType":"uint256[2]"},{"name":"W2","type":"uint256[2]","internalType":"uint256[2]"},{"name":"W3","type":"uint256[2]","internalType":"uint256[2]"},{"name":"W4","type":"uint256[2]","internalType":"uint256[2]"},{"name":"Z","type":"uint256[4]","internalType":"uint256[4]"},{"name":"T1","type":"uint256[4]","internalType":"uint256[4]"},{"name":"T2","type":"uint256[4]","internalType":"uint256[4]"},{"name":"T3","type":"uint256[4]","internalType":"uint256[4]"},{"name":"T4","type":"uint256[4]","internalType":"uint256[4]"},{"name":"W1_omega","type":"uint256[2]","internalType":"uint256[2]"},{"name":"W2_omega","type":"uint256[2]","internalType":"uint256[2]"},{"name":"W3_omega","type":"uint256[2]","internalType":"uint256[2]"},{"name":"W4_omega","type":"uint256[2]","internalType":"uint256[2]"},{"name":"PI_Z","type":"uint256[2]","internalType":"uint256[2]"},{"name":"PI_Z_omega","type":"uint256[2]","internalType":"uint256[2]"},{"name":"r_0","type":"uint256[2]","internalType":"uint256[2]"}]}],"outputs":[],"stateMutability":"nonpayable"},{"type":"function","name":"executeWillWithHeartbeat","inputs":[{"name":"willCommitment","type":"bytes32","internalType":"bytes32"},{"name":"merkleRoot","type":"uint256","internalType":"uint256"},{"name":"totalEth","type":"uint256","internalType":"uint256"},{"name":"totalUsdc","type":"uint256","internalType":"uint256"},{"name":"totalNftCount","type":"uint256","internalType":"uint256"},{"name":"proof","type":"tuple","internalType":"struct WillVerifier.Proof","components":[{"name":"W1","type":"uint256[2]","internalType":"uint256[2]"},{"name":"W2","type":"uint256[2]","internalType":"uint256[2]"},{"name":"W3","type":"uint256[2]","internalType":"uint256[2]"},{"name":"W4","type":"uint256[2]","internalType":"uint256[2]"},{"name":"Z","type":"uint256[4]","internalType":"uint256[4]"},{"name":"T1","type":"uint256[4]","internalType":"uint256[4]"},{"name":"T2","type":"uint256[4]","internalType":"uint256[4]"},{"name":"T3","type":"uint256[4]","internalType":"uint256[4]"},{"name":"T4","type":"uint256[4]","internalType":"uint256[4]"},{"name":"W1_omega","type":"uint256[2]","internalType":"uint256[2]"},{"name":"W2_omega","type":"uint256[2]","internalType":"uint256[2]"},{"name":"W3_omega","type":"uint256[2]","internalType":"uint256[2]"},{"name":"W4_omega","type":"uint256[2]","internalType":"uint256[2]"},{"name":"PI_Z","type":"uint256[2]","internalType":"uint256[2]"},{"name":"PI_Z_omega","type":"uint256[2]","internalType":"uint256[2]"},{"name":"r_0","type":"uint256[2]","internalType":"uint256[2]"}]}],"outputs":[],"stateMutability":"nonpayable"},{"type":"function","name":"executedWills","inputs":[{"name":"","type":"bytes32","internalType":"bytes32"}],"outputs":[{"name":"","type":"bool","internalType":"bool"}],"stateMutability":"view"},{"type":"function","name":"getRegisteredWill","inputs":[{"name":"willCommitment","type":"bytes32","internalType":"bytes32"}],"outputs":[{"name":"will","type":"tuple","internalType":"struct WillExecutor.RegisteredWill","components":[{"name":"owner","type":"address","internalType":"address"},{"name":"registrationTime","type":"uint256","internalType":"uint256"},{"name":"totalEth","type":"uint256","internalType":"uint256"},{"name":"totalUsdc","type":"uint256","internalType":"uint256"},{"name":"totalNfts","type":"uint256","internalType":"uint256"},{"name":"exists","type":"bool","internalType":"bool"}]}],"stateMutability":"view"},{"type":"function","name":"getStats","inputs":[],"outputs":[{"name":"registered","type":"uint256","internalType":"uint256"},{"name":"executed","type":"uint256","internalType":"uint256"}],"stateMutability":"view"},{"type":"function","name":"getWillExecution","inputs":[{"name":"willCommitment","type":"bytes32","internalType":"bytes32"}],"outputs":[{"name":"execution","type":"tuple","internalType":"struct WillExecutor.WillExecution","components":[{"name":"executor","type":"address","internalType":"address"},{"name":"executionTime","type":"uint256","internalType":"uint256"},{"name":"totalValueTransferred","type":"uint256","internalType":"uint256"},{"name":"success","type":"bool","internalType":"bool"}]}],"stateMutability":"view"},{"type":"function","name":"heartbeat","inputs":[],"outputs":[{"name":"","type":"address","internalType":"address"}],"stateMutability":"view"},{"type":"function","name":"isWillExecuted","inputs":[{"name":"willCommitment","type":"bytes32","internalType":"bytes32"}],"outputs":[{"name":"executed","type":"bool","internalType":"bool"}],"stateMutability":"view"},{"type":"function","name":"isWillRegistered","inputs":[{"name":"willCommitment","type":"bytes32","internalType":"bytes32"}],"outputs":[{"name":"exists","type":"bool","internalType":"bool"}],"stateMutability":"view"},{"type":"function","name":"owner","inputs":[],"outputs":[{"name":"","type":"address","internalType":"address"}],"stateMutability":"view"},{"type":"function","name":"pause","inputs":[],"outputs":[],"stateMutability":"nonpayable"},{"type":"function","name":"paused","inputs":[],"outputs":[{"name":"","type":"bool","internalType":"bool"}],"stateMutability":"view"},{"type":"function","name":"registerWill","inputs":[{"name":"willCommitment","type":"bytes32","internalType":"bytes32"},{"name":"totalEth","type":"uint256","internalType":"uint256"},{"name":"totalUsdc","type":"uint256","internalType":"uint256"},{"name":"totalNfts","type":"uint256","internalType":"uint256"}],"outputs":[],"stateMutability":"nonpayable"},{"type":"function","name":"registeredWills","inputs":[{"name":"","type":"bytes32","internalType":"bytes32"}],"outputs":[{"name":"owner","type":"address","internalType":"address"},{"name":"registrationTime","type":"uint256","internalType":"uint256"},{"name":"totalEth","type":"uint256","internalType":"uint256"},{"name":"totalUsdc","type":"uint256","internalType":"uint256"},{"name":"totalNfts","type":"uint256","internalType":"uint256"},{"name":"exists","type":"bool","internalType":"bool"}],"stateMutability":"view"},{"type":"function","name":"renounceOwnership","inputs":[],"outputs":[],"stateMutability":"nonpayable"},{"type":"function","name":"totalWillsExecuted","inputs":[],"outputs":[{"name":"","type":"uint256","internalType":"uint256"}],"stateMutability":"view"},{"type":"function","name":"totalWillsRegistered","inputs":[],"outputs":[{"name":"","type":"uint256","internalType":"uint256"}],"stateMutability":"view"},{"type":"function","name":"transferOwnership","inputs":[{"name":"newOwner","type":"address","internalType":"address"}],"outputs":[],"stateMutability":"nonpayable"},{"type":"function","name":"unpause","inputs":[],"outputs":[],"stateMutability":"nonpayable"},{"type":"function","name":"verifier","inputs":[],"outputs":[{"name":"","type":"address","internalType":"contract WillVerifier"}],"stateMutability":"view"},{"type":"function","name":"willExecutions","inputs":[{"name":"","type":"bytes32","internalType":"bytes32"}],"outputs":[{"name":"executor","type":"address","internalType":"address"},{"name":"executionTime","type":"uint256","internalType":"uint256"},{"name":"totalValueTransferred","type":"uint256","internalType":"uint256"},{"name":"success","type":"bool","internalType":"bool"}],"stateMutability":"view"},{"type":"event","name":"OwnershipTransferred","inputs":[{"name":"previousOwner","type":"address","indexed":true,"internalType":"address"},{"name":"newOwner","type":"address","indexed":true,"internalType":"address"}],"anonymous":false},{"type":"event","name":"Paused","inputs":[{"name":"account","type":"address","indexed":false,"internalType":"address"}],"anonymous":false},{"type":"event","name":"ProofVerified","inputs":[{"name":"willCommitment","type":"bytes32","indexed":true,"internalType":"bytes32"},{"name":"verifier","type":"address","indexed":true,"internalType":"address"},{"name":"isValid","type":"bool","indexed":false,"internalType":"bool"}],"anonymous":false},{"type":"event","name":"Unpaused","inputs":[{"name":"account","type":"address","indexed":false,"internalType":"address"}],"anonymous":false},{"type":"event","name":"WillExecuted","inputs":[{"name":"willCommitment","type":"bytes32","indexed":true,"internalType":"bytes32"},{"name":"executor","type":"address","indexed":true,"internalType":"address"},{"name":"executionTime","type":"uint256","indexed":false,"internalType":"uint256"},{"name":"success","type":"bool","indexed":false,"internalType":"bool"}],"anonymous":false},{"type":"event","name":"WillRegistered","inputs":[{"name":"willCommitment","type":"bytes32","indexed":true,"internalType":"bytes32"},{"name":"owner","type":"address","indexed":true,"internalType":"address"},{"name":"totalEth","type":"uint256","indexed":false,"internalType":"uint256"},{"name":"totalUsdc","type":"uint256","indexed":false,"internalType":"uint256"},{"name":"totalNfts","type":"uint256","indexed":false,"internalType":"uint256"}],"anonymous":false},{"type":"error","name":"EnforcedPause","inputs":[]},{"type":"error","name":"ExpectedPause","inputs":[]},{"type":"error","name":"InactivityNotFinalized","inputs":[]},{"type":"error","name":"InsufficientBalance","inputs":[]},{"type":"error","name":"InvalidHeartbeat","inputs":[]},{"type":"error","name":"InvalidProof","inputs":[]},{"type":"error","name":"InvalidVerifier","inputs":[]},{"type":"error","name":"OwnableInvalidOwner","inputs":[{"name":"owner","type":"address","internalType":"address"}]},{"type":"error","name":"OwnableUnauthorizedAccount","inputs":[{"name":"account","type":"address","internalType":"address"}]},{"type":"error","name":"ReentrancyGuardReentrantCall","inputs":[]},{"type":"error","name":"TransferFailed","inputs":[]},{"type":"error","name":"UnauthorizedExecution","inputs":[]},{"type":"error","name":"WillAlreadyExecuted","inputs":[]},{"type":"error","name":"WillNotRegistered","inputs":[]}],"bytecode":{"object":"0x60c060405234801561000f575f5ffd5b506040516120e63803806120e683398181016040528101906100319190610311565b335f73ffffffffffffffffffffffffffffffffffffffff168173ffffffffffffffffffffffffffffffffffffffff16036100a2575f6040517f1e4fbdf7000000000000000000000000000000000000000000000000000000008152600401610099919061035e565b60405180910390fd5b6100b1816101f260201b60201c565b50600180819055505f73ffffffffffffffffffffffffffffffffffffffff168273ffffffffffffffffffffffffffffffffffffffff160361011e576040517fbaa3de5f00000000000000000000000000000000000000000000000000000000815260040160405180910390fd5b5f73ffffffffffffffffffffffffffffffffffffffff168173ffffffffffffffffffffffffffffffffffffffff1603610183576040517f8f1825c900000000000000000000000000000000000000000000000000000000815260040160405180910390fd5b8173ffffffffffffffffffffffffffffffffffffffff1660808173ffffffffffffffffffffffffffffffffffffffff16815250508073ffffffffffffffffffffffffffffffffffffffff1660a08173ffffffffffffffffffffffffffffffffffffffff16815250505050610377565b5f5f5f9054906101000a900473ffffffffffffffffffffffffffffffffffffffff169050815f5f6101000a81548173ffffffffffffffffffffffffffffffffffffffff021916908373ffffffffffffffffffffffffffffffffffffffff1602179055508173ffffffffffffffffffffffffffffffffffffffff168173ffffffffffffffffffffffffffffffffffffffff167f8be0079c531659141344cd1fd0a4f28419497f9722a3daafe3b4186f6b6457e060405160405180910390a35050565b5f5ffd5b5f73ffffffffffffffffffffffffffffffffffffffff82169050919050565b5f6102e0826102b7565b9050919050565b6102f0816102d6565b81146102fa575f5ffd5b50565b5f8151905061030b816102e7565b92915050565b5f5f60408385031215610327576103266102b3565b5b5f610334858286016102fd565b9250506020610345858286016102fd565b9150509250929050565b610358816102d6565b82525050565b5f6020820190506103715f83018461034f565b92915050565b60805160a051611d406103a65f395f61063601525f818161061201528181610d330152610e110152611d405ff3fe608060405234801561000f575f5ffd5b5060043610610135575f3560e01c80638456cb59116100b6578063a6aa4dbc1161007a578063a6aa4dbc1461031c578063b5fc3d1314610338578063c59d484714610368578063c5b29cbf14610387578063e349a89f146103ba578063f2fde38b146103d657610135565b80638456cb5914610276578063869bb1e7146102805780638da5cb5b146102b05780639472235d146102ce57806396965ce3146102ec57610135565b80633f4ba83a116100fd5780633f4ba83a146101e45780635c975abb146101ee5780635ee506131461020c578063715018a61461023c5780637929da9d1461024657610135565b80630add7e2e146101395780631cc34b281461016e578063246a4e761461018c5780632b7ac3f3146101a85780633defb962146101c6575b5f5ffd5b610153600480360381019061014e91906110f8565b6103f2565b60405161016596959493929190611194565b60405180910390f35b610176610455565b60405161018391906111f3565b60405180910390f35b6101a660048036038101906101a19190611236565b61045b565b005b6101b0610610565b6040516101bd91906112f5565b60405180910390f35b6101ce610634565b6040516101db919061130e565b60405180910390f35b6101ec610658565b005b6101f661066a565b6040516102039190611327565b60405180910390f35b610226600480360381019061022191906110f8565b61067f565b6040516102339190611327565b60405180910390f35b6102446106a8565b005b610260600480360381019061025b91906110f8565b6106bb565b60405161026d9190611327565b60405180910390f35b61027e6106d8565b005b61029a600480360381019061029591906110f8565b6106ea565b6040516102a791906113e6565b60405180910390f35b6102b86107ab565b6040516102c5919061130e565b60405180910390f35b6102d66107d2565b6040516102e391906111f3565b60405180910390f35b610306600480360381019061030191906110f8565b6107d8565b6040516103139190611327565b60405180910390f35b6103366004803603810190610331919061176a565b6107fe565b005b610352600480360381019061034d91906110f8565b61082c565b60405161035f9190611847565b60405180910390f35b6103706108d9565b60405161037e929190611860565b60405180910390f35b6103a1600480360381019061039c91906110f8565b6108e9565b6040516103b19493929190611887565b60405180910390f35b6103d460048036038101906103cf919061176a565b610940565b005b6103f060048036038101906103eb91906118f4565b61096e565b005b6004602052805f5260405f205f91509050805f015f9054906101000a900473ffffffffffffffffffffffffffffffffffffffff1690806001015490806002015490806003015490806004015490806005015f9054906101000a900460ff16905086565b60055481565b6104636109f2565b60045f8581526020019081526020015f206005015f9054906101000a900460ff16156104bb576040517f5aa22c7900000000000000000000000000000000000000000000000000000000815260040160405180910390fd5b6040518060c001604052803373ffffffffffffffffffffffffffffffffffffffff1681526020014281526020018481526020018381526020018281526020016001151581525060045f8681526020019081526020015f205f820151815f015f6101000a81548173ffffffffffffffffffffffffffffffffffffffff021916908373ffffffffffffffffffffffffffffffffffffffff1602179055506020820151816001015560408201518160020155606082015181600301556080820151816004015560a0820151816005015f6101000a81548160ff02191690831515021790555090505060055f8154809291906105b29061194c565b91905055503373ffffffffffffffffffffffffffffffffffffffff16847f48286d428f84b28b046d3dbdce60352af844641c01bbf3ba967eaf2ab586069485858560405161060293929190611993565b60405180910390a350505050565b7f000000000000000000000000000000000000000000000000000000000000000081565b7f000000000000000000000000000000000000000000000000000000000000000081565b610660610a33565b610668610aba565b565b5f5f60149054906101000a900460ff16905090565b5f60045f8381526020019081526020015f206005015f9054906101000a900460ff169050919050565b6106b0610a33565b6106b95f610b1b565b565b6002602052805f5260405f205f915054906101000a900460ff1681565b6106e0610a33565b6106e8610bdc565b565b6106f2611034565b60045f8381526020019081526020015f206040518060c00160405290815f82015f9054906101000a900473ffffffffffffffffffffffffffffffffffffffff1673ffffffffffffffffffffffffffffffffffffffff1673ffffffffffffffffffffffffffffffffffffffff16815260200160018201548152602001600282015481526020016003820154815260200160048201548152602001600582015f9054906101000a900460ff1615151515815250509050919050565b5f5f5f9054906101000a900473ffffffffffffffffffffffffffffffffffffffff16905090565b60065481565b5f60025f8381526020019081526020015f205f9054906101000a900460ff169050919050565b6108066109f2565b61080e610c3e565b61081c868686868686610c84565b610824610fe4565b505050505050565b61083461107c565b60035f8381526020019081526020015f206040518060800160405290815f82015f9054906101000a900473ffffffffffffffffffffffffffffffffffffffff1673ffffffffffffffffffffffffffffffffffffffff1673ffffffffffffffffffffffffffffffffffffffff1681526020016001820154815260200160028201548152602001600382015f9054906101000a900460ff1615151515815250509050919050565b5f5f600554600654915091509091565b6003602052805f5260405f205f91509050805f015f9054906101000a900473ffffffffffffffffffffffffffffffffffffffff1690806001015490806002015490806003015f9054906101000a900460ff16905084565b6109486109f2565b610950610c3e565b61095e868686868686610c84565b610966610fe4565b505050505050565b610976610a33565b5f73ffffffffffffffffffffffffffffffffffffffff168173ffffffffffffffffffffffffffffffffffffffff16036109e6575f6040517f1e4fbdf70000000000000000000000000000000000000000000000000000000081526004016109dd919061130e565b60405180910390fd5b6109ef81610b1b565b50565b6109fa61066a565b15610a31576040517fd93c066500000000000000000000000000000000000000000000000000000000815260040160405180910390fd5b565b610a3b610fed565b73ffffffffffffffffffffffffffffffffffffffff16610a596107ab565b73ffffffffffffffffffffffffffffffffffffffff1614610ab857610a7c610fed565b6040517f118cdaa7000000000000000000000000000000000000000000000000000000008152600401610aaf919061130e565b60405180910390fd5b565b610ac2610ff4565b5f5f60146101000a81548160ff0219169083151502179055507f5db9ee0a495bf2e6ff9c91a7834c1ba4fdd244a5e8aa4e537bd38aeae4b073aa610b04610fed565b604051610b11919061130e565b60405180910390a1565b5f5f5f9054906101000a900473ffffffffffffffffffffffffffffffffffffffff169050815f5f6101000a81548173ffffffffffffffffffffffffffffffffffffffff021916908373ffffffffffffffffffffffffffffffffffffffff1602179055508173ffffffffffffffffffffffffffffffffffffffff168173ffffffffffffffffffffffffffffffffffffffff167f8be0079c531659141344cd1fd0a4f28419497f9722a3daafe3b4186f6b6457e060405160405180910390a35050565b610be46109f2565b60015f60146101000a81548160ff0219169083151502179055507f62e78cea01bee320cd4e420270b5ea74000d11b0c9f74754ebdbfc544b05a258610c27610fed565b604051610c34919061130e565b60405180910390a1565b600260015403610c7a576040517f3ee5aeb500000000000000000000000000000000000000000000000000000000815260040160405180910390fd5b6002600181905550565b60045f8781526020019081526020015f206005015f9054906101000a900460ff16610cdb576040517f5aa22c7900000000000000000000000000000000000000000000000000000000815260040160405180910390fd5b60025f8781526020019081526020015f205f9054906101000a900460ff1615610d30576040517f267e7ab200000000000000000000000000000000000000000000000000000000815260040160405180910390fd5b5f7f000000000000000000000000000000000000000000000000000000000000000073ffffffffffffffffffffffffffffffffffffffff1663f8db671e83895f1c898989896040518763ffffffff1660e01b8152600401610d9696959493929190611c29565b6020604051808303815f875af1158015610db2573d5f5f3e3d5ffd5b505050506040513d601f19601f82011682018060405250810190610dd69190611cb8565b905080610e0f576040517f09bde33900000000000000000000000000000000000000000000000000000000815260040160405180910390fd5b7f000000000000000000000000000000000000000000000000000000000000000073ffffffffffffffffffffffffffffffffffffffff16877fc30f4adce5910212952f577c97f2fa194ef8b40cd127b966f1854cece79778926001604051610e779190611327565b60405180910390a3600160025f8981526020019081526020015f205f6101000a81548160ff0219169083151502179055505f60405180608001604052803373ffffffffffffffffffffffffffffffffffffffff1681526020014281526020015f81526020016001151581525090508060035f8a81526020019081526020015f205f820151815f015f6101000a81548173ffffffffffffffffffffffffffffffffffffffff021916908373ffffffffffffffffffffffffffffffffffffffff16021790555060208201518160010155604082015181600201556060820151816003015f6101000a81548160ff02191690831515021790555090505060065f815480929190610f839061194c565b91905055503373ffffffffffffffffffffffffffffffffffffffff16887f8b62fc954c47be6cb43ca2107b7aeffb0a20ac229fbc2e65d3d963f83701631a426001604051610fd2929190611ce3565b60405180910390a35050505050505050565b60018081905550565b5f33905090565b610ffc61066a565b611032576040517f8dfc202b00000000000000000000000000000000000000000000000000000000815260040160405180910390fd5b565b6040518060c001604052805f73ffffffffffffffffffffffffffffffffffffffff1681526020015f81526020015f81526020015f81526020015f81526020015f151581525090565b60405180608001604052805f73ffffffffffffffffffffffffffffffffffffffff1681526020015f81526020015f81526020015f151581525090565b5f604051905090565b5f5ffd5b5f819050919050565b6110d7816110c5565b81146110e1575f5ffd5b50565b5f813590506110f2816110ce565b92915050565b5f6020828403121561110d5761110c6110c1565b5b5f61111a848285016110e4565b91505092915050565b5f73ffffffffffffffffffffffffffffffffffffffff82169050919050565b5f61114c82611123565b9050919050565b61115c81611142565b82525050565b5f819050919050565b61117481611162565b82525050565b5f8115159050919050565b61118e8161117a565b82525050565b5f60c0820190506111a75f830189611153565b6111b4602083018861116b565b6111c1604083018761116b565b6111ce606083018661116b565b6111db608083018561116b565b6111e860a0830184611185565b979650505050505050565b5f6020820190506112065f83018461116b565b92915050565b61121581611162565b811461121f575f5ffd5b50565b5f813590506112308161120c565b92915050565b5f5f5f5f6080858703121561124e5761124d6110c1565b5b5f61125b878288016110e4565b945050602061126c87828801611222565b935050604061127d87828801611222565b925050606061128e87828801611222565b91505092959194509250565b5f819050919050565b5f6112bd6112b86112b384611123565b61129a565b611123565b9050919050565b5f6112ce826112a3565b9050919050565b5f6112df826112c4565b9050919050565b6112ef816112d5565b82525050565b5f6020820190506113085f8301846112e6565b92915050565b5f6020820190506113215f830184611153565b92915050565b5f60208201905061133a5f830184611185565b92915050565b61134981611142565b82525050565b61135881611162565b82525050565b6113678161117a565b82525050565b60c082015f8201516113815f850182611340565b506020820151611394602085018261134f565b5060408201516113a7604085018261134f565b5060608201516113ba606085018261134f565b5060808201516113cd608085018261134f565b5060a08201516113e060a085018261135e565b50505050565b5f60c0820190506113f95f83018461136d565b92915050565b5f5ffd5b5f601f19601f8301169050919050565b7f4e487b71000000000000000000000000000000000000000000000000000000005f52604160045260245ffd5b61144982611403565b810181811067ffffffffffffffff8211171561146857611467611413565b5b80604052505050565b5f61147a6110b8565b90506114868282611440565b919050565b5f5ffd5b5f67ffffffffffffffff8211156114a9576114a8611413565b5b602082029050919050565b5f5ffd5b5f6114ca6114c58461148f565b611471565b905080602084028301858111156114e4576114e36114b4565b5b835b8181101561150d57806114f98882611222565b8452602084019350506020810190506114e6565b5050509392505050565b5f82601f83011261152b5761152a61148b565b5b60026115388482856114b8565b91505092915050565b5f67ffffffffffffffff82111561155b5761155a611413565b5b602082029050919050565b5f61157861157384611541565b611471565b90508060208402830185811115611592576115916114b4565b5b835b818110156115bb57806115a78882611222565b845260208401935050602081019050611594565b5050509392505050565b5f82601f8301126115d9576115d861148b565b5b60046115e6848285611566565b91505092915050565b5f6105408284031215611605576116046113ff565b5b611610610200611471565b90505f61161f84828501611517565b5f83015250604061163284828501611517565b602083015250608061164684828501611517565b60408301525060c061165a84828501611517565b60608301525061010061166f848285016115c5565b608083015250610180611684848285016115c5565b60a083015250610200611699848285016115c5565b60c0830152506102806116ae848285016115c5565b60e0830152506103006116c3848285016115c5565b610100830152506103806116d984828501611517565b610120830152506103c06116ef84828501611517565b6101408301525061040061170584828501611517565b6101608301525061044061171b84828501611517565b6101808301525061048061173184828501611517565b6101a0830152506104c061174784828501611517565b6101c08301525061050061175d84828501611517565b6101e08301525092915050565b5f5f5f5f5f5f6105e08789031215611785576117846110c1565b5b5f61179289828a016110e4565b96505060206117a389828a01611222565b95505060406117b489828a01611222565b94505060606117c589828a01611222565b93505060806117d689828a01611222565b92505060a06117e789828a016115ef565b9150509295509295509295565b608082015f8201516118085f850182611340565b50602082015161181b602085018261134f565b50604082015161182e604085018261134f565b506060820151611841606085018261135e565b50505050565b5f60808201905061185a5f8301846117f4565b92915050565b5f6040820190506118735f83018561116b565b611880602083018461116b565b9392505050565b5f60808201905061189a5f830187611153565b6118a7602083018661116b565b6118b4604083018561116b565b6118c16060830184611185565b95945050505050565b6118d381611142565b81146118dd575f5ffd5b50565b5f813590506118ee816118ca565b92915050565b5f60208284031215611909576119086110c1565b5b5f611916848285016118e0565b91505092915050565b7f4e487b71000000000000000000000000000000000000000000000000000000005f52601160045260245ffd5b5f61195682611162565b91507fffffffffffffffffffffffffffffffffffffffffffffffffffffffffffffffff82036119885761198761191f565b5b600182019050919050565b5f6060820190506119a65f83018661116b565b6119b3602083018561116b565b6119c0604083018461116b565b949350505050565b5f60029050919050565b5f81905092915050565b5f819050919050565b5f6119f0838361134f565b60208301905092915050565b5f602082019050919050565b611a11816119c8565b611a1b81846119d2565b9250611a26826119dc565b805f5b83811015611a56578151611a3d87826119e5565b9650611a48836119fc565b925050600181019050611a29565b505050505050565b5f60049050919050565b5f81905092915050565b5f819050919050565b5f602082019050919050565b611a9081611a5e565b611a9a8184611a68565b9250611aa582611a72565b805f5b83811015611ad5578151611abc87826119e5565b9650611ac783611a7b565b925050600181019050611aa8565b505050505050565b61054082015f820151611af25f850182611a08565b506020820151611b056040850182611a08565b506040820151611b186080850182611a08565b506060820151611b2b60c0850182611a08565b506080820151611b3f610100850182611a87565b5060a0820151611b53610180850182611a87565b5060c0820151611b67610200850182611a87565b5060e0820151611b7b610280850182611a87565b50610100820151611b90610300850182611a87565b50610120820151611ba5610380850182611a08565b50610140820151611bba6103c0850182611a08565b50610160820151611bcf610400850182611a08565b50610180820151611be4610440850182611a08565b506101a0820151611bf9610480850182611a08565b506101c0820151611c0e6104c0850182611a08565b506101e0820151611c23610500850182611a08565b50505050565b5f6105e082019050611c3d5f830189611add565b611c4b61054083018861116b565b611c5961056083018761116b565b611c6761058083018661116b565b611c756105a083018561116b565b611c836105c083018461116b565b979650505050505050565b611c978161117a565b8114611ca1575f5ffd5b50565b5f81519050611cb281611c8e565b92915050565b5f60208284031215611ccd57611ccc6110c1565b5b5f611cda84828501611ca4565b91505092915050565b5f604082019050611cf65f83018561116b565b611d036020830184611185565b939250505056fea2646970667358221220bcffebab9ce54b5b7198a55e9f8c7cdd23d292fb3e8422c4dd5054710820b21464736f6c634300081d0033","linkReferences":{}},"methodIdentifiers":{"executeWill(bytes32,uint256,uint256,uint256,uint256,(uint256[2],uint256[2],uint256[2],uint256[2],uint256[4],uint256[4],uint256[4],uint256[4],uint256[4],uint256[2],uint256[2],uint256[2],uint256[2],uint256[2],uint256[2],uint256[2]))":"e349a89f","executeWillWithHeartbeat(bytes32,uint256,uint256,uint256,uint256,(uint256[2],uint256[2],uint256[2],uint256[2],uint256[4],uint256[4],uint256[4],uint256[4],uint256[4],uint256[2],uint256[2],uint256[2],uint256[2],uint256[2],uint256[2],uint256[2]))":"a6aa4dbc","executedWills(bytes32)":"7929da9d","getRegisteredWill(bytes32)":"869bb1e7","getStats()":"c59d4847","getWillExecution(bytes32)":"b5fc3d13","heartbeat()":"3defb962","isWillExecuted(bytes32)":"96965ce3","isWillRegistered(bytes32)":"5ee50613","owner()":"8da5cb5b","pause()":"8456cb59","paused()":"5c975abb","registerWill(bytes32,uint256,uint256,uint256)":"246a4e76","registeredWills(bytes32)":"0add7e2e","renounceOwnership()":"715018a6","totalWillsExecuted()":"9472235d","totalWillsRegistered()":"1cc34b28","transferOwnership(address)":"f2fde38b","unpause()":"3f4ba83a","verifier()":"2b7ac3f3","willExecutions(bytes32)":"c5b29cbf"},"id":4}