{"abi":[{"type":"constructor","inputs":[{"name":"_aztecExecutor","type":"address","internalType":"address"}],"stateMutability":"nonpayable"},{"type":"function","name":"aztecExecutor","inputs":[],"outputs":[{"name":"","type":"address","internalType":"contract AztecExecutor"}],"stateMutability":"view"},{"type":"function","name":"executedWills","inputs":[{"name":"","type":"bytes32","internalType":"bytes32"}],"outputs":[{"name":"","type":"bool","internalType":"bool"}],"stateMutability":"view"},{"type":"function","name":"getWillProof","inputs":[{"name":"willCommitment","type":"bytes32","internalType":"bytes32"}],"outputs":[{"name":"","type":"tuple","internalType":"struct NoirIntegration.WillProof","components":[{"name":"willCommitment","type":"bytes32","internalType":"bytes32"},{"name":"merkleRoot","type":"bytes32","internalType":"bytes32"},{"name":"totalEth","type":"uint256","internalType":"uint256"},{"name":"totalUsdc","type":"uint256","internalType":"uint256"},{"name":"totalNftCount","type":"uint256","internalType":"uint256"},{"name":"proof","type":"bytes","internalType":"bytes"},{"name":"publicInputs","type":"bytes32[]","internalType":"bytes32[]"}]}],"stateMutability":"view"},{"type":"function","name":"isWillExecuted","inputs":[{"name":"willCommitment","type":"bytes32","internalType":"bytes32"}],"outputs":[{"name":"","type":"bool","internalType":"bool"}],"stateMutability":"view"},{"type":"function","name":"owner","inputs":[],"outputs":[{"name":"","type":"address","internalType":"address"}],"stateMutability":"view"},{"type":"function","name":"pause","inputs":[],"outputs":[],"stateMutability":"nonpayable"},{"type":"function","name":"paused","inputs":[],"outputs":[{"name":"","type":"bool","internalType":"bool"}],"stateMutability":"view"},{"type":"function","name":"renounceOwnership","inputs":[],"outputs":[],"stateMutability":"nonpayable"},{"type":"function","name":"setAztecExecutor","inputs":[{"name":"_aztecExecutor","type":"address","internalType":"address"}],"outputs":[],"stateMutability":"nonpayable"},{"type":"function","name":"submitWillProof","inputs":[{"name":"proof","type":"tuple","internalType":"struct NoirIntegration.WillProof","components":[{"name":"willCommitment","type":"bytes32","internalType":"bytes32"},{"name":"merkleRoot","type":"bytes32","internalType":"bytes32"},{"name":"totalEth","type":"uint256","internalType":"uint256"},{"name":"totalUsdc","type":"uint256","internalType":"uint256"},{"name":"totalNftCount","type":"uint256","internalType":"uint256"},{"name":"proof","type":"bytes","internalType":"bytes"},{"name":"publicInputs","type":"bytes32[]","internalType":"bytes32[]"}]},{"name":"beneficiaries","type":"tuple[]","internalType":"struct NoirIntegration.BeneficiaryAllocation[]","components":[{"name":"beneficiary","type":"address","internalType":"address"},{"name":"ethAmount","type":"uint256","internalType":"uint256"},{"name":"usdcAmount","type":"uint256","internalType":"uint256"},{"name":"nftCount","type":"uint256","internalType":"uint256"}]}],"outputs":[],"stateMutability":"nonpayable"},{"type":"function","name":"transferOwnership","inputs":[{"name":"newOwner","type":"address","internalType":"address"}],"outputs":[],"stateMutability":"nonpayable"},{"type":"function","name":"unpause","inputs":[],"outputs":[],"stateMutability":"nonpayable"},{"type":"function","name":"willProofs","inputs":[{"name":"","type":"bytes32","internalType":"bytes32"}],"outputs":[{"name":"willCommitment","type":"bytes32","internalType":"bytes32"},{"name":"merkleRoot","type":"bytes32","internalType":"bytes32"},{"name":"totalEth","type":"uint256","internalType":"uint256"},{"name":"totalUsdc","type":"uint256","internalType":"uint256"},{"name":"totalNftCount","type":"uint256","internalType":"uint256"},{"name":"proof","type":"bytes","internalType":"bytes"}],"stateMutability":"view"},{"type":"event","name":"OwnershipTransferred","inputs":[{"name":"previousOwner","type":"address","indexed":true,"internalType":"address"},{"name":"newOwner","type":"address","indexed":true,"internalType":"address"}],"anonymous":false},{"type":"event","name":"Paused","inputs":[{"name":"account","type":"address","indexed":false,"internalType":"address"}],"anonymous":false},{"type":"event","name":"ProofVerificationFailed","inputs":[{"name":"willCommitment","type":"bytes32","indexed":true,"internalType":"bytes32"},{"name":"reason","type":"string","indexed":false,"internalType":"string"},{"name":"timestamp","type":"uint256","indexed":false,"internalType":"uint256"}],"anonymous":false},{"type":"event","name":"Unpaused","inputs":[{"name":"account","type":"address","indexed":false,"internalType":"address"}],"anonymous":false},{"type":"event","name":"WillProofVerified","inputs":[{"name":"willCommitment","type":"bytes32","indexed":true,"internalType":"bytes32"},{"name":"executor","type":"address","indexed":true,"internalType":"address"},{"name":"timestamp","type":"uint256","indexed":false,"internalType":"uint256"}],"anonymous":false},{"type":"error","name":"EnforcedPause","inputs":[]},{"type":"error","name":"ExpectedPause","inputs":[]},{"type":"error","name":"OwnableInvalidOwner","inputs":[{"name":"owner","type":"address","internalType":"address"}]},{"type":"error","name":"OwnableUnauthorizedAccount","inputs":[{"name":"account","type":"address","internalType":"address"}]},{"type":"error","name":"ReentrancyGuardReentrantCall","inputs":[]}],"bytecode":{"object":"0x608060405234801561000f575f5ffd5b506040516120383803806120388339818101604052810190610031919061021e565b335f73ffffffffffffffffffffffffffffffffffffffff168173ffffffffffffffffffffffffffffffffffffffff16036100a2575f6040517f1e4fbdf70000000000000000000000000000000000000000000000000000000081526004016100999190610258565b60405180910390fd5b6100b1816100ff60201b60201c565b50600180819055508060045f6101000a81548173ffffffffffffffffffffffffffffffffffffffff021916908373ffffffffffffffffffffffffffffffffffffffff16021790555050610271565b5f5f5f9054906101000a900473ffffffffffffffffffffffffffffffffffffffff169050815f5f6101000a81548173ffffffffffffffffffffffffffffffffffffffff021916908373ffffffffffffffffffffffffffffffffffffffff1602179055508173ffffffffffffffffffffffffffffffffffffffff168173ffffffffffffffffffffffffffffffffffffffff167f8be0079c531659141344cd1fd0a4f28419497f9722a3daafe3b4186f6b6457e060405160405180910390a35050565b5f5ffd5b5f73ffffffffffffffffffffffffffffffffffffffff82169050919050565b5f6101ed826101c4565b9050919050565b6101fd816101e3565b8114610207575f5ffd5b50565b5f81519050610218816101f4565b92915050565b5f60208284031215610233576102326101c0565b5b5f6102408482850161020a565b91505092915050565b610252816101e3565b82525050565b5f60208201905061026b5f830184610249565b92915050565b611dba8061027e5f395ff3fe608060405234801561000f575f5ffd5b50600436106100cd575f3560e01c80635c975abb1161008a5780638456cb59116100645780638456cb59146101ee5780638da5cb5b146101f857806396965ce314610216578063f2fde38b14610246576100cd565b80635c975abb14610196578063715018a6146101b45780637929da9d146101be576100cd565b8063015e84a0146100d15780630372e51d146101015780630d3533fe14610136578063186866c61461015257806320b3fbd0146101705780633f4ba83a1461018c575b5f5ffd5b6100eb60048036038101906100e69190610d98565b610262565b6040516100f89190610fa2565b60405180910390f35b61011b60048036038101906101169190610d98565b6103a4565b60405161012d96959493929190611028565b60405180910390f35b610150600480360381019061014b9190611111565b610462565b005b61015a61061d565b6040516101679190611204565b60405180910390f35b61018a60048036038101906101859190611258565b610642565b005b61019461068d565b005b61019e61069f565b6040516101ab919061129d565b60405180910390f35b6101bc6106b4565b005b6101d860048036038101906101d39190610d98565b6106c7565b6040516101e5919061129d565b60405180910390f35b6101f66106e4565b005b6102006106f6565b60405161020d91906112c5565b60405180910390f35b610230600480360381019061022b9190610d98565b61071d565b60405161023d919061129d565b60405180910390f35b610260600480360381019061025b9190611258565b610743565b005b61026a610ceb565b60035f8381526020019081526020015f206040518060e00160405290815f8201548152602001600182015481526020016002820154815260200160038201548152602001600482015481526020016005820180546102c79061130b565b80601f01602080910402602001604051908101604052809291908181526020018280546102f39061130b565b801561033e5780601f106103155761010080835404028352916020019161033e565b820191905f5260205f20905b81548152906001019060200180831161032157829003601f168201915b505050505081526020016006820180548060200260200160405190810160405280929190818152602001828054801561039457602002820191905f5260205f20905b815481526020019060010190808311610380575b5050505050815250509050919050565b6003602052805f5260405f205f91509050805f0154908060010154908060020154908060030154908060040154908060050180546103e19061130b565b80601f016020809104026020016040519081016040528092919081815260200182805461040d9061130b565b80156104585780601f1061042f57610100808354040283529160200191610458565b820191905f5260205f20905b81548152906001019060200180831161043b57829003601f168201915b5050505050905086565b61046a6107c7565b610472610808565b825f013560025f8281526020019081526020015f205f9054906101000a900460ff16156104d4576040517f08c379a00000000000000000000000000000000000000000000000000000000081526004016104cb90611395565b60405180910390fd5b8360035f865f013581526020019081526020015f2081816104f59190611ac9565b9050505f6105028561084e565b9050801561059857600160025f875f013581526020019081526020015f205f6101000a81548160ff0219169083151502179055506105418585856108a2565b3373ffffffffffffffffffffffffffffffffffffffff16855f01357f2f752a507e9d287d040cd7c5434f2bc19f4e96d3ab782bf6864910f5885aace64260405161058b9190611ad7565b60405180910390a361060e565b845f01357f1552972fa8cd7cbb2a9198c0bf63f052cba6978d118f1e2a88bb5d67b99c2eaf426040516105cb9190611b3a565b60405180910390a26040517f08c379a000000000000000000000000000000000000000000000000000000000815260040161060590611bb0565b60405180910390fd5b5050610618610a90565b505050565b60045f9054906101000a900473ffffffffffffffffffffffffffffffffffffffff1681565b61064a610a99565b8060045f6101000a81548173ffffffffffffffffffffffffffffffffffffffff021916908373ffffffffffffffffffffffffffffffffffffffff16021790555050565b610695610a99565b61069d610b20565b565b5f5f60149054906101000a900460ff16905090565b6106bc610a99565b6106c55f610b81565b565b6002602052805f5260405f205f915054906101000a900460ff1681565b6106ec610a99565b6106f4610c42565b565b5f5f5f9054906101000a900473ffffffffffffffffffffffffffffffffffffffff16905090565b5f60025f8381526020019081526020015f205f9054906101000a900460ff169050919050565b61074b610a99565b5f73ffffffffffffffffffffffffffffffffffffffff168173ffffffffffffffffffffffffffffffffffffffff16036107bb575f6040517f1e4fbdf70000000000000000000000000000000000000000000000000000000081526004016107b291906112c5565b60405180910390fd5b6107c481610b81565b50565b6107cf61069f565b15610806576040517fd93c066500000000000000000000000000000000000000000000000000000000815260040160405180910390fd5b565b600260015403610844576040517f3ee5aeb500000000000000000000000000000000000000000000000000000000815260040160405180910390fd5b6002600181905550565b5f5f5f1b825f013503610863575f905061089d565b5f5f1b826020013503610878575f905061089d565b5f828060a0019061088991906114e8565b905003610898575f905061089d565b600190505b919050565b5f8282905067ffffffffffffffff8111156108c0576108bf611554565b5b6040519080825280602002602001820160405280156108f957816020015b6108e6610d23565b8152602001906001900390816108de5790505b5090505f5f90505b838390508110156109eb57604051806080016040528085858481811061092a57610929611bce565b5b9050608002015f0160208101906109419190611258565b73ffffffffffffffffffffffffffffffffffffffff16815260200185858481811061096f5761096e611bce565b5b90506080020160200135815260200185858481811061099157610990611bce565b5b9050608002016040013581526020018585848181106109b3576109b2611bce565b5b905060800201606001358152508282815181106109d3576109d2611bce565b5b60200260200101819052508080600101915050610901565b5060045f9054906101000a900473ffffffffffffffffffffffffffffffffffffffff1673ffffffffffffffffffffffffffffffffffffffff1663d3bea3f4855f013583878060a00190610a3e91906114e8565b6040518563ffffffff1660e01b8152600401610a5d9493929190611d3f565b5f604051808303815f87803b158015610a74575f5ffd5b505af1158015610a86573d5f5f3e3d5ffd5b5050505050505050565b60018081905550565b610aa1610ca4565b73ffffffffffffffffffffffffffffffffffffffff16610abf6106f6565b73ffffffffffffffffffffffffffffffffffffffff1614610b1e57610ae2610ca4565b6040517f118cdaa7000000000000000000000000000000000000000000000000000000008152600401610b1591906112c5565b60405180910390fd5b565b610b28610cab565b5f5f60146101000a81548160ff0219169083151502179055507f5db9ee0a495bf2e6ff9c91a7834c1ba4fdd244a5e8aa4e537bd38aeae4b073aa610b6a610ca4565b604051610b7791906112c5565b60405180910390a1565b5f5f5f9054906101000a900473ffffffffffffffffffffffffffffffffffffffff169050815f5f6101000a81548173ffffffffffffffffffffffffffffffffffffffff021916908373ffffffffffffffffffffffffffffffffffffffff1602179055508173ffffffffffffffffffffffffffffffffffffffff168173ffffffffffffffffffffffffffffffffffffffff167f8be0079c531659141344cd1fd0a4f28419497f9722a3daafe3b4186f6b6457e060405160405180910390a35050565b610c4a6107c7565b60015f60146101000a81548160ff0219169083151502179055507f62e78cea01bee320cd4e420270b5ea74000d11b0c9f74754ebdbfc544b05a258610c8d610ca4565b604051610c9a91906112c5565b60405180910390a1565b5f33905090565b610cb361069f565b610ce9576040517f8dfc202b00000000000000000000000000000000000000000000000000000000815260040160405180910390fd5b565b6040518060e001604052805f81526020015f81526020015f81526020015f81526020015f815260200160608152602001606081525090565b60405180608001604052805f73ffffffffffffffffffffffffffffffffffffffff1681526020015f81526020015f81526020015f81525090565b5f5ffd5b5f5ffd5b5f819050919050565b610d7781610d65565b8114610d81575f5ffd5b50565b5f81359050610d9281610d6e565b92915050565b5f60208284031215610dad57610dac610d5d565b5b5f610dba84828501610d84565b91505092915050565b610dcc81610d65565b82525050565b5f819050919050565b610de481610dd2565b82525050565b5f81519050919050565b5f82825260208201905092915050565b8281835e5f83830152505050565b5f601f19601f8301169050919050565b5f610e2c82610dea565b610e368185610df4565b9350610e46818560208601610e04565b610e4f81610e12565b840191505092915050565b5f81519050919050565b5f82825260208201905092915050565b5f819050602082019050919050565b5f610e8e8383610dc3565b60208301905092915050565b5f602082019050919050565b5f610eb082610e5a565b610eba8185610e64565b9350610ec583610e74565b805f5b83811015610ef5578151610edc8882610e83565b9750610ee783610e9a565b925050600181019050610ec8565b5085935050505092915050565b5f60e083015f830151610f175f860182610dc3565b506020830151610f2a6020860182610dc3565b506040830151610f3d6040860182610ddb565b506060830151610f506060860182610ddb565b506080830151610f636080860182610ddb565b5060a083015184820360a0860152610f7b8282610e22565b91505060c083015184820360c0860152610f958282610ea6565b9150508091505092915050565b5f6020820190508181035f830152610fba8184610f02565b905092915050565b610fcb81610d65565b82525050565b610fda81610dd2565b82525050565b5f82825260208201905092915050565b5f610ffa82610dea565b6110048185610fe0565b9350611014818560208601610e04565b61101d81610e12565b840191505092915050565b5f60c08201905061103b5f830189610fc2565b6110486020830188610fc2565b6110556040830187610fd1565b6110626060830186610fd1565b61106f6080830185610fd1565b81810360a08301526110818184610ff0565b9050979650505050505050565b5f5ffd5b5f60e082840312156110a7576110a661108e565b5b81905092915050565b5f5ffd5b5f5ffd5b5f5ffd5b5f5f83601f8401126110d1576110d06110b0565b5b8235905067ffffffffffffffff8111156110ee576110ed6110b4565b5b60208301915083608082028301111561110a576111096110b8565b5b9250929050565b5f5f5f6040848603121561112857611127610d5d565b5b5f84013567ffffffffffffffff81111561114557611144610d61565b5b61115186828701611092565b935050602084013567ffffffffffffffff81111561117257611171610d61565b5b61117e868287016110bc565b92509250509250925092565b5f73ffffffffffffffffffffffffffffffffffffffff82169050919050565b5f819050919050565b5f6111cc6111c76111c28461118a565b6111a9565b61118a565b9050919050565b5f6111dd826111b2565b9050919050565b5f6111ee826111d3565b9050919050565b6111fe816111e4565b82525050565b5f6020820190506112175f8301846111f5565b92915050565b5f6112278261118a565b9050919050565b6112378161121d565b8114611241575f5ffd5b50565b5f813590506112528161122e565b92915050565b5f6020828403121561126d5761126c610d5d565b5b5f61127a84828501611244565b91505092915050565b5f8115159050919050565b61129781611283565b82525050565b5f6020820190506112b05f83018461128e565b92915050565b6112bf8161121d565b82525050565b5f6020820190506112d85f8301846112b6565b92915050565b7f4e487b71000000000000000000000000000000000000000000000000000000005f52602260045260245ffd5b5f600282049050600182168061132257607f821691505b602082108103611335576113346112de565b5b50919050565b5f82825260208201905092915050565b7f57696c6c20616c726561647920657865637574656400000000000000000000005f82015250565b5f61137f60158361133b565b915061138a8261134b565b602082019050919050565b5f6020820190508181035f8301526113ac81611373565b9050919050565b5f81356113bf81610d6e565b80915050919050565b5f815f1b9050919050565b5f7fffffffffffffffffffffffffffffffffffffffffffffffffffffffffffffffff6113fe846113c8565b9350801983169250808416831791505092915050565b5f61141e82610d65565b9050919050565b5f815f1c9050919050565b5f61143a82611425565b9050919050565b61144a82611414565b61145d61145682611430565b83546113d3565b8255505050565b61146d81610dd2565b8114611477575f5ffd5b50565b5f813561148681611464565b80915050919050565b5f6114a96114a461149f84610dd2565b6111a9565b610dd2565b9050919050565b5f819050919050565b6114c28261148f565b6114d56114ce826114b0565b83546113d3565b8255505050565b5f5ffd5b5f5ffd5b5f5ffd5b5f5f83356001602003843603038112611504576115036114dc565b5b80840192508235915067ffffffffffffffff821115611526576115256114e0565b5b602083019250600182023603831315611542576115416114e4565b5b509250929050565b5f82905092915050565b7f4e487b71000000000000000000000000000000000000000000000000000000005f52604160045260245ffd5b5f819050815f5260205f209050919050565b5f6020601f8301049050919050565b5f82821b905092915050565b5f600883026115dd7fffffffffffffffffffffffffffffffffffffffffffffffffffffffffffffffff826115a2565b6115e786836115a2565b95508019841693508086168417925050509392505050565b6116088361148f565b61161c611614826114b0565b8484546115ae565b825550505050565b5f5f905090565b611633611624565b61163e8184846115ff565b505050565b5b81811015611661576116565f8261162b565b600181019050611644565b5050565b601f8211156116a65761167781611581565b61168084611593565b8101602085101561168f578190505b6116a361169b85611593565b830182611643565b50505b505050565b5f82821c905092915050565b5f6116c65f19846008026116ab565b1980831691505092915050565b5f6116de83836116b7565b9150826002028217905092915050565b6116f8838361154a565b67ffffffffffffffff81111561171157611710611554565b5b61171b825461130b565b611726828285611665565b5f601f831160018114611753575f8415611741578287013590505b61174b85826116d3565b8655506117b2565b601f19841661176186611581565b5f5b8281101561178857848901358255600182019150602085019450602081019050611763565b868310156117a557848901356117a1601f8916826116b7565b8355505b6001600288020188555050505b50505050505050565b6117c68383836116ee565b505050565b5f5f833560016020038436030381126117e7576117e66114dc565b5b80840192508235915067ffffffffffffffff821115611809576118086114e0565b5b602083019250602082023603831315611825576118246114e4565b5b509250929050565b5f81549050919050565b5f8190506001806001038301049050919050565b5f819050815f5260205f209050919050565b61186683611414565b61187a61187282611430565b8484546115ae565b825550505050565b5f5f905090565b611891611882565b61189c81848461185d565b505050565b5b818110156118bf576118b45f82611889565b6001810190506118a2565b5050565b818310156118fc576118d482611837565b6118dd84611837565b6118e68361184b565b8181018382016118f681836118a1565b50505050505b505050565b6801000000000000000082111561191b5761191a611554565b5b6119248161182d565b8282556119328382846118c3565b505050565b5f82905092915050565b5f819050919050565b6119548383611937565b67ffffffffffffffff81111561196d5761196c611554565b5b6119778183611901565b61198083611941565b6119898361184b565b600183045f5b818110156119c6575f6119a1856113b3565b6119aa81611430565b809250602087019650505080828501555060018101905061198f565b5050505050505050565b6119db83838361194a565b505050565b5f81015f8301806119f0816113b3565b90506119fc8184611441565b505050600181016020830180611a11816113b3565b9050611a1d8184611441565b505050600281016040830180611a328161147a565b9050611a3e81846114b9565b505050600381016060830180611a538161147a565b9050611a5f81846114b9565b505050600481016080830180611a748161147a565b9050611a8081846114b9565b5050506005810160a08301611a9581856114e8565b611aa08183866117bb565b505050506006810160c08301611ab681856117cb565b611ac18183866119d0565b505050505050565b611ad382826119e0565b5050565b5f602082019050611aea5f830184610fd1565b92915050565b7f496e76616c69642070726f6f66000000000000000000000000000000000000005f82015250565b5f611b24600d8361133b565b9150611b2f82611af0565b602082019050919050565b5f6040820190508181035f830152611b5181611b18565b9050611b606020830184610fd1565b92915050565b7f496e76616c69642077696c6c2070726f6f6600000000000000000000000000005f82015250565b5f611b9a60128361133b565b9150611ba582611b66565b602082019050919050565b5f6020820190508181035f830152611bc781611b8e565b9050919050565b7f4e487b71000000000000000000000000000000000000000000000000000000005f52603260045260245ffd5b5f81519050919050565b5f82825260208201905092915050565b5f819050602082019050919050565b611c2d8161121d565b82525050565b608082015f820151611c475f850182611c24565b506020820151611c5a6020850182610ddb565b506040820151611c6d6040850182610ddb565b506060820151611c806060850182610ddb565b50505050565b5f611c918383611c33565b60808301905092915050565b5f602082019050919050565b5f611cb382611bfb565b611cbd8185611c05565b9350611cc883611c15565b805f5b83811015611cf8578151611cdf8882611c86565b9750611cea83611c9d565b925050600181019050611ccb565b5085935050505092915050565b828183375f83830152505050565b5f611d1e8385610fe0565b9350611d2b838584611d05565b611d3483610e12565b840190509392505050565b5f606082019050611d525f830187610fc2565b8181036020830152611d648186611ca9565b90508181036040830152611d79818486611d13565b90509594505050505056fea2646970667358221220684b363be0d16516f1baf1f81f6d482dd77bc0ec77d3401966d8f87af135b1f164736f6c634300081c0033","linkReferences":{}},"methodIdentifiers":{"aztecExecutor()":"186866c6","executedWills(bytes32)":"7929da9d","getWillProof(bytes32)":"015e84a0","isWillExecuted(bytes32)":"96965ce3","owner()":"8da5cb5b","pause()":"8456cb59","paused()":"5c975abb","renounceOwnership()":"715018a6","setAztecExecutor(address)":"20b3fbd0","submitWillProof((bytes32,bytes32,uint256,uint256,uint256,bytes,bytes32[]),(address,uint256,uint256,uint256)[])":"0d3533fe","transferOwnership(address)":"f2fde38b","unpause()":"3f4ba83a","willProofs(bytes32)":"0372e51d"},"id":36}