{"abi":[{"type":"constructor","inputs":[{"name":"_aztecExecutor","type":"address","internalType":"address"},{"name":"_l1Heartbeat","type":"address","internalType":"address"},{"name":"_minConfirmations","type":"uint256","internalType":"uint256"}],"stateMutability":"nonpayable"},{"type":"function","name":"authorizedBridges","inputs":[{"name":"","type":"address","internalType":"address"}],"outputs":[{"name":"","type":"bool","internalType":"bool"}],"stateMutability":"view"},{"type":"function","name":"aztecExecutor","inputs":[],"outputs":[{"name":"","type":"address","internalType":"address"}],"stateMutability":"view"},{"type":"function","name":"batchProcessInactivityFinalizations","inputs":[{"name":"commitments","type":"bytes32[]","internalType":"bytes32[]"},{"name":"blockNumbers","type":"uint256[]","internalType":"uint256[]"},{"name":"blockHashes","type":"bytes32[]","internalType":"bytes32[]"}],"outputs":[],"stateMutability":"nonpayable"},{"type":"function","name":"emergencyEnableExecution","inputs":[{"name":"willCommitment","type":"bytes32","internalType":"bytes32"}],"outputs":[],"stateMutability":"nonpayable"},{"type":"function","name":"getBridgeConfig","inputs":[],"outputs":[{"name":"_aztecExecutor","type":"address","internalType":"address"},{"name":"_l1Heartbeat","type":"address","internalType":"address"},{"name":"_minConfirmations","type":"uint256","internalType":"uint256"}],"stateMutability":"view"},{"type":"function","name":"isAuthorizedBridge","inputs":[{"name":"bridge","type":"address","internalType":"address"}],"outputs":[{"name":"","type":"bool","internalType":"bool"}],"stateMutability":"view"},{"type":"function","name":"isProcessed","inputs":[{"name":"willCommitment","type":"bytes32","internalType":"bytes32"}],"outputs":[{"name":"","type":"bool","internalType":"bool"}],"stateMutability":"view"},{"type":"function","name":"l1Heartbeat","inputs":[],"outputs":[{"name":"","type":"address","internalType":"address"}],"stateMutability":"view"},{"type":"function","name":"minConfirmations","inputs":[],"outputs":[{"name":"","type":"uint256","internalType":"uint256"}],"stateMutability":"view"},{"type":"function","name":"owner","inputs":[],"outputs":[{"name":"","type":"address","internalType":"address"}],"stateMutability":"view"},{"type":"function","name":"pause","inputs":[],"outputs":[],"stateMutability":"nonpayable"},{"type":"function","name":"paused","inputs":[],"outputs":[{"name":"","type":"bool","internalType":"bool"}],"stateMutability":"view"},{"type":"function","name":"processedCommitments","inputs":[{"name":"","type":"bytes32","internalType":"bytes32"}],"outputs":[{"name":"","type":"bool","internalType":"bool"}],"stateMutability":"view"},{"type":"function","name":"renounceOwnership","inputs":[],"outputs":[],"stateMutability":"nonpayable"},{"type":"function","name":"setBridgeAuthorization","inputs":[{"name":"bridge","type":"address","internalType":"address"},{"name":"authorized","type":"bool","internalType":"bool"}],"outputs":[],"stateMutability":"nonpayable"},{"type":"function","name":"transferOwnership","inputs":[{"name":"newOwner","type":"address","internalType":"address"}],"outputs":[],"stateMutability":"nonpayable"},{"type":"function","name":"unpause","inputs":[],"outputs":[],"stateMutability":"nonpayable"},{"type":"event","name":"AztecExecutionEnabled","inputs":[{"name":"willCommitment","type":"bytes32","indexed":true,"internalType":"bytes32"},{"name":"l1Heartbeat","type":"address","indexed":true,"internalType":"address"},{"name":"timestamp","type":"uint256","indexed":false,"internalType":"uint256"}],"anonymous":false},{"type":"event","name":"BridgeAuthorized","inputs":[{"name":"bridge","type":"address","indexed":true,"internalType":"address"},{"name":"authorized","type":"bool","indexed":false,"internalType":"bool"},{"name":"timestamp","type":"uint256","indexed":false,"internalType":"uint256"}],"anonymous":false},{"type":"event","name":"OwnershipTransferred","inputs":[{"name":"previousOwner","type":"address","indexed":true,"internalType":"address"},{"name":"newOwner","type":"address","indexed":true,"internalType":"address"}],"anonymous":false},{"type":"event","name":"Paused","inputs":[{"name":"account","type":"address","indexed":false,"internalType":"address"}],"anonymous":false},{"type":"event","name":"Unpaused","inputs":[{"name":"account","type":"address","indexed":false,"internalType":"address"}],"anonymous":false},{"type":"error","name":"BridgeNotAuthorized","inputs":[]},{"type":"error","name":"EnforcedPause","inputs":[]},{"type":"error","name":"ExecutionAlreadyEnabled","inputs":[]},{"type":"error","name":"ExpectedPause","inputs":[]},{"type":"error","name":"InvalidAztecExecutor","inputs":[]},{"type":"error","name":"InvalidL1Heartbeat","inputs":[]},{"type":"error","name":"OwnableInvalidOwner","inputs":[{"name":"owner","type":"address","internalType":"address"}]},{"type":"error","name":"OwnableUnauthorizedAccount","inputs":[{"name":"account","type":"address","internalType":"address"}]},{"type":"error","name":"WillNotRegistered","inputs":[]}],"bytecode":{"object":"0x60e060405234801561000f575f5ffd5b5060405161158b38038061158b833981810160405281019061003191906103dc565b335f73ffffffffffffffffffffffffffffffffffffffff168173ffffffffffffffffffffffffffffffffffffffff16036100a2575f6040517f1e4fbdf7000000000000000000000000000000000000000000000000000000008152600401610099919061043b565b60405180910390fd5b6100b18161028a60201b60201c565b505f73ffffffffffffffffffffffffffffffffffffffff168373ffffffffffffffffffffffffffffffffffffffff1603610117576040517ffd3a92c500000000000000000000000000000000000000000000000000000000815260040160405180910390fd5b5f73ffffffffffffffffffffffffffffffffffffffff168273ffffffffffffffffffffffffffffffffffffffff160361017c576040517f8ab4015000000000000000000000000000000000000000000000000000000000815260040160405180910390fd5b5f81036101be576040517f08c379a00000000000000000000000000000000000000000000000000000000081526004016101b5906104ae565b60405180910390fd5b8273ffffffffffffffffffffffffffffffffffffffff1660808173ffffffffffffffffffffffffffffffffffffffff16815250508173ffffffffffffffffffffffffffffffffffffffff1660a08173ffffffffffffffffffffffffffffffffffffffff16815250508060c081815250506001805f3373ffffffffffffffffffffffffffffffffffffffff1673ffffffffffffffffffffffffffffffffffffffff1681526020019081526020015f205f6101000a81548160ff0219169083151502179055505050506104cc565b5f5f5f9054906101000a900473ffffffffffffffffffffffffffffffffffffffff169050815f5f6101000a81548173ffffffffffffffffffffffffffffffffffffffff021916908373ffffffffffffffffffffffffffffffffffffffff1602179055508173ffffffffffffffffffffffffffffffffffffffff168173ffffffffffffffffffffffffffffffffffffffff167f8be0079c531659141344cd1fd0a4f28419497f9722a3daafe3b4186f6b6457e060405160405180910390a35050565b5f5ffd5b5f73ffffffffffffffffffffffffffffffffffffffff82169050919050565b5f6103788261034f565b9050919050565b6103888161036e565b8114610392575f5ffd5b50565b5f815190506103a38161037f565b92915050565b5f819050919050565b6103bb816103a9565b81146103c5575f5ffd5b50565b5f815190506103d6816103b2565b92915050565b5f5f5f606084860312156103f3576103f261034b565b5b5f61040086828701610395565b935050602061041186828701610395565b9250506040610422868287016103c8565b9150509250925092565b6104358161036e565b82525050565b5f60208201905061044e5f83018461042c565b92915050565b5f82825260208201905092915050565b7f496e76616c6964206d696e20636f6e6669726d6174696f6e73000000000000005f82015250565b5f610498601983610454565b91506104a382610464565b602082019050919050565b5f6020820190508181035f8301526104c58161048c565b9050919050565b60805160a05160c0516110646105275f395f818161076701528181610793015261088401525f8181610541015281816106fe01528181610746015281816108ef015261093b01525f818161038b015261072501526110645ff3fe608060405234801561000f575f5ffd5b5060043610610109575f3560e01c80636fc063be116100a05780638da5cb5b1161006f5780638da5cb5b1461027b578063e240270a14610299578063e779e226146102b7578063e7c4393e146102d7578063f2fde38b146102f557610109565b80636fc063be1461021b578063715018a61461024b5780637ccd89e6146102555780638456cb591461027157610109565b80633f4ba83a116100dc5780633f4ba83a146101a7578063478cad5f146101b15780635aa2489c146101cd5780635c975abb146101fd57610109565b806305004d491461010d57806311c168961461013d578063186866c61461016d578063275c87bc1461018b575b5f5ffd5b61012760048036038101906101229190610c62565b610311565b6040516101349190610ca7565b60405180910390f35b61015760048036038101906101529190610cf3565b610363565b6040516101649190610ca7565b60405180910390f35b610175610389565b6040516101829190610d2d565b60405180910390f35b6101a560048036038101906101a09190610dfc565b6103ad565b005b6101af6104d5565b005b6101cb60048036038101906101c69190610cf3565b6104e7565b005b6101e760048036038101906101e29190610cf3565b6105b1565b6040516101f49190610ca7565b60405180910390f35b6102056105ce565b6040516102129190610ca7565b60405180910390f35b61023560048036038101906102309190610c62565b6105e3565b6040516102429190610ca7565b60405180910390f35b610253610600565b005b61026f600480360381019061026a9190610ed6565b610613565b005b6102796106c3565b005b6102836106d5565b6040516102909190610d2d565b60405180910390f35b6102a16106fc565b6040516102ae9190610d2d565b60405180910390f35b6102bf610720565b6040516102ce93929190610f2c565b60405180910390f35b6102df610791565b6040516102ec9190610f61565b60405180910390f35b61030f600480360381019061030a9190610c62565b6107b5565b005b5f60015f8373ffffffffffffffffffffffffffffffffffffffff1673ffffffffffffffffffffffffffffffffffffffff1681526020019081526020015f205f9054906101000a900460ff169050919050565b5f60025f8381526020019081526020015f205f9054906101000a900460ff169050919050565b7f000000000000000000000000000000000000000000000000000000000000000081565b60015f3373ffffffffffffffffffffffffffffffffffffffff1673ffffffffffffffffffffffffffffffffffffffff1681526020019081526020015f205f9054906101000a900460ff1661042d576040517f882eec1200000000000000000000000000000000000000000000000000000000815260040160405180910390fd5b610435610839565b83839050868690501415806104505750818190508686905014155b15610459575f5ffd5b5f5f90505b868690508110156104cc576104bf87878381811061047f5761047e610f7a565b5b9050602002013586868481811061049957610498610f7a565b5b905060200201358585858181106104b3576104b2610f7a565b5b9050602002013561087a565b808060010191505061045e565b50505050505050565b6104dd6109ae565b6104e5610a35565b565b6104ef6109ae565b60025f8281526020019081526020015f205f9054906101000a900460ff1615610516575f5ffd5b600160025f8381526020019081526020015f205f6101000a81548160ff0219169083151502179055507f000000000000000000000000000000000000000000000000000000000000000073ffffffffffffffffffffffffffffffffffffffff16817f5498bb6470d2d7a203e968cefbaa881d315e7c5036dfbac3479f0641f6ae3e5d426040516105a69190610f61565b60405180910390a350565b6002602052805f5260405f205f915054906101000a900460ff1681565b5f5f60149054906101000a900460ff16905090565b6001602052805f5260405f205f915054906101000a900460ff1681565b6106086109ae565b6106115f610a96565b565b61061b6109ae565b8060015f8473ffffffffffffffffffffffffffffffffffffffff1673ffffffffffffffffffffffffffffffffffffffff1681526020019081526020015f205f6101000a81548160ff0219169083151502179055508173ffffffffffffffffffffffffffffffffffffffff167ff04c07d94d9feb8f5516d9947d0df6e0400e8b16df514b1ab3561e86ac9d208982426040516106b7929190610fa7565b60405180910390a25050565b6106cb6109ae565b6106d3610b57565b565b5f5f5f9054906101000a900473ffffffffffffffffffffffffffffffffffffffff16905090565b7f000000000000000000000000000000000000000000000000000000000000000081565b5f5f5f7f00000000000000000000000000000000000000000000000000000000000000007f00000000000000000000000000000000000000000000000000000000000000007f0000000000000000000000000000000000000000000000000000000000000000925092509250909192565b7f000000000000000000000000000000000000000000000000000000000000000081565b6107bd6109ae565b5f73ffffffffffffffffffffffffffffffffffffffff168173ffffffffffffffffffffffffffffffffffffffff160361082d575f6040517f1e4fbdf70000000000000000000000000000000000000000000000000000000081526004016108249190610d2d565b60405180910390fd5b61083681610a96565b50565b6108416105ce565b15610878576040517fd93c066500000000000000000000000000000000000000000000000000000000815260040160405180910390fd5b565b610882610839565b7f0000000000000000000000000000000000000000000000000000000000000000826108ae9190610ffb565b4310156108b9575f5ffd5b808240146108c5575f5ffd5b60025f8481526020019081526020015f205f9054906101000a900460ff16156108ec575f5ffd5b5f7f00000000000000000000000000000000000000000000000000000000000000009050600160025f8681526020019081526020015f205f6101000a81548160ff0219169083151502179055507f000000000000000000000000000000000000000000000000000000000000000073ffffffffffffffffffffffffffffffffffffffff16847f5498bb6470d2d7a203e968cefbaa881d315e7c5036dfbac3479f0641f6ae3e5d426040516109a09190610f61565b60405180910390a350505050565b6109b6610bb9565b73ffffffffffffffffffffffffffffffffffffffff166109d46106d5565b73ffffffffffffffffffffffffffffffffffffffff1614610a33576109f7610bb9565b6040517f118cdaa7000000000000000000000000000000000000000000000000000000008152600401610a2a9190610d2d565b60405180910390fd5b565b610a3d610bc0565b5f5f60146101000a81548160ff0219169083151502179055507f5db9ee0a495bf2e6ff9c91a7834c1ba4fdd244a5e8aa4e537bd38aeae4b073aa610a7f610bb9565b604051610a8c9190610d2d565b60405180910390a1565b5f5f5f9054906101000a900473ffffffffffffffffffffffffffffffffffffffff169050815f5f6101000a81548173ffffffffffffffffffffffffffffffffffffffff021916908373ffffffffffffffffffffffffffffffffffffffff1602179055508173ffffffffffffffffffffffffffffffffffffffff168173ffffffffffffffffffffffffffffffffffffffff167f8be0079c531659141344cd1fd0a4f28419497f9722a3daafe3b4186f6b6457e060405160405180910390a35050565b610b5f610839565b60015f60146101000a81548160ff0219169083151502179055507f62e78cea01bee320cd4e420270b5ea74000d11b0c9f74754ebdbfc544b05a258610ba2610bb9565b604051610baf9190610d2d565b60405180910390a1565b5f33905090565b610bc86105ce565b610bfe576040517f8dfc202b00000000000000000000000000000000000000000000000000000000815260040160405180910390fd5b565b5f5ffd5b5f5ffd5b5f73ffffffffffffffffffffffffffffffffffffffff82169050919050565b5f610c3182610c08565b9050919050565b610c4181610c27565b8114610c4b575f5ffd5b50565b5f81359050610c5c81610c38565b92915050565b5f60208284031215610c7757610c76610c00565b5b5f610c8484828501610c4e565b91505092915050565b5f8115159050919050565b610ca181610c8d565b82525050565b5f602082019050610cba5f830184610c98565b92915050565b5f819050919050565b610cd281610cc0565b8114610cdc575f5ffd5b50565b5f81359050610ced81610cc9565b92915050565b5f60208284031215610d0857610d07610c00565b5b5f610d1584828501610cdf565b91505092915050565b610d2781610c27565b82525050565b5f602082019050610d405f830184610d1e565b92915050565b5f5ffd5b5f5ffd5b5f5ffd5b5f5f83601f840112610d6757610d66610d46565b5b8235905067ffffffffffffffff811115610d8457610d83610d4a565b5b602083019150836020820283011115610da057610d9f610d4e565b5b9250929050565b5f5f83601f840112610dbc57610dbb610d46565b5b8235905067ffffffffffffffff811115610dd957610dd8610d4a565b5b602083019150836020820283011115610df557610df4610d4e565b5b9250929050565b5f5f5f5f5f5f60608789031215610e1657610e15610c00565b5b5f87013567ffffffffffffffff811115610e3357610e32610c04565b5b610e3f89828a01610d52565b9650965050602087013567ffffffffffffffff811115610e6257610e61610c04565b5b610e6e89828a01610da7565b9450945050604087013567ffffffffffffffff811115610e9157610e90610c04565b5b610e9d89828a01610d52565b92509250509295509295509295565b610eb581610c8d565b8114610ebf575f5ffd5b50565b5f81359050610ed081610eac565b92915050565b5f5f60408385031215610eec57610eeb610c00565b5b5f610ef985828601610c4e565b9250506020610f0a85828601610ec2565b9150509250929050565b5f819050919050565b610f2681610f14565b82525050565b5f606082019050610f3f5f830186610d1e565b610f4c6020830185610d1e565b610f596040830184610f1d565b949350505050565b5f602082019050610f745f830184610f1d565b92915050565b7f4e487b71000000000000000000000000000000000000000000000000000000005f52603260045260245ffd5b5f604082019050610fba5f830185610c98565b610fc76020830184610f1d565b9392505050565b7f4e487b71000000000000000000000000000000000000000000000000000000005f52601160045260245ffd5b5f61100582610f14565b915061101083610f14565b925082820190508082111561102857611027610fce565b5b9291505056fea26469706673582212200b85fe87c2879850127e96f175d65983c1dfae26378e914601e4e831efb5512064736f6c634300081c0033","linkReferences":{}},"methodIdentifiers":{"authorizedBridges(address)":"6fc063be","aztecExecutor()":"186866c6","batchProcessInactivityFinalizations(bytes32[],uint256[],bytes32[])":"275c87bc","emergencyEnableExecution(bytes32)":"478cad5f","getBridgeConfig()":"e779e226","isAuthorizedBridge(address)":"05004d49","isProcessed(bytes32)":"11c16896","l1Heartbeat()":"e240270a","minConfirmations()":"e7c4393e","owner()":"8da5cb5b","pause()":"8456cb59","paused()":"5c975abb","processedCommitments(bytes32)":"5aa2489c","renounceOwnership()":"715018a6","setBridgeAuthorization(address,bool)":"7ccd89e6","transferOwnership(address)":"f2fde38b","unpause()":"3f4ba83a"},"id":32}