{"abi":[{"type":"constructor","inputs":[{"name":"_inactivityPeriod","type":"uint256","internalType":"uint256"},{"name":"_gracePeriod","type":"uint256","internalType":"uint256"},{"name":"_vetoMembers","type":"address[]","internalType":"address[]"},{"name":"_vetoThreshold","type":"uint256","internalType":"uint256"}],"stateMutability":"nonpayable"},{"type":"function","name":"checkIn","inputs":[],"outputs":[],"stateMutability":"nonpayable"},{"type":"function","name":"finalizeInactivity","inputs":[{"name":"willCommitment","type":"bytes32","internalType":"bytes32"}],"outputs":[],"stateMutability":"nonpayable"},{"type":"function","name":"getVetoMembers","inputs":[],"outputs":[{"name":"","type":"address[]","internalType":"address[]"}],"stateMutability":"view"},{"type":"function","name":"gracePeriod","inputs":[],"outputs":[{"name":"","type":"uint256","internalType":"uint256"}],"stateMutability":"view"},{"type":"function","name":"graceStart","inputs":[],"outputs":[{"name":"","type":"uint256","internalType":"uint256"}],"stateMutability":"view"},{"type":"function","name":"hasVetoed","inputs":[{"name":"","type":"address","internalType":"address"}],"outputs":[{"name":"","type":"bool","internalType":"bool"}],"stateMutability":"view"},{"type":"function","name":"inactiveFinalized","inputs":[],"outputs":[{"name":"","type":"bool","internalType":"bool"}],"stateMutability":"view"},{"type":"function","name":"inactivityPeriod","inputs":[],"outputs":[{"name":"","type":"uint256","internalType":"uint256"}],"stateMutability":"view"},{"type":"function","name":"isVetoMember","inputs":[{"name":"","type":"address","internalType":"address"}],"outputs":[{"name":"","type":"bool","internalType":"bool"}],"stateMutability":"view"},{"type":"function","name":"lastCheckIn","inputs":[],"outputs":[{"name":"","type":"uint256","internalType":"uint256"}],"stateMutability":"view"},{"type":"function","name":"owner","inputs":[],"outputs":[{"name":"","type":"address","internalType":"address"}],"stateMutability":"view"},{"type":"function","name":"pause","inputs":[],"outputs":[],"stateMutability":"nonpayable"},{"type":"function","name":"paused","inputs":[],"outputs":[{"name":"","type":"bool","internalType":"bool"}],"stateMutability":"view"},{"type":"function","name":"renounceOwnership","inputs":[],"outputs":[],"stateMutability":"nonpayable"},{"type":"function","name":"transferOwnership","inputs":[{"name":"newOwner","type":"address","internalType":"address"}],"outputs":[],"stateMutability":"nonpayable"},{"type":"function","name":"triggerGracePeriod","inputs":[],"outputs":[],"stateMutability":"nonpayable"},{"type":"function","name":"unpause","inputs":[],"outputs":[],"stateMutability":"nonpayable"},{"type":"function","name":"veto","inputs":[],"outputs":[],"stateMutability":"nonpayable"},{"type":"function","name":"vetoCount","inputs":[],"outputs":[{"name":"","type":"uint256","internalType":"uint256"}],"stateMutability":"view"},{"type":"function","name":"vetoThreshold","inputs":[],"outputs":[{"name":"","type":"uint256","internalType":"uint256"}],"stateMutability":"view"},{"type":"event","name":"CheckIn","inputs":[{"name":"owner","type":"address","indexed":true,"internalType":"address"},{"name":"timestamp","type":"uint256","indexed":false,"internalType":"uint256"}],"anonymous":false},{"type":"event","name":"GraceStarted","inputs":[{"name":"startTime","type":"uint256","indexed":false,"internalType":"uint256"},{"name":"endTime","type":"uint256","indexed":false,"internalType":"uint256"}],"anonymous":false},{"type":"event","name":"InactiveFinalized","inputs":[{"name":"willCommitment","type":"bytes32","indexed":false,"internalType":"bytes32"},{"name":"timestamp","type":"uint256","indexed":false,"internalType":"uint256"}],"anonymous":false},{"type":"event","name":"OwnershipTransferred","inputs":[{"name":"previousOwner","type":"address","indexed":true,"internalType":"address"},{"name":"newOwner","type":"address","indexed":true,"internalType":"address"}],"anonymous":false},{"type":"event","name":"Paused","inputs":[{"name":"account","type":"address","indexed":false,"internalType":"address"}],"anonymous":false},{"type":"event","name":"Unpaused","inputs":[{"name":"account","type":"address","indexed":false,"internalType":"address"}],"anonymous":false},{"type":"event","name":"Veto","inputs":[{"name":"member","type":"address","indexed":true,"internalType":"address"},{"name":"timestamp","type":"uint256","indexed":false,"internalType":"uint256"}],"anonymous":false},{"type":"error","name":"AlreadyFinalized","inputs":[]},{"type":"error","name":"AlreadyVetoed","inputs":[]},{"type":"error","name":"DuplicateVetoMember","inputs":[]},{"type":"error","name":"EnforcedPause","inputs":[]},{"type":"error","name":"ExecutionVetoed","inputs":[]},{"type":"error","name":"ExpectedPause","inputs":[]},{"type":"error","name":"GraceAlreadyStarted","inputs":[]},{"type":"error","name":"GraceNotStarted","inputs":[]},{"type":"error","name":"GracePeriodOver","inputs":[]},{"type":"error","name":"GraceStillActive","inputs":[]},{"type":"error","name":"InvalidGracePeriod","inputs":[]},{"type":"error","name":"InvalidInactivityPeriod","inputs":[]},{"type":"error","name":"InvalidVetoThreshold","inputs":[]},{"type":"error","name":"NoVetoMembers","inputs":[]},{"type":"error","name":"NotVetoMember","inputs":[]},{"type":"error","name":"OwnableInvalidOwner","inputs":[{"name":"owner","type":"address","internalType":"address"}]},{"type":"error","name":"OwnableUnauthorizedAccount","inputs":[{"name":"account","type":"address","internalType":"address"}]},{"type":"error","name":"StillActive","inputs":[]},{"type":"error","name":"ZeroAddressVeto","inputs":[]}],"bytecode":{"object":"0x60e060405234801561000f575f5ffd5b5060405161188b38038061188b83398181016040528101906100319190610650565b335f73ffffffffffffffffffffffffffffffffffffffff168173ffffffffffffffffffffffffffffffffffffffff16036100a2575f6040517f1e4fbdf700000000000000000000000000000000000000000000000000000000815260040161009991906106df565b60405180910390fd5b6100b1816103a160201b60201c565b505f84036100eb576040517f306a915500000000000000000000000000000000000000000000000000000000815260040160405180910390fd5b5f8303610124576040517fd7c43e0f00000000000000000000000000000000000000000000000000000000815260040160405180910390fd5b5f82510361015e576040517f46cf4d7a00000000000000000000000000000000000000000000000000000000815260040160405180910390fd5b5f81148061016c5750815181115b156101a3576040517f73c7d45c00000000000000000000000000000000000000000000000000000000815260040160405180910390fd5b83608081815250508260a08181525050426001819055508060c081815250505f5f90505b8251811015610397575f8382815181106101e4576101e36106f8565b5b602002602001015190505f73ffffffffffffffffffffffffffffffffffffffff168173ffffffffffffffffffffffffffffffffffffffff1603610253576040517fa1924df300000000000000000000000000000000000000000000000000000000815260040160405180910390fd5b60045f8273ffffffffffffffffffffffffffffffffffffffff1673ffffffffffffffffffffffffffffffffffffffff1681526020019081526020015f205f9054906101000a900460ff16156102d4576040517f789ff14e00000000000000000000000000000000000000000000000000000000815260040160405180910390fd5b600160045f8373ffffffffffffffffffffffffffffffffffffffff1673ffffffffffffffffffffffffffffffffffffffff1681526020019081526020015f205f6101000a81548160ff021916908315150217905550600581908060018154018082558091505060019003905f5260205f20015f9091909190916101000a81548173ffffffffffffffffffffffffffffffffffffffff021916908373ffffffffffffffffffffffffffffffffffffffff1602179055505080806001019150506101c7565b5050505050610725565b5f5f5f9054906101000a900473ffffffffffffffffffffffffffffffffffffffff169050815f5f6101000a81548173ffffffffffffffffffffffffffffffffffffffff021916908373ffffffffffffffffffffffffffffffffffffffff1602179055508173ffffffffffffffffffffffffffffffffffffffff168173ffffffffffffffffffffffffffffffffffffffff167f8be0079c531659141344cd1fd0a4f28419497f9722a3daafe3b4186f6b6457e060405160405180910390a35050565b5f604051905090565b5f5ffd5b5f5ffd5b5f819050919050565b61048581610473565b811461048f575f5ffd5b50565b5f815190506104a08161047c565b92915050565b5f5ffd5b5f601f19601f8301169050919050565b7f4e487b71000000000000000000000000000000000000000000000000000000005f52604160045260245ffd5b6104f0826104aa565b810181811067ffffffffffffffff8211171561050f5761050e6104ba565b5b80604052505050565b5f610521610462565b905061052d82826104e7565b919050565b5f67ffffffffffffffff82111561054c5761054b6104ba565b5b602082029050602081019050919050565b5f5ffd5b5f73ffffffffffffffffffffffffffffffffffffffff82169050919050565b5f61058a82610561565b9050919050565b61059a81610580565b81146105a4575f5ffd5b50565b5f815190506105b581610591565b92915050565b5f6105cd6105c884610532565b610518565b905080838252602082019050602084028301858111156105f0576105ef61055d565b5b835b81811015610619578061060588826105a7565b8452602084019350506020810190506105f2565b5050509392505050565b5f82601f830112610637576106366104a6565b5b81516106478482602086016105bb565b91505092915050565b5f5f5f5f608085870312156106685761066761046b565b5b5f61067587828801610492565b945050602061068687828801610492565b935050604085015167ffffffffffffffff8111156106a7576106a661046f565b5b6106b387828801610623565b92505060606106c487828801610492565b91505092959194509250565b6106d981610580565b82525050565b5f6020820190506106f25f8301846106d0565b92915050565b7f4e487b71000000000000000000000000000000000000000000000000000000005f52603260045260245ffd5b60805160a05160c0516111196107725f395f8181610649015261072101525f818161048f015281816105e30152818161079101526108dc01525f81816103c301526107b501526111195ff3fe608060405234801561000f575f5ffd5b506004361061012a575f3560e01c8063715018a6116100ab578063db78dabd1161006f578063db78dabd1461028a578063e0b443c0146102a8578063e7f7b35b146102d8578063ef9b78c614610308578063f2fde38b146103125761012a565b8063715018a61461021c5780638456cb59146102265780638da5cb5b14610230578063a06db7dc1461024e578063d362bd2b1461026c5761012a565b80631a78c1a9116100f25780631a78c1a91461019c57806334cfc02d146101ba5780633f4ba83a146101d65780635c975abb146101e0578063614f427f146101fe5761012a565b8063035aa0541461012e57806306997bbb1461014c57806307da9ce21461015657806317bd7cac14610174578063183ff08514610192575b5f5ffd5b61013661032e565b6040516101439190610e7c565b60405180910390f35b6101546103b9565b005b61015e6104d3565b60405161016b9190610eb4565b60405180910390f35b61017c6104d9565b6040516101899190610ee7565b60405180910390f35b61019a6104eb565b005b6101a4610552565b6040516101b19190610eb4565b60405180910390f35b6101d460048036038101906101cf9190610f37565b610558565b005b6101de6106f8565b005b6101e861070a565b6040516101f59190610ee7565b60405180910390f35b61020661071f565b6040516102139190610eb4565b60405180910390f35b610224610743565b005b61022e610756565b005b610238610768565b6040516102459190610f71565b60405180910390f35b61025661078f565b6040516102639190610eb4565b60405180910390f35b6102746107b3565b6040516102819190610eb4565b60405180910390f35b6102926107d7565b60405161029f9190610eb4565b60405180910390f35b6102c260048036038101906102bd9190610fb4565b6107dd565b6040516102cf9190610ee7565b60405180910390f35b6102f260048036038101906102ed9190610fb4565b6107fa565b6040516102ff9190610ee7565b60405180910390f35b610310610817565b005b61032c60048036038101906103279190610fb4565b610a7e565b005b606060058054806020026020016040519081016040528092919081815260200182805480156103af57602002820191905f5260205f20905b815f9054906101000a900473ffffffffffffffffffffffffffffffffffffffff1673ffffffffffffffffffffffffffffffffffffffff1681526020019060010190808311610366575b5050505050905090565b6103c1610b02565b7f00000000000000000000000000000000000000000000000000000000000000006001546103ef919061100c565b4211610427576040517ff0b778da00000000000000000000000000000000000000000000000000000000815260040160405180910390fd5b5f60025414610462576040517f0290dced00000000000000000000000000000000000000000000000000000000815260040160405180910390fd5b426002819055507feaaa5950cfb0e7235b0707d8279cceafaed107c0a579264bc5af3a6447fed4196002547f00000000000000000000000000000000000000000000000000000000000000006002546104bb919061100c565b6040516104c992919061103f565b60405180910390a1565b60025481565b60035f9054906101000a900460ff1681565b6104f3610b43565b6104fb610b02565b426001819055503373ffffffffffffffffffffffffffffffffffffffff167fa864a8b988e604bb05d6ce75d53efabb5620c45b15380b7bd0c51dcfa71dda03426040516105489190610eb4565b60405180910390a2565b60065481565b610560610b02565b60035f9054906101000a900460ff16156105a6576040517f475a253500000000000000000000000000000000000000000000000000000000815260040160405180910390fd5b5f600254036105e1576040517f596fe98e00000000000000000000000000000000000000000000000000000000815260040160405180910390fd5b7f000000000000000000000000000000000000000000000000000000000000000060025461060f919061100c565b4211610647576040517f9324b8eb00000000000000000000000000000000000000000000000000000000815260040160405180910390fd5b7f0000000000000000000000000000000000000000000000000000000000000000600654106106a2576040517fcc7efdba00000000000000000000000000000000000000000000000000000000815260040160405180910390fd5b600160035f6101000a81548160ff0219169083151502179055507fcfd7cb9ef2a1bc8e3f991ea42c4a52f0da307ceed927f08e8f2b13180c420efe81426040516106ed929190611075565b60405180910390a150565b610700610b43565b610708610bca565b565b5f5f60149054906101000a900460ff16905090565b7f000000000000000000000000000000000000000000000000000000000000000081565b61074b610b43565b6107545f610c2b565b565b61075e610b43565b610766610cec565b565b5f5f5f9054906101000a900473ffffffffffffffffffffffffffffffffffffffff16905090565b7f000000000000000000000000000000000000000000000000000000000000000081565b7f000000000000000000000000000000000000000000000000000000000000000081565b60015481565b6007602052805f5260405f205f915054906101000a900460ff1681565b6004602052805f5260405f205f915054906101000a900460ff1681565b60045f3373ffffffffffffffffffffffffffffffffffffffff1673ffffffffffffffffffffffffffffffffffffffff1681526020019081526020015f205f9054906101000a900460ff16610897576040517f6aaca66f00000000000000000000000000000000000000000000000000000000815260040160405180910390fd5b61089f610b02565b5f600254036108da576040517f596fe98e00000000000000000000000000000000000000000000000000000000815260040160405180910390fd5b7f0000000000000000000000000000000000000000000000000000000000000000600254610908919061100c565b421115610941576040517f8150307e00000000000000000000000000000000000000000000000000000000815260040160405180910390fd5b60075f3373ffffffffffffffffffffffffffffffffffffffff1673ffffffffffffffffffffffffffffffffffffffff1681526020019081526020015f205f9054906101000a900460ff16156109c2576040517fe254bdce00000000000000000000000000000000000000000000000000000000815260040160405180910390fd5b600160075f3373ffffffffffffffffffffffffffffffffffffffff1673ffffffffffffffffffffffffffffffffffffffff1681526020019081526020015f205f6101000a81548160ff02191690831515021790555060065f815480929190610a299061109c565b91905055503373ffffffffffffffffffffffffffffffffffffffff167fc85c7d748c06e69f928fbb4c061b39c457c095fba03000d16b4a15180c98199842604051610a749190610eb4565b60405180910390a2565b610a86610b43565b5f73ffffffffffffffffffffffffffffffffffffffff168173ffffffffffffffffffffffffffffffffffffffff1603610af6575f6040517f1e4fbdf7000000000000000000000000000000000000000000000000000000008152600401610aed9190610f71565b60405180910390fd5b610aff81610c2b565b50565b610b0a61070a565b15610b41576040517fd93c066500000000000000000000000000000000000000000000000000000000815260040160405180910390fd5b565b610b4b610d4e565b73ffffffffffffffffffffffffffffffffffffffff16610b69610768565b73ffffffffffffffffffffffffffffffffffffffff1614610bc857610b8c610d4e565b6040517f118cdaa7000000000000000000000000000000000000000000000000000000008152600401610bbf9190610f71565b60405180910390fd5b565b610bd2610d55565b5f5f60146101000a81548160ff0219169083151502179055507f5db9ee0a495bf2e6ff9c91a7834c1ba4fdd244a5e8aa4e537bd38aeae4b073aa610c14610d4e565b604051610c219190610f71565b60405180910390a1565b5f5f5f9054906101000a900473ffffffffffffffffffffffffffffffffffffffff169050815f5f6101000a81548173ffffffffffffffffffffffffffffffffffffffff021916908373ffffffffffffffffffffffffffffffffffffffff1602179055508173ffffffffffffffffffffffffffffffffffffffff168173ffffffffffffffffffffffffffffffffffffffff167f8be0079c531659141344cd1fd0a4f28419497f9722a3daafe3b4186f6b6457e060405160405180910390a35050565b610cf4610b02565b60015f60146101000a81548160ff0219169083151502179055507f62e78cea01bee320cd4e420270b5ea74000d11b0c9f74754ebdbfc544b05a258610d37610d4e565b604051610d449190610f71565b60405180910390a1565b5f33905090565b610d5d61070a565b610d93576040517f8dfc202b00000000000000000000000000000000000000000000000000000000815260040160405180910390fd5b565b5f81519050919050565b5f82825260208201905092915050565b5f819050602082019050919050565b5f73ffffffffffffffffffffffffffffffffffffffff82169050919050565b5f610de782610dbe565b9050919050565b610df781610ddd565b82525050565b5f610e088383610dee565b60208301905092915050565b5f602082019050919050565b5f610e2a82610d95565b610e348185610d9f565b9350610e3f83610daf565b805f5b83811015610e6f578151610e568882610dfd565b9750610e6183610e14565b925050600181019050610e42565b5085935050505092915050565b5f6020820190508181035f830152610e948184610e20565b905092915050565b5f819050919050565b610eae81610e9c565b82525050565b5f602082019050610ec75f830184610ea5565b92915050565b5f8115159050919050565b610ee181610ecd565b82525050565b5f602082019050610efa5f830184610ed8565b92915050565b5f5ffd5b5f819050919050565b610f1681610f04565b8114610f20575f5ffd5b50565b5f81359050610f3181610f0d565b92915050565b5f60208284031215610f4c57610f4b610f00565b5b5f610f5984828501610f23565b91505092915050565b610f6b81610ddd565b82525050565b5f602082019050610f845f830184610f62565b92915050565b610f9381610ddd565b8114610f9d575f5ffd5b50565b5f81359050610fae81610f8a565b92915050565b5f60208284031215610fc957610fc8610f00565b5b5f610fd684828501610fa0565b91505092915050565b7f4e487b71000000000000000000000000000000000000000000000000000000005f52601160045260245ffd5b5f61101682610e9c565b915061102183610e9c565b925082820190508082111561103957611038610fdf565b5b92915050565b5f6040820190506110525f830185610ea5565b61105f6020830184610ea5565b9392505050565b61106f81610f04565b82525050565b5f6040820190506110885f830185611066565b6110956020830184610ea5565b9392505050565b5f6110a682610e9c565b91507fffffffffffffffffffffffffffffffffffffffffffffffffffffffffffffffff82036110d8576110d7610fdf565b5b60018201905091905056fea2646970667358221220986a4e3370ac20cd79377ced78c647c4493346683952638e052afe21b567774864736f6c634300081c0033","linkReferences":{}},"methodIdentifiers":{"checkIn()":"183ff085","finalizeInactivity(bytes32)":"34cfc02d","getVetoMembers()":"035aa054","gracePeriod()":"a06db7dc","graceStart()":"07da9ce2","hasVetoed(address)":"e0b443c0","inactiveFinalized()":"17bd7cac","inactivityPeriod()":"d362bd2b","isVetoMember(address)":"e7f7b35b","lastCheckIn()":"db78dabd","owner()":"8da5cb5b","pause()":"8456cb59","paused()":"5c975abb","renounceOwnership()":"715018a6","transferOwnership(address)":"f2fde38b","triggerGracePeriod()":"06997bbb","unpause()":"3f4ba83a","veto()":"ef9b78c6","vetoCount()":"1a78c1a9","vetoThreshold()":"614f427f"},"id":33}