{"abi":[{"type":"constructor","inputs":[{"name":"_minExecutionDelay","type":"uint256","internalType":"uint256"}],"stateMutability":"nonpayable"},{"type":"receive","stateMutability":"payable"},{"type":"function","name":"authorizedEnablers","inputs":[{"name":"","type":"address","internalType":"address"}],"outputs":[{"name":"","type":"bool","internalType":"bool"}],"stateMutability":"view"},{"type":"function","name":"canExecute","inputs":[{"name":"willCommitment","type":"bytes32","internalType":"bytes32"}],"outputs":[{"name":"","type":"bool","internalType":"bool"}],"stateMutability":"view"},{"type":"function","name":"enableExecution","inputs":[{"name":"willCommitment","type":"bytes32","internalType":"bytes32"}],"outputs":[],"stateMutability":"nonpayable"},{"type":"function","name":"executeWill","inputs":[{"name":"willCommitment","type":"bytes32","internalType":"bytes32"},{"name":"beneficiaries","type":"tuple[]","internalType":"struct AztecExecutor.BeneficiaryAllocation[]","components":[{"name":"beneficiary","type":"address","internalType":"address"},{"name":"ethAmount","type":"uint256","internalType":"uint256"},{"name":"usdcAmount","type":"uint256","internalType":"uint256"},{"name":"nftCount","type":"uint256","internalType":"uint256"}]},{"name":"proof","type":"bytes","internalType":"bytes"}],"outputs":[],"stateMutability":"nonpayable"},{"type":"function","name":"getRegisteredWills","inputs":[],"outputs":[{"name":"","type":"bytes32[]","internalType":"bytes32[]"}],"stateMutability":"view"},{"type":"function","name":"getVerificationKey","inputs":[{"name":"verificationKeyId","type":"bytes32","internalType":"bytes32"}],"outputs":[{"name":"","type":"bytes","internalType":"bytes"}],"stateMutability":"view"},{"type":"function","name":"getWill","inputs":[{"name":"willCommitment","type":"bytes32","internalType":"bytes32"}],"outputs":[{"name":"","type":"tuple","internalType":"struct AztecExecutor.Will","components":[{"name":"commitment","type":"bytes32","internalType":"bytes32"},{"name":"verificationKeyId","type":"bytes32","internalType":"bytes32"},{"name":"isRegistered","type":"bool","internalType":"bool"},{"name":"isExecuted","type":"bool","internalType":"bool"},{"name":"executionEnabled","type":"bool","internalType":"bool"},{"name":"registrationTime","type":"uint256","internalType":"uint256"},{"name":"executionTime","type":"uint256","internalType":"uint256"},{"name":"executor","type":"address","internalType":"address"}]}],"stateMutability":"view"},{"type":"function","name":"minExecutionDelay","inputs":[],"outputs":[{"name":"","type":"uint256","internalType":"uint256"}],"stateMutability":"view"},{"type":"function","name":"owner","inputs":[],"outputs":[{"name":"","type":"address","internalType":"address"}],"stateMutability":"view"},{"type":"function","name":"pause","inputs":[],"outputs":[],"stateMutability":"nonpayable"},{"type":"function","name":"paused","inputs":[],"outputs":[{"name":"","type":"bool","internalType":"bool"}],"stateMutability":"view"},{"type":"function","name":"registerWill","inputs":[{"name":"willCommitment","type":"bytes32","internalType":"bytes32"},{"name":"verificationKeyId","type":"bytes32","internalType":"bytes32"},{"name":"verificationKeyData","type":"bytes","internalType":"bytes"}],"outputs":[],"stateMutability":"nonpayable"},{"type":"function","name":"registeredWills","inputs":[{"name":"","type":"uint256","internalType":"uint256"}],"outputs":[{"name":"","type":"bytes32","internalType":"bytes32"}],"stateMutability":"view"},{"type":"function","name":"renounceOwnership","inputs":[],"outputs":[],"stateMutability":"nonpayable"},{"type":"function","name":"setAuthorizedEnabler","inputs":[{"name":"enabler","type":"address","internalType":"address"},{"name":"authorized","type":"bool","internalType":"bool"}],"outputs":[],"stateMutability":"nonpayable"},{"type":"function","name":"transferOwnership","inputs":[{"name":"newOwner","type":"address","internalType":"address"}],"outputs":[],"stateMutability":"nonpayable"},{"type":"function","name":"unpause","inputs":[],"outputs":[],"stateMutability":"nonpayable"},{"type":"function","name":"verificationKeys","inputs":[{"name":"","type":"bytes32","internalType":"bytes32"}],"outputs":[{"name":"","type":"bytes","internalType":"bytes"}],"stateMutability":"view"},{"type":"function","name":"wills","inputs":[{"name":"","type":"bytes32","internalType":"bytes32"}],"outputs":[{"name":"commitment","type":"bytes32","internalType":"bytes32"},{"name":"verificationKeyId","type":"bytes32","internalType":"bytes32"},{"name":"isRegistered","type":"bool","internalType":"bool"},{"name":"isExecuted","type":"bool","internalType":"bool"},{"name":"executionEnabled","type":"bool","internalType":"bool"},{"name":"registrationTime","type":"uint256","internalType":"uint256"},{"name":"executionTime","type":"uint256","internalType":"uint256"},{"name":"executor","type":"address","internalType":"address"}],"stateMutability":"view"},{"type":"event","name":"BeneficiaryPaid","inputs":[{"name":"willCommitment","type":"bytes32","indexed":true,"internalType":"bytes32"},{"name":"beneficiary","type":"address","indexed":true,"internalType":"address"},{"name":"ethAmount","type":"uint256","indexed":false,"internalType":"uint256"},{"name":"usdcAmount","type":"uint256","indexed":false,"internalType":"uint256"},{"name":"nftCount","type":"uint256","indexed":false,"internalType":"uint256"}],"anonymous":false},{"type":"event","name":"ExecutionEnabled","inputs":[{"name":"willCommitment","type":"bytes32","indexed":true,"internalType":"bytes32"},{"name":"timestamp","type":"uint256","indexed":false,"internalType":"uint256"}],"anonymous":false},{"type":"event","name":"OwnershipTransferred","inputs":[{"name":"previousOwner","type":"address","indexed":true,"internalType":"address"},{"name":"newOwner","type":"address","indexed":true,"internalType":"address"}],"anonymous":false},{"type":"event","name":"Paused","inputs":[{"name":"account","type":"address","indexed":false,"internalType":"address"}],"anonymous":false},{"type":"event","name":"Unpaused","inputs":[{"name":"account","type":"address","indexed":false,"internalType":"address"}],"anonymous":false},{"type":"event","name":"WillExecuted","inputs":[{"name":"willCommitment","type":"bytes32","indexed":true,"internalType":"bytes32"},{"name":"executor","type":"address","indexed":true,"internalType":"address"},{"name":"timestamp","type":"uint256","indexed":false,"internalType":"uint256"}],"anonymous":false},{"type":"event","name":"WillRegistered","inputs":[{"name":"willCommitment","type":"bytes32","indexed":true,"internalType":"bytes32"},{"name":"verificationKeyId","type":"bytes32","indexed":true,"internalType":"bytes32"},{"name":"timestamp","type":"uint256","indexed":false,"internalType":"uint256"}],"anonymous":false},{"type":"error","name":"EnforcedPause","inputs":[]},{"type":"error","name":"ExecutionNotEnabled","inputs":[]},{"type":"error","name":"ExpectedPause","inputs":[]},{"type":"error","name":"InsufficientBalance","inputs":[]},{"type":"error","name":"InvalidBeneficiary","inputs":[]},{"type":"error","name":"InvalidProof","inputs":[]},{"type":"error","name":"OwnableInvalidOwner","inputs":[{"name":"owner","type":"address","internalType":"address"}]},{"type":"error","name":"OwnableUnauthorizedAccount","inputs":[{"name":"account","type":"address","internalType":"address"}]},{"type":"error","name":"ReentrancyGuardReentrantCall","inputs":[]},{"type":"error","name":"TransferFailed","inputs":[]},{"type":"error","name":"WillAlreadyExecuted","inputs":[]},{"type":"error","name":"WillNotRegistered","inputs":[]}],"bytecode":{"object":"0x60a060405234801561000f575f5ffd5b5060405161251138038061251183398181016040528101906100319190610214565b335f73ffffffffffffffffffffffffffffffffffffffff168173ffffffffffffffffffffffffffffffffffffffff16036100a2575f6040517f1e4fbdf7000000000000000000000000000000000000000000000000000000008152600401610099919061027e565b60405180910390fd5b6100b18161011c60201b60201c565b50600180819055508060808181525050600160055f3373ffffffffffffffffffffffffffffffffffffffff1673ffffffffffffffffffffffffffffffffffffffff1681526020019081526020015f205f6101000a81548160ff02191690831515021790555050610297565b5f5f5f9054906101000a900473ffffffffffffffffffffffffffffffffffffffff169050815f5f6101000a81548173ffffffffffffffffffffffffffffffffffffffff021916908373ffffffffffffffffffffffffffffffffffffffff1602179055508173ffffffffffffffffffffffffffffffffffffffff168173ffffffffffffffffffffffffffffffffffffffff167f8be0079c531659141344cd1fd0a4f28419497f9722a3daafe3b4186f6b6457e060405160405180910390a35050565b5f5ffd5b5f819050919050565b6101f3816101e1565b81146101fd575f5ffd5b50565b5f8151905061020e816101ea565b92915050565b5f60208284031215610229576102286101dd565b5b5f61023684828501610200565b91505092915050565b5f73ffffffffffffffffffffffffffffffffffffffff82169050919050565b5f6102688261023f565b9050919050565b6102788161025e565b82525050565b5f6020820190506102915f83018461026f565b92915050565b6080516122546102bd5f395f81816107150152818161085f0152610c6801526122545ff3fe608060405260043610610117575f3560e01c8063715018a61161009f578063d3bea3f411610063578063d3bea3f414610386578063d47a2a9e146103ae578063d77179c1146103f1578063f2fde38b1461041b578063f552b997146104435761011e565b8063715018a6146102cc5780638456cb59146102e257806387efb692146102f8578063898ed444146103345780638da5cb5b1461035c5761011e565b80633bf8ee9c116100e65780633bf8ee9c146101fe5780633f4ba83a146102285780634456251b1461023e5780635c975abb1461027a57806369b945d5146102a45761011e565b806308adb80b146101225780631cd638151461015e578063290425911461019a578063297dc473146101d65761011e565b3661011e57005b5f5ffd5b34801561012d575f5ffd5b5061014860048036038101906101439190611610565b61047f565b60405161015591906116ab565b60405180910390f35b348015610169575f5ffd5b50610184600480360381019061017f9190611610565b61051a565b60405161019191906116ab565b60405180910390f35b3480156101a5575f5ffd5b506101c060048036038101906101bb9190611610565b6105bb565b6040516101cd91906117eb565b60405180910390f35b3480156101e1575f5ffd5b506101fc60048036038101906101f79190611859565b6106b3565b005b348015610209575f5ffd5b50610212610713565b60405161021f91906118a6565b60405180910390f35b348015610233575f5ffd5b5061023c610737565b005b348015610249575f5ffd5b50610264600480360381019061025f9190611610565b610749565b60405161027191906118ce565b60405180910390f35b348015610285575f5ffd5b5061028e610899565b60405161029b91906118ce565b60405180910390f35b3480156102af575f5ffd5b506102ca60048036038101906102c59190611948565b6108ae565b005b3480156102d7575f5ffd5b506102e0610aca565b005b3480156102ed575f5ffd5b506102f6610add565b005b348015610303575f5ffd5b5061031e600480360381019061031991906119e3565b610aef565b60405161032b9190611a1d565b60405180910390f35b34801561033f575f5ffd5b5061035a60048036038101906103559190611610565b610b0f565b005b348015610367575f5ffd5b50610370610cfc565b60405161037d9190611a45565b60405180910390f35b348015610391575f5ffd5b506103ac60048036038101906103a79190611ab3565b610d23565b005b3480156103b9575f5ffd5b506103d460048036038101906103cf9190611610565b611111565b6040516103e8989796959493929190611b44565b60405180910390f35b3480156103fc575f5ffd5b5061040561119a565b6040516104129190611c68565b60405180910390f35b348015610426575f5ffd5b50610441600480360381019061043c9190611c88565b6111f0565b005b34801561044e575f5ffd5b5061046960048036038101906104649190611c88565b611274565b60405161047691906118ce565b60405180910390f35b6003602052805f5260405f205f91509050805461049b90611ce0565b80601f01602080910402602001604051908101604052809291908181526020018280546104c790611ce0565b80156105125780601f106104e957610100808354040283529160200191610512565b820191905f5260205f20905b8154815290600101906020018083116104f557829003601f168201915b505050505081565b606060035f8381526020019081526020015f20805461053890611ce0565b80601f016020809104026020016040519081016040528092919081815260200182805461056490611ce0565b80156105af5780601f10610586576101008083540402835291602001916105af565b820191905f5260205f20905b81548152906001019060200180831161059257829003601f168201915b50505050509050919050565b6105c3611573565b60025f8381526020019081526020015f20604051806101000160405290815f820154815260200160018201548152602001600282015f9054906101000a900460ff161515151581526020016002820160019054906101000a900460ff161515151581526020016002820160029054906101000a900460ff161515151581526020016003820154815260200160048201548152602001600582015f9054906101000a900473ffffffffffffffffffffffffffffffffffffffff1673ffffffffffffffffffffffffffffffffffffffff1673ffffffffffffffffffffffffffffffffffffffff16815250509050919050565b6106bb611291565b8060055f8473ffffffffffffffffffffffffffffffffffffffff1673ffffffffffffffffffffffffffffffffffffffff1681526020019081526020015f205f6101000a81548160ff0219169083151502179055505050565b7f000000000000000000000000000000000000000000000000000000000000000081565b61073f611291565b610747611318565b565b5f5f60025f8481526020019081526020015f20604051806101000160405290815f820154815260200160018201548152602001600282015f9054906101000a900460ff161515151581526020016002820160019054906101000a900460ff161515151581526020016002820160029054906101000a900460ff161515151581526020016003820154815260200160048201548152602001600582015f9054906101000a900473ffffffffffffffffffffffffffffffffffffffff1673ffffffffffffffffffffffffffffffffffffffff1673ffffffffffffffffffffffffffffffffffffffff168152505090508060400151801561084957508060600151155b8015610856575080608001515b801561089157507f00000000000000000000000000000000000000000000000000000000000000008160a0015161088d9190611d3d565b4210155b915050919050565b5f5f60149054906101000a900460ff16905090565b6108b6611379565b60025f8581526020019081526020015f206002015f9054906101000a900460ff161561090e576040517f5aa22c7900000000000000000000000000000000000000000000000000000000815260040160405180910390fd5b6040518061010001604052808581526020018481526020016001151581526020015f151581526020015f151581526020014281526020015f81526020015f73ffffffffffffffffffffffffffffffffffffffff1681525060025f8681526020019081526020015f205f820151815f0155602082015181600101556040820151816002015f6101000a81548160ff02191690831515021790555060608201518160020160016101000a81548160ff02191690831515021790555060808201518160020160026101000a81548160ff02191690831515021790555060a0820151816003015560c0820151816004015560e0820151816005015f6101000a81548173ffffffffffffffffffffffffffffffffffffffff021916908373ffffffffffffffffffffffffffffffffffffffff160217905550905050818160035f8681526020019081526020015f209182610a64929190611f47565b50600484908060018154018082558091505060019003905f5260205f20015f909190919091505582847f2e3aca6b763fd24f7b953dea3cdab795b8c5c683c1d38e3789b6f9f0237f478f42604051610abc91906118a6565b60405180910390a350505050565b610ad2611291565b610adb5f6113ba565b565b610ae5611291565b610aed61147b565b565b60048181548110610afe575f80fd5b905f5260205f20015f915090505481565b60055f3373ffffffffffffffffffffffffffffffffffffffff1673ffffffffffffffffffffffffffffffffffffffff1681526020019081526020015f205f9054906101000a900460ff16610b98576040517f08c379a0000000000000000000000000000000000000000000000000000000008152600401610b8f9061206e565b60405180910390fd5b610ba0611379565b8060025f8281526020019081526020015f206002015f9054906101000a900460ff16610bf8576040517f5aa22c7900000000000000000000000000000000000000000000000000000000815260040160405180910390fd5b8160025f8281526020019081526020015f2060020160019054906101000a900460ff1615610c52576040517f267e7ab200000000000000000000000000000000000000000000000000000000815260040160405180910390fd5b5f60025f8581526020019081526020015f2090507f00000000000000000000000000000000000000000000000000000000000000008160030154610c969190611d3d565b421015610ca1575f5ffd5b60018160020160026101000a81548160ff021916908315150217905550837f371443f768f0c7def5797fe4b9e8a6457de00c4012aada5f48ccc5527433c84a42604051610cee91906118a6565b60405180910390a250505050565b5f5f5f9054906101000a900473ffffffffffffffffffffffffffffffffffffffff16905090565b610d2b611379565b610d336114dd565b8460025f8281526020019081526020015f206002015f9054906101000a900460ff16610d8b576040517f5aa22c7900000000000000000000000000000000000000000000000000000000815260040160405180910390fd5b8560025f8281526020019081526020015f2060020160019054906101000a900460ff1615610de5576040517f267e7ab200000000000000000000000000000000000000000000000000000000815260040160405180910390fd5b5f60025f8981526020019081526020015f2090508060020160029054906101000a900460ff16610e41576040517f59a5812100000000000000000000000000000000000000000000000000000000815260040160405180910390fd5b60018160020160016101000a81548160ff02191690831515021790555042816004018190555033816005015f6101000a81548173ffffffffffffffffffffffffffffffffffffffff021916908373ffffffffffffffffffffffffffffffffffffffff1602179055505f5f90505b878790508110156110af575f888883818110610ecd57610ecc61208c565b5b905060800201803603810190610ee3919061217d565b90505f73ffffffffffffffffffffffffffffffffffffffff16815f015173ffffffffffffffffffffffffffffffffffffffff1603610f4d576040517f5566df5c00000000000000000000000000000000000000000000000000000000815260040160405180910390fd5b5f8160200151111561103f578060200151471015610f97576040517ff4d678b800000000000000000000000000000000000000000000000000000000815260040160405180910390fd5b5f815f015173ffffffffffffffffffffffffffffffffffffffff168260200151604051610fc3906121d5565b5f6040518083038185875af1925050503d805f8114610ffd576040519150601f19603f3d011682016040523d82523d5f602084013e611002565b606091505b505090508061103d576040517f90b8ec1800000000000000000000000000000000000000000000000000000000815260040160405180910390fd5b505b805f015173ffffffffffffffffffffffffffffffffffffffff168a7fd427e4c9e40b27663bbe1446af3d825da33539696368f9bfdcab2c78bbdf7a7c836020015184604001518560600151604051611099939291906121e9565b60405180910390a3508080600101915050610eae565b503373ffffffffffffffffffffffffffffffffffffffff16887f9fae2c79e06c3a1442b3927b653d75611b0b82259d64047dc415690d2c47051c426040516110f791906118a6565b60405180910390a350505061110a611523565b5050505050565b6002602052805f5260405f205f91509050805f015490806001015490806002015f9054906101000a900460ff16908060020160019054906101000a900460ff16908060020160029054906101000a900460ff1690806003015490806004015490806005015f9054906101000a900473ffffffffffffffffffffffffffffffffffffffff16905088565b606060048054806020026020016040519081016040528092919081815260200182805480156111e657602002820191905f5260205f20905b8154815260200190600101908083116111d2575b5050505050905090565b6111f8611291565b5f73ffffffffffffffffffffffffffffffffffffffff168173ffffffffffffffffffffffffffffffffffffffff1603611268575f6040517f1e4fbdf700000000000000000000000000000000000000000000000000000000815260040161125f9190611a45565b60405180910390fd5b611271816113ba565b50565b6005602052805f5260405f205f915054906101000a900460ff1681565b61129961152c565b73ffffffffffffffffffffffffffffffffffffffff166112b7610cfc565b73ffffffffffffffffffffffffffffffffffffffff1614611316576112da61152c565b6040517f118cdaa700000000000000000000000000000000000000000000000000000000815260040161130d9190611a45565b60405180910390fd5b565b611320611533565b5f5f60146101000a81548160ff0219169083151502179055507f5db9ee0a495bf2e6ff9c91a7834c1ba4fdd244a5e8aa4e537bd38aeae4b073aa61136261152c565b60405161136f9190611a45565b60405180910390a1565b611381610899565b156113b8576040517fd93c066500000000000000000000000000000000000000000000000000000000815260040160405180910390fd5b565b5f5f5f9054906101000a900473ffffffffffffffffffffffffffffffffffffffff169050815f5f6101000a81548173ffffffffffffffffffffffffffffffffffffffff021916908373ffffffffffffffffffffffffffffffffffffffff1602179055508173ffffffffffffffffffffffffffffffffffffffff168173ffffffffffffffffffffffffffffffffffffffff167f8be0079c531659141344cd1fd0a4f28419497f9722a3daafe3b4186f6b6457e060405160405180910390a35050565b611483611379565b60015f60146101000a81548160ff0219169083151502179055507f62e78cea01bee320cd4e420270b5ea74000d11b0c9f74754ebdbfc544b05a2586114c661152c565b6040516114d39190611a45565b60405180910390a1565b600260015403611519576040517f3ee5aeb500000000000000000000000000000000000000000000000000000000815260040160405180910390fd5b6002600181905550565b60018081905550565b5f33905090565b61153b610899565b611571576040517f8dfc202b00000000000000000000000000000000000000000000000000000000815260040160405180910390fd5b565b6040518061010001604052805f81526020015f81526020015f151581526020015f151581526020015f151581526020015f81526020015f81526020015f73ffffffffffffffffffffffffffffffffffffffff1681525090565b5f604051905090565b5f5ffd5b5f5ffd5b5f819050919050565b6115ef816115dd565b81146115f9575f5ffd5b50565b5f8135905061160a816115e6565b92915050565b5f60208284031215611625576116246115d5565b5b5f611632848285016115fc565b91505092915050565b5f81519050919050565b5f82825260208201905092915050565b8281835e5f83830152505050565b5f601f19601f8301169050919050565b5f61167d8261163b565b6116878185611645565b9350611697818560208601611655565b6116a081611663565b840191505092915050565b5f6020820190508181035f8301526116c38184611673565b905092915050565b6116d4816115dd565b82525050565b5f8115159050919050565b6116ee816116da565b82525050565b5f819050919050565b611706816116f4565b82525050565b5f73ffffffffffffffffffffffffffffffffffffffff82169050919050565b5f6117358261170c565b9050919050565b6117458161172b565b82525050565b61010082015f8201516117605f8501826116cb565b50602082015161177360208501826116cb565b50604082015161178660408501826116e5565b50606082015161179960608501826116e5565b5060808201516117ac60808501826116e5565b5060a08201516117bf60a08501826116fd565b5060c08201516117d260c08501826116fd565b5060e08201516117e560e085018261173c565b50505050565b5f610100820190506117ff5f83018461174b565b92915050565b61180e8161172b565b8114611818575f5ffd5b50565b5f8135905061182981611805565b92915050565b611838816116da565b8114611842575f5ffd5b50565b5f813590506118538161182f565b92915050565b5f5f6040838503121561186f5761186e6115d5565b5b5f61187c8582860161181b565b925050602061188d85828601611845565b9150509250929050565b6118a0816116f4565b82525050565b5f6020820190506118b95f830184611897565b92915050565b6118c8816116da565b82525050565b5f6020820190506118e15f8301846118bf565b92915050565b5f5ffd5b5f5ffd5b5f5ffd5b5f5f83601f840112611908576119076118e7565b5b8235905067ffffffffffffffff811115611925576119246118eb565b5b602083019150836001820283011115611941576119406118ef565b5b9250929050565b5f5f5f5f606085870312156119605761195f6115d5565b5b5f61196d878288016115fc565b945050602061197e878288016115fc565b935050604085013567ffffffffffffffff81111561199f5761199e6115d9565b5b6119ab878288016118f3565b925092505092959194509250565b6119c2816116f4565b81146119cc575f5ffd5b50565b5f813590506119dd816119b9565b92915050565b5f602082840312156119f8576119f76115d5565b5b5f611a05848285016119cf565b91505092915050565b611a17816115dd565b82525050565b5f602082019050611a305f830184611a0e565b92915050565b611a3f8161172b565b82525050565b5f602082019050611a585f830184611a36565b92915050565b5f5f83601f840112611a7357611a726118e7565b5b8235905067ffffffffffffffff811115611a9057611a8f6118eb565b5b602083019150836080820283011115611aac57611aab6118ef565b5b9250929050565b5f5f5f5f5f60608688031215611acc57611acb6115d5565b5b5f611ad9888289016115fc565b955050602086013567ffffffffffffffff811115611afa57611af96115d9565b5b611b0688828901611a5e565b9450945050604086013567ffffffffffffffff811115611b2957611b286115d9565b5b611b35888289016118f3565b92509250509295509295909350565b5f61010082019050611b585f83018b611a0e565b611b65602083018a611a0e565b611b7260408301896118bf565b611b7f60608301886118bf565b611b8c60808301876118bf565b611b9960a0830186611897565b611ba660c0830185611897565b611bb360e0830184611a36565b9998505050505050505050565b5f81519050919050565b5f82825260208201905092915050565b5f819050602082019050919050565b5f611bf483836116cb565b60208301905092915050565b5f602082019050919050565b5f611c1682611bc0565b611c208185611bca565b9350611c2b83611bda565b805f5b83811015611c5b578151611c428882611be9565b9750611c4d83611c00565b925050600181019050611c2e565b5085935050505092915050565b5f6020820190508181035f830152611c808184611c0c565b905092915050565b5f60208284031215611c9d57611c9c6115d5565b5b5f611caa8482850161181b565b91505092915050565b7f4e487b71000000000000000000000000000000000000000000000000000000005f52602260045260245ffd5b5f6002820490506001821680611cf757607f821691505b602082108103611d0a57611d09611cb3565b5b50919050565b7f4e487b71000000000000000000000000000000000000000000000000000000005f52601160045260245ffd5b5f611d47826116f4565b9150611d52836116f4565b9250828201905080821115611d6a57611d69611d10565b5b92915050565b5f82905092915050565b7f4e487b71000000000000000000000000000000000000000000000000000000005f52604160045260245ffd5b5f819050815f5260205f209050919050565b5f6020601f8301049050919050565b5f82821b905092915050565b5f60088302611e037fffffffffffffffffffffffffffffffffffffffffffffffffffffffffffffffff82611dc8565b611e0d8683611dc8565b95508019841693508086168417925050509392505050565b5f819050919050565b5f611e48611e43611e3e846116f4565b611e25565b6116f4565b9050919050565b5f819050919050565b611e6183611e2e565b611e75611e6d82611e4f565b848454611dd4565b825550505050565b5f5f905090565b611e8c611e7d565b611e97818484611e58565b505050565b5b81811015611eba57611eaf5f82611e84565b600181019050611e9d565b5050565b601f821115611eff57611ed081611da7565b611ed984611db9565b81016020851015611ee8578190505b611efc611ef485611db9565b830182611e9c565b50505b505050565b5f82821c905092915050565b5f611f1f5f1984600802611f04565b1980831691505092915050565b5f611f378383611f10565b9150826002028217905092915050565b611f518383611d70565b67ffffffffffffffff811115611f6a57611f69611d7a565b5b611f748254611ce0565b611f7f828285611ebe565b5f601f831160018114611fac575f8415611f9a578287013590505b611fa48582611f2c565b86555061200b565b601f198416611fba86611da7565b5f5b82811015611fe157848901358255600182019150602085019450602081019050611fbc565b86831015611ffe5784890135611ffa601f891682611f10565b8355505b6001600288020188555050505b50505050505050565b5f82825260208201905092915050565b7f4e6f7420617574686f72697a656420656e61626c6572000000000000000000005f82015250565b5f612058601683612014565b915061206382612024565b602082019050919050565b5f6020820190508181035f8301526120858161204c565b9050919050565b7f4e487b71000000000000000000000000000000000000000000000000000000005f52603260045260245ffd5b5f5ffd5b6120c682611663565b810181811067ffffffffffffffff821117156120e5576120e4611d7a565b5b80604052505050565b5f6120f76115cc565b905061210382826120bd565b919050565b5f6080828403121561211d5761211c6120b9565b5b61212760806120ee565b90505f6121368482850161181b565b5f830152506020612149848285016119cf565b602083015250604061215d848285016119cf565b6040830152506060612171848285016119cf565b60608301525092915050565b5f60808284031215612192576121916115d5565b5b5f61219f84828501612108565b91505092915050565b5f81905092915050565b50565b5f6121c05f836121a8565b91506121cb826121b2565b5f82019050919050565b5f6121df826121b5565b9150819050919050565b5f6060820190506121fc5f830186611897565b6122096020830185611897565b6122166040830184611897565b94935050505056fea26469706673582212201c3a490da888071238d80a3aa647b29331de047e43564c384bf2121ddf4a026564736f6c634300081d0033","linkReferences":{}},"methodIdentifiers":{"authorizedEnablers(address)":"f552b997","canExecute(bytes32)":"4456251b","enableExecution(bytes32)":"898ed444","executeWill(bytes32,(address,uint256,uint256,uint256)[],bytes)":"d3bea3f4","getRegisteredWills()":"d77179c1","getVerificationKey(bytes32)":"1cd63815","getWill(bytes32)":"29042591","minExecutionDelay()":"3bf8ee9c","owner()":"8da5cb5b","pause()":"8456cb59","paused()":"5c975abb","registerWill(bytes32,bytes32,bytes)":"69b945d5","registeredWills(uint256)":"87efb692","renounceOwnership()":"715018a6","setAuthorizedEnabler(address,bool)":"297dc473","transferOwnership(address)":"f2fde38b","unpause()":"3f4ba83a","verificationKeys(bytes32)":"08adb80b","wills(bytes32)":"d47a2a9e"},"id":4}